{
  "_format": "hh-sol-artifact-1",
  "contractName": "TalentSponsorship",
  "sourceName": "contracts/season3/TalentSponsorship.sol",
  "abi": [
    {
      "inputs": [],
      "stateMutability": "nonpayable",
      "type": "constructor"
    },
    {
      "anonymous": false,
      "inputs": [
        {
          "indexed": true,
          "internalType": "address",
          "name": "sponsor",
          "type": "address"
        },
        {
          "indexed": true,
          "internalType": "address",
          "name": "talent",
          "type": "address"
        },
        {
          "indexed": false,
          "internalType": "uint256",
          "name": "amount",
          "type": "uint256"
        },
        {
          "indexed": true,
          "internalType": "address",
          "name": "token",
          "type": "address"
        },
        {
          "indexed": false,
          "internalType": "string",
          "name": "symbol",
          "type": "string"
        }
      ],
      "name": "SponsorshipCreated",
      "type": "event"
    },
    {
      "anonymous": false,
      "inputs": [
        {
          "indexed": true,
          "internalType": "address",
          "name": "talent",
          "type": "address"
        },
        {
          "indexed": false,
          "internalType": "uint256",
          "name": "amount",
          "type": "uint256"
        },
        {
          "indexed": true,
          "internalType": "address",
          "name": "token",
          "type": "address"
        },
        {
          "indexed": false,
          "internalType": "string",
          "name": "symbol",
          "type": "string"
        }
      ],
      "name": "Withdraw",
      "type": "event"
    },
    {
      "inputs": [
        {
          "internalType": "address",
          "name": "_token",
          "type": "address"
        }
      ],
      "name": "amountAvailable",
      "outputs": [
        {
          "internalType": "uint256",
          "name": "",
          "type": "uint256"
        }
      ],
      "stateMutability": "view",
      "type": "function"
    },
    {
      "inputs": [
        {
          "internalType": "address",
          "name": "",
          "type": "address"
        },
        {
          "internalType": "address",
          "name": "",
          "type": "address"
        }
      ],
      "name": "amountAvailableForTalent",
      "outputs": [
        {
          "internalType": "uint256",
          "name": "",
          "type": "uint256"
        }
      ],
      "stateMutability": "view",
      "type": "function"
    },
    {
      "inputs": [
        {
          "internalType": "address",
          "name": "_talent",
          "type": "address"
        },
        {
          "internalType": "uint256",
          "name": "_amount",
          "type": "uint256"
        },
        {
          "internalType": "address",
          "name": "_token",
          "type": "address"
        }
      ],
      "name": "sponsor",
      "outputs": [],
      "stateMutability": "nonpayable",
      "type": "function"
    },
    {
      "inputs": [
        {
          "internalType": "address",
          "name": "",
          "type": "address"
        },
        {
          "internalType": "address",
          "name": "",
          "type": "address"
        },
        {
          "internalType": "address",
          "name": "",
          "type": "address"
        }
      ],
      "name": "sponsorships",
      "outputs": [
        {
          "internalType": "uint256",
          "name": "",
          "type": "uint256"
        }
      ],
      "stateMutability": "view",
      "type": "function"
    },
    {
      "inputs": [],
      "name": "totalSponsorships",
      "outputs": [
        {
          "internalType": "uint256",
          "name": "",
          "type": "uint256"
        }
      ],
      "stateMutability": "view",
      "type": "function"
    },
    {
      "inputs": [
        {
          "internalType": "address",
          "name": "_token",
          "type": "address"
        }
      ],
      "name": "withdrawToken",
      "outputs": [],
      "stateMutability": "nonpayable",
      "type": "function"
    }
  ],
  "bytecode": "0x608060405234801561001057600080fd5b506000600255610a89806100256000396000f3fe608060405234801561001057600080fd5b50600436106100725760003560e01c80639c60b07e116100505780639c60b07e146100d7578063adc7f9fa1461010d578063d5be3a9c1461013857600080fd5b806343da34a2146100775780637315ab50146100b957806389476069146100c2575b600080fd5b6100a76100853660046107ea565b6000602081815293815260408082208552928152828120909352825290205481565b60405190815260200160405180910390f35b6100a760025481565b6100d56100d036600461082d565b61014b565b005b6100a76100e536600461082d565b3360009081526001602090815260408083206001600160a01b03949094168352929052205490565b6100a761011b36600461084f565b600160209081526000928352604080842090915290825290205481565b6100d5610146366004610882565b610405565b33600090815260016020908152604082206001600160a01b03841690925252610178565b60405180910390fd5b3360009081526001602090815260408083206001600160a01b0385168085529252918290205491516370a0823160e01b81523060048201528291906370a0823190602401602060405180830381865afa1580156101d9573d6000803e3d6000fd5b505050506040513d601f19601f820116820180604052508101906101fd91906108b5565b10156102715760405162461bcd60e51b815260206004820152602960248201527f536d61727420636f6e747261637420646f6573206e6f74206861766520656e6f60448201527f7567682066756e64730000000000000000000000000000000000000000000000606482015260840161016f565b3360009081526001602090815260408083206001600160a01b03861684529091529020546102a09082906108e4565b3360008181526001602090815260408083206001600160a01b03881680855292529182902093909355517fa9059cbb00000000000000000000000000000000000000000000000000000000815260048101919091526024810183905263a9059cbb906044016020604051808303816000875af1158015610324573d6000803e3d6000fd5b505050506040513d601f19601f8201168201806040525081019061034891906108fd565b506000826001600160a01b03166395d89b416040518163ffffffff1660e01b8152600401600060405180830381865afa158015610389573d6000803e3d6000fd5b505050506040513d6000823e601f3d908101601f191682016040526103b19190810190610959565b9050826001600160a01b0316336001600160a01b03167fa4c6cd4bfefcc09490a00cf1f79a859de6f34c1da3186bb65d5102b1b844554784846040516103f8929190610a06565b60405180910390a3505050565b6040516370a0823160e01b815233600482015282906001600160a01b038316906370a0823190602401602060405180830381865afa15801561044b573d6000803e3d6000fd5b505050506040513d601f19601f8201168201806040525081019061046f91906108b5565b10156104bd5760405162461bcd60e51b815260206004820152601d60248201527f596f7520646f6e2774206861766520656e6f7567682062616c616e6365000000604482015260640161016f565b6040517fdd62ed3e00000000000000000000000000000000000000000000000000000000815233600482015230602482015282906001600160a01b0383169063dd62ed3e90604401602060405180830381865afa158015610522573d6000803e3d6000fd5b505050506040513d601f19601f8201168201806040525081019061054691906108b5565b10156105ba5760405162461bcd60e51b815260206004820152603660248201527f596f75206d75737420666972737420617070726f7665207468697320736d617260448201527f7420636f6e747261637420746f207472616e7366657200000000000000000000606482015260840161016f565b6002546105c8906001610a40565b600255336000908152602081815260408083206001600160a01b0387811685529083528184209085168452909152902054610604908390610a40565b336000908152602081815260408083206001600160a01b03888116808652918452828520908716808652908452828520959095558352600182528083209383529290522054610654908390610a40565b6001600160a01b03848116600090815260016020908152604080832093861680845293909152908190209290925590517f23b872dd000000000000000000000000000000000000000000000000000000008152336004820152306024820152604481018490526323b872dd906064016020604051808303816000875af11580156106e2573d6000803e3d6000fd5b505050506040513d601f19601f8201168201806040525081019061070691906108fd565b506000816001600160a01b03166395d89b416040518163ffffffff1660e01b8152600401600060405180830381865afa158015610747573d6000803e3d6000fd5b505050506040513d6000823e601f3d908101601f1916820160405261076f9190810190610959565b9050816001600160a01b0316846001600160a01b0316336001600160a01b03167f731fa8c1fe722772dcb0c9b11e0a53af551dd3d2ac3f2c1e0892eee5d118e59d86856040516107c0929190610a06565b60405180910390a450505050565b80356001600160a01b03811681146107e557600080fd5b919050565b6000806000606084860312156107ff57600080fd5b610808846107ce565b9250610816602085016107ce565b9150610824604085016107ce565b90509250925092565b60006020828403121561083f57600080fd5b610848826107ce565b9392505050565b6000806040838503121561086257600080fd5b61086b836107ce565b9150610879602084016107ce565b90509250929050565b60008060006060848603121561089757600080fd5b6108a0846107ce565b925060208401359150610824604085016107ce565b6000602082840312156108c757600080fd5b5051919050565b634e487b7160e01b600052601160045260246000fd5b818103818111156108f7576108f76108ce565b92915050565b60006020828403121561090f57600080fd5b8151801515811461084857600080fd5b634e487b7160e01b600052604160045260246000fd5b60005b83811015610950578181015183820152602001610938565b50506000910152565b60006020828403121561096b57600080fd5b815167ffffffffffffffff8082111561098357600080fd5b818401915084601f83011261099757600080fd5b8151818111156109a9576109a961091f565b604051601f8201601f19908116603f011681019083821181831017156109d1576109d161091f565b816040528281528760208487010111156109ea57600080fd5b6109fb836020830160208801610935565b979650505050505050565b8281526040602082015260008251806040840152610a2b816060850160208701610935565b601f01601f1916919091016060019392505050565b808201808211156108f7576108f76108ce56fea2646970667358221220ef23017f9a045ce6440e635b64d370584015f94e3c38ce5cf01d50c4e407977564736f6c63430008110033",
  "linkReferences": {},
  "deployedLinkReferences": {}
}