{
  "_format": "hh-sol-artifact-1",
  "contractName": "TalentSponsorship",
  "sourceName": "contracts/season3/TalentSponsorship.sol",
  "abi": [
    {
      "inputs": [],
      "stateMutability": "nonpayable",
      "type": "constructor"
    },
    {
      "anonymous": false,
      "inputs": [
        {
          "indexed": true,
          "internalType": "address",
          "name": "sponsor",
          "type": "address"
        },
        {
          "indexed": true,
          "internalType": "address",
          "name": "talent",
          "type": "address"
        },
        {
          "indexed": false,
          "internalType": "uint256",
          "name": "amount",
          "type": "uint256"
        },
        {
          "indexed": true,
          "internalType": "address",
          "name": "token",
          "type": "address"
        },
        {
          "indexed": false,
          "internalType": "string",
          "name": "symbol",
          "type": "string"
        }
      ],
      "name": "SponsorshipCreated",
      "type": "event"
    },
    {
      "anonymous": false,
      "inputs": [
        {
          "indexed": true,
          "internalType": "address",
          "name": "sponsor",
          "type": "address"
        },
        {
          "indexed": true,
          "internalType": "address",
          "name": "talent",
          "type": "address"
        },
        {
          "indexed": false,
          "internalType": "uint256",
          "name": "amount",
          "type": "uint256"
        },
        {
          "indexed": true,
          "internalType": "address",
          "name": "token",
          "type": "address"
        },
        {
          "indexed": false,
          "internalType": "string",
          "name": "symbol",
          "type": "string"
        }
      ],
      "name": "SponsorshipRevoked",
      "type": "event"
    },
    {
      "anonymous": false,
      "inputs": [
        {
          "indexed": true,
          "internalType": "address",
          "name": "sponsor",
          "type": "address"
        },
        {
          "indexed": true,
          "internalType": "address",
          "name": "talent",
          "type": "address"
        },
        {
          "indexed": false,
          "internalType": "uint256",
          "name": "amount",
          "type": "uint256"
        },
        {
          "indexed": true,
          "internalType": "address",
          "name": "token",
          "type": "address"
        },
        {
          "indexed": false,
          "internalType": "string",
          "name": "symbol",
          "type": "string"
        }
      ],
      "name": "Withdraw",
      "type": "event"
    },
    {
      "inputs": [
        {
          "internalType": "address",
          "name": "_token",
          "type": "address"
        }
      ],
      "name": "amountAvailable",
      "outputs": [
        {
          "internalType": "uint256",
          "name": "",
          "type": "uint256"
        }
      ],
      "stateMutability": "view",
      "type": "function"
    },
    {
      "inputs": [
        {
          "internalType": "address",
          "name": "",
          "type": "address"
        },
        {
          "internalType": "address",
          "name": "",
          "type": "address"
        },
        {
          "internalType": "address",
          "name": "",
          "type": "address"
        }
      ],
      "name": "amountAvailableForSponsorship",
      "outputs": [
        {
          "internalType": "uint256",
          "name": "",
          "type": "uint256"
        }
      ],
      "stateMutability": "view",
      "type": "function"
    },
    {
      "inputs": [
        {
          "internalType": "address",
          "name": "",
          "type": "address"
        },
        {
          "internalType": "address",
          "name": "",
          "type": "address"
        }
      ],
      "name": "amountAvailableForTalent",
      "outputs": [
        {
          "internalType": "uint256",
          "name": "",
          "type": "uint256"
        }
      ],
      "stateMutability": "view",
      "type": "function"
    },
    {
      "inputs": [
        {
          "internalType": "address",
          "name": "_talent",
          "type": "address"
        },
        {
          "internalType": "address",
          "name": "_token",
          "type": "address"
        }
      ],
      "name": "revokeSponsor",
      "outputs": [],
      "stateMutability": "nonpayable",
      "type": "function"
    },
    {
      "inputs": [
        {
          "internalType": "address",
          "name": "_talent",
          "type": "address"
        },
        {
          "internalType": "uint256",
          "name": "_amount",
          "type": "uint256"
        },
        {
          "internalType": "address",
          "name": "_token",
          "type": "address"
        }
      ],
      "name": "sponsor",
      "outputs": [],
      "stateMutability": "nonpayable",
      "type": "function"
    },
    {
      "inputs": [
        {
          "internalType": "address",
          "name": "",
          "type": "address"
        },
        {
          "internalType": "address",
          "name": "",
          "type": "address"
        },
        {
          "internalType": "address",
          "name": "",
          "type": "address"
        }
      ],
      "name": "sponsorships",
      "outputs": [
        {
          "internalType": "uint256",
          "name": "",
          "type": "uint256"
        }
      ],
      "stateMutability": "view",
      "type": "function"
    },
    {
      "inputs": [],
      "name": "totalClaimedSponsorships",
      "outputs": [
        {
          "internalType": "uint256",
          "name": "",
          "type": "uint256"
        }
      ],
      "stateMutability": "view",
      "type": "function"
    },
    {
      "inputs": [],
      "name": "totalRevokedSponsorships",
      "outputs": [
        {
          "internalType": "uint256",
          "name": "",
          "type": "uint256"
        }
      ],
      "stateMutability": "view",
      "type": "function"
    },
    {
      "inputs": [],
      "name": "totalSponsorships",
      "outputs": [
        {
          "internalType": "uint256",
          "name": "",
          "type": "uint256"
        }
      ],
      "stateMutability": "view",
      "type": "function"
    },
    {
      "inputs": [
        {
          "internalType": "address",
          "name": "_sponsor",
          "type": "address"
        },
        {
          "internalType": "address",
          "name": "_token",
          "type": "address"
        }
      ],
      "name": "withdrawToken",
      "outputs": [],
      "stateMutability": "nonpayable",
      "type": "function"
    }
  ],
  "bytecode": "0x608060405234801561001057600080fd5b50600060038190556004819055600555610fcb8061002f6000396000f3fe608060405234801561001057600080fd5b50600436106100be5760003560e01c806377571f4211610076578063adc7f9fa1161005b578063adc7f9fa1461017e578063d5be3a9c146101a9578063fcd27e08146101bc57600080fd5b806377571f421461013f5780639c60b07e1461014857600080fd5b80635c88318e116100a75780635c88318e1461011a5780635ea692911461012d5780637315ab501461013657600080fd5b80633aeac4e1146100c357806343da34a2146100d8575b600080fd5b6100d66100d1366004610d2c565b6101ed565b005b6101086100e6366004610d5f565b6000602081815293815260408082208552928152828120909352825290205481565b60405190815260200160405180910390f35b6100d6610128366004610d2c565b61058e565b61010860045481565b61010860035481565b61010860055481565b610108610156366004610da2565b3360009081526002602090815260408083206001600160a01b03949094168352929052205490565b61010861018c366004610d2c565b600260209081526000928352604080842090915290825290205481565b6100d66101b7366004610dc4565b6108f8565b6101086101ca366004610d5f565b600160209081526000938452604080852082529284528284209052825290205481565b6001600160a01b0380831660009081526001602090815260408083203384528252808320938516835292905220546102925760405162461bcd60e51b815260206004820152602660248201527f546865726520617265206e6f2066756e647320666f7220796f7520746f20726560448201527f747269657665000000000000000000000000000000000000000000000000000060648201526084015b60405180910390fd5b6001600160a01b038281166000908152600160209081526040808320338452825280832093851680845293909152908190205490516370a0823160e01b8152306004820152909182916370a0823190602401602060405180830381865afa158015610301573d6000803e3d6000fd5b505050506040513d601f19601f820116820180604052508101906103259190610df7565b10156103995760405162461bcd60e51b815260206004820152602960248201527f536d61727420636f6e747261637420646f6573206e6f74206861766520656e6f60448201527f7567682066756e647300000000000000000000000000000000000000000000006064820152608401610289565b6005546103a7906001610e26565b6005556001600160a01b0380841660009081526001602090815260408083203384528252808320938616835292905220546103e3908290610e3f565b6001600160a01b038085166000908152600160209081526040808320338085529083528184209488168085529483528184209590955593825260028152838220928252919091522054610437908290610e3f565b3360008181526002602090815260408083206001600160a01b038816808552925291829020939093555163a9059cbb60e01b815260048101919091526024810183905263a9059cbb906044016020604051808303816000875af11580156104a2573d6000803e3d6000fd5b505050506040513d601f19601f820116820180604052508101906104c69190610e52565b506000826001600160a01b03166395d89b416040518163ffffffff1660e01b8152600401600060405180830381865afa158015610507573d6000803e3d6000fd5b505050506040513d6000823e601f3d908101601f1916820160405261052f9190810190610eae565b9050826001600160a01b0316336001600160a01b0316856001600160a01b03167f9aadbfee3fb24d13fe1354828069fdaa549c3dba8af6113987fe93a359a822018585604051610580929190610f5b565b60405180910390a450505050565b3360009081526001602090815260408083206001600160a01b0386811685529083528184209085168452909152902054806106315760405162461bcd60e51b815260206004820152602860248201527f54686572652773206e6f2070656e64696e672073706f6e736f7273686970207460448201527f6f207265766f6b650000000000000000000000000000000000000000000000006064820152608401610289565b6040516370a0823160e01b815230600482015281906001600160a01b038416906370a0823190602401602060405180830381865afa158015610677573d6000803e3d6000fd5b505050506040513d601f19601f8201168201806040525081019061069b9190610df7565b101561070f5760405162461bcd60e51b815260206004820152602660248201527f54686520636f6e747261637420646f6e2774206861766520656e6f756768206260448201527f616c616e636500000000000000000000000000000000000000000000000000006064820152608401610289565b60045461071d906001610e26565b6004556001600160a01b03808416600090815260026020908152604080832093861683529290522054610751908290610e3f565b6001600160a01b038085166000818152600260209081526040808320948816808452948252808320959095553382526001815284822092825291825283812092815291905220546107a3908290610e3f565b3360008181526001602090815260408083206001600160a01b038981168552908352818420908816808552925291829020939093555163a9059cbb60e01b815260048101919091526024810183905263a9059cbb906044016020604051808303816000875af115801561081a573d6000803e3d6000fd5b505050506040513d601f19601f8201168201806040525081019061083e9190610e52565b506000826001600160a01b03166395d89b416040518163ffffffff1660e01b8152600401600060405180830381865afa15801561087f573d6000803e3d6000fd5b505050506040513d6000823e601f3d908101601f191682016040526108a79190810190610eae565b9050826001600160a01b0316846001600160a01b0316336001600160a01b03167fc4bbe1204408f15c52ed42b367cb4493467907e6b80f5cbfb434c40d71e9ae468585604051610580929190610f5b565b6040516370a0823160e01b815233600482015282906001600160a01b038316906370a0823190602401602060405180830381865afa15801561093e573d6000803e3d6000fd5b505050506040513d601f19601f820116820180604052508101906109629190610df7565b10156109b05760405162461bcd60e51b815260206004820152601d60248201527f596f7520646f6e2774206861766520656e6f7567682062616c616e63650000006044820152606401610289565b6040517fdd62ed3e00000000000000000000000000000000000000000000000000000000815233600482015230602482015282906001600160a01b0383169063dd62ed3e90604401602060405180830381865afa158015610a15573d6000803e3d6000fd5b505050506040513d601f19601f82011682018060405250810190610a399190610df7565b1015610aad5760405162461bcd60e51b815260206004820152603660248201527f596f75206d75737420666972737420617070726f7665207468697320736d617260448201527f7420636f6e747261637420746f207472616e73666572000000000000000000006064820152608401610289565b600354610abb906001610e26565b6003556001600160a01b03808416600090815260026020908152604080832093851683529290522054610aef908390610e26565b6001600160a01b038085166000818152600260209081526040808320948716808452948252808320959095553382528181528482209282529182528381209281529190522054610b40908390610e26565b336000818152602081815260408083206001600160a01b03898116808652918452828520908816808652908452828520969096559383526001825280832093835292815282822093825292909252902054610b9c908390610e26565b3360008181526001602090815260408083206001600160a01b03898116855290835281842090871680855292529182902093909355517f23b872dd0000000000000000000000000000000000000000000000000000000081526004810191909152306024820152604481018490526323b872dd906064016020604051808303816000875af1158015610c32573d6000803e3d6000fd5b505050506040513d601f19601f82011682018060405250810190610c569190610e52565b506000816001600160a01b03166395d89b416040518163ffffffff1660e01b8152600401600060405180830381865afa158015610c97573d6000803e3d6000fd5b505050506040513d6000823e601f3d908101601f19168201604052610cbf9190810190610eae565b9050816001600160a01b0316846001600160a01b0316336001600160a01b03167f731fa8c1fe722772dcb0c9b11e0a53af551dd3d2ac3f2c1e0892eee5d118e59d8685604051610580929190610f5b565b80356001600160a01b0381168114610d2757600080fd5b919050565b60008060408385031215610d3f57600080fd5b610d4883610d10565b9150610d5660208401610d10565b90509250929050565b600080600060608486031215610d7457600080fd5b610d7d84610d10565b9250610d8b60208501610d10565b9150610d9960408501610d10565b90509250925092565b600060208284031215610db457600080fd5b610dbd82610d10565b9392505050565b600080600060608486031215610dd957600080fd5b610de284610d10565b925060208401359150610d9960408501610d10565b600060208284031215610e0957600080fd5b5051919050565b634e487b7160e01b600052601160045260246000fd5b80820180821115610e3957610e39610e10565b92915050565b81810381811115610e3957610e39610e10565b600060208284031215610e6457600080fd5b81518015158114610dbd57600080fd5b634e487b7160e01b600052604160045260246000fd5b60005b83811015610ea5578181015183820152602001610e8d565b50506000910152565b600060208284031215610ec057600080fd5b815167ffffffffffffffff80821115610ed857600080fd5b818401915084601f830112610eec57600080fd5b815181811115610efe57610efe610e74565b604051601f8201601f19908116603f01168101908382118183101715610f2657610f26610e74565b81604052828152876020848701011115610f3f57600080fd5b610f50836020830160208801610e8a565b979650505050505050565b8281526040602082015260008251806040840152610f80816060850160208701610e8a565b601f01601f191691909101606001939250505056fea2646970667358221220e9293f295ee21cf95bd761127217aac92b267a70e70b4a52ff22b8fdb3ed176c64736f6c63430008110033",
  "linkReferences": {},
  "deployedLinkReferences": {}
}