{
  "_format": "hh-sol-artifact-1",
  "contractName": "TalentFactoryV3",
  "sourceName": "contracts/season3/TalentFactoryV3.sol",
  "abi": [
    {
      "anonymous": false,
      "inputs": [
        {
          "indexed": false,
          "internalType": "uint8",
          "name": "version",
          "type": "uint8"
        }
      ],
      "name": "Initialized",
      "type": "event"
    },
    {
      "anonymous": false,
      "inputs": [
        {
          "indexed": true,
          "internalType": "bytes32",
          "name": "role",
          "type": "bytes32"
        },
        {
          "indexed": true,
          "internalType": "bytes32",
          "name": "previousAdminRole",
          "type": "bytes32"
        },
        {
          "indexed": true,
          "internalType": "bytes32",
          "name": "newAdminRole",
          "type": "bytes32"
        }
      ],
      "name": "RoleAdminChanged",
      "type": "event"
    },
    {
      "anonymous": false,
      "inputs": [
        {
          "indexed": true,
          "internalType": "bytes32",
          "name": "role",
          "type": "bytes32"
        },
        {
          "indexed": true,
          "internalType": "address",
          "name": "account",
          "type": "address"
        },
        {
          "indexed": true,
          "internalType": "address",
          "name": "sender",
          "type": "address"
        }
      ],
      "name": "RoleGranted",
      "type": "event"
    },
    {
      "anonymous": false,
      "inputs": [
        {
          "indexed": true,
          "internalType": "bytes32",
          "name": "role",
          "type": "bytes32"
        },
        {
          "indexed": true,
          "internalType": "address",
          "name": "account",
          "type": "address"
        },
        {
          "indexed": true,
          "internalType": "address",
          "name": "sender",
          "type": "address"
        }
      ],
      "name": "RoleRevoked",
      "type": "event"
    },
    {
      "anonymous": false,
      "inputs": [
        {
          "indexed": true,
          "internalType": "address",
          "name": "talent",
          "type": "address"
        },
        {
          "indexed": true,
          "internalType": "address",
          "name": "token",
          "type": "address"
        }
      ],
      "name": "TalentCreated",
      "type": "event"
    },
    {
      "inputs": [],
      "name": "DEFAULT_ADMIN_ROLE",
      "outputs": [
        {
          "internalType": "bytes32",
          "name": "",
          "type": "bytes32"
        }
      ],
      "stateMutability": "view",
      "type": "function"
    },
    {
      "inputs": [],
      "name": "INITIAL_SUPPLY",
      "outputs": [
        {
          "internalType": "uint256",
          "name": "",
          "type": "uint256"
        }
      ],
      "stateMutability": "view",
      "type": "function"
    },
    {
      "inputs": [],
      "name": "ROLE_MINTER",
      "outputs": [
        {
          "internalType": "bytes32",
          "name": "",
          "type": "bytes32"
        }
      ],
      "stateMutability": "view",
      "type": "function"
    },
    {
      "inputs": [],
      "name": "WHITELISTER_ROLE",
      "outputs": [
        {
          "internalType": "bytes32",
          "name": "",
          "type": "bytes32"
        }
      ],
      "stateMutability": "view",
      "type": "function"
    },
    {
      "inputs": [
        {
          "internalType": "address",
          "name": "talentAddress",
          "type": "address"
        },
        {
          "internalType": "address",
          "name": "tokenAddress",
          "type": "address"
        }
      ],
      "name": "addAddressToTokensToTalents",
      "outputs": [],
      "stateMutability": "nonpayable",
      "type": "function"
    },
    {
      "inputs": [
        {
          "internalType": "address",
          "name": "_talent",
          "type": "address"
        },
        {
          "internalType": "string",
          "name": "_name",
          "type": "string"
        },
        {
          "internalType": "string",
          "name": "_symbol",
          "type": "string"
        }
      ],
      "name": "createTalent",
      "outputs": [
        {
          "internalType": "address",
          "name": "",
          "type": "address"
        }
      ],
      "stateMutability": "nonpayable",
      "type": "function"
    },
    {
      "inputs": [
        {
          "internalType": "bytes32",
          "name": "role",
          "type": "bytes32"
        }
      ],
      "name": "getRoleAdmin",
      "outputs": [
        {
          "internalType": "bytes32",
          "name": "",
          "type": "bytes32"
        }
      ],
      "stateMutability": "view",
      "type": "function"
    },
    {
      "inputs": [
        {
          "internalType": "bytes32",
          "name": "role",
          "type": "bytes32"
        },
        {
          "internalType": "uint256",
          "name": "index",
          "type": "uint256"
        }
      ],
      "name": "getRoleMember",
      "outputs": [
        {
          "internalType": "address",
          "name": "",
          "type": "address"
        }
      ],
      "stateMutability": "view",
      "type": "function"
    },
    {
      "inputs": [
        {
          "internalType": "bytes32",
          "name": "role",
          "type": "bytes32"
        }
      ],
      "name": "getRoleMemberCount",
      "outputs": [
        {
          "internalType": "uint256",
          "name": "",
          "type": "uint256"
        }
      ],
      "stateMutability": "view",
      "type": "function"
    },
    {
      "inputs": [
        {
          "internalType": "bytes32",
          "name": "role",
          "type": "bytes32"
        },
        {
          "internalType": "address",
          "name": "account",
          "type": "address"
        }
      ],
      "name": "grantRole",
      "outputs": [],
      "stateMutability": "nonpayable",
      "type": "function"
    },
    {
      "inputs": [
        {
          "internalType": "bytes32",
          "name": "role",
          "type": "bytes32"
        },
        {
          "internalType": "address",
          "name": "account",
          "type": "address"
        }
      ],
      "name": "hasRole",
      "outputs": [
        {
          "internalType": "bool",
          "name": "",
          "type": "bool"
        }
      ],
      "stateMutability": "view",
      "type": "function"
    },
    {
      "inputs": [
        {
          "internalType": "address",
          "name": "addr",
          "type": "address"
        }
      ],
      "name": "hasTalentToken",
      "outputs": [
        {
          "internalType": "bool",
          "name": "",
          "type": "bool"
        }
      ],
      "stateMutability": "view",
      "type": "function"
    },
    {
      "inputs": [],
      "name": "implementationBeacon",
      "outputs": [
        {
          "internalType": "address",
          "name": "",
          "type": "address"
        }
      ],
      "stateMutability": "view",
      "type": "function"
    },
    {
      "inputs": [],
      "name": "initialize",
      "outputs": [],
      "stateMutability": "nonpayable",
      "type": "function"
    },
    {
      "inputs": [
        {
          "internalType": "string",
          "name": "_symbol",
          "type": "string"
        }
      ],
      "name": "isSymbol",
      "outputs": [
        {
          "internalType": "bool",
          "name": "",
          "type": "bool"
        }
      ],
      "stateMutability": "view",
      "type": "function"
    },
    {
      "inputs": [
        {
          "internalType": "address",
          "name": "addr",
          "type": "address"
        }
      ],
      "name": "isTalentToken",
      "outputs": [
        {
          "internalType": "bool",
          "name": "",
          "type": "bool"
        }
      ],
      "stateMutability": "view",
      "type": "function"
    },
    {
      "inputs": [
        {
          "internalType": "address",
          "name": "_implementationBeacon",
          "type": "address"
        }
      ],
      "name": "migrateImplementationBeacon",
      "outputs": [],
      "stateMutability": "nonpayable",
      "type": "function"
    },
    {
      "inputs": [
        {
          "internalType": "address",
          "name": "_token",
          "type": "address"
        },
        {
          "internalType": "address",
          "name": "_talent",
          "type": "address"
        },
        {
          "internalType": "string",
          "name": "_symbol",
          "type": "string"
        }
      ],
      "name": "migrateMappings",
      "outputs": [],
      "stateMutability": "nonpayable",
      "type": "function"
    },
    {
      "inputs": [],
      "name": "minter",
      "outputs": [
        {
          "internalType": "address",
          "name": "",
          "type": "address"
        }
      ],
      "stateMutability": "view",
      "type": "function"
    },
    {
      "inputs": [
        {
          "internalType": "bytes32",
          "name": "role",
          "type": "bytes32"
        },
        {
          "internalType": "address",
          "name": "account",
          "type": "address"
        }
      ],
      "name": "renounceRole",
      "outputs": [],
      "stateMutability": "nonpayable",
      "type": "function"
    },
    {
      "inputs": [
        {
          "internalType": "bytes32",
          "name": "role",
          "type": "bytes32"
        },
        {
          "internalType": "address",
          "name": "account",
          "type": "address"
        }
      ],
      "name": "revokeRole",
      "outputs": [],
      "stateMutability": "nonpayable",
      "type": "function"
    },
    {
      "inputs": [
        {
          "internalType": "address",
          "name": "_whitelister",
          "type": "address"
        }
      ],
      "name": "revokeWhitelister",
      "outputs": [],
      "stateMutability": "nonpayable",
      "type": "function"
    },
    {
      "inputs": [
        {
          "internalType": "address",
          "name": "_minter",
          "type": "address"
        }
      ],
      "name": "setMinter",
      "outputs": [],
      "stateMutability": "nonpayable",
      "type": "function"
    },
    {
      "inputs": [
        {
          "internalType": "address",
          "name": "_oldTalent",
          "type": "address"
        },
        {
          "internalType": "address",
          "name": "_newTalent",
          "type": "address"
        }
      ],
      "name": "setNewMappingValues",
      "outputs": [],
      "stateMutability": "nonpayable",
      "type": "function"
    },
    {
      "inputs": [
        {
          "internalType": "address",
          "name": "_whitelister",
          "type": "address"
        }
      ],
      "name": "setWhitelister",
      "outputs": [],
      "stateMutability": "nonpayable",
      "type": "function"
    },
    {
      "inputs": [
        {
          "internalType": "bytes4",
          "name": "interfaceId",
          "type": "bytes4"
        }
      ],
      "name": "supportsInterface",
      "outputs": [
        {
          "internalType": "bool",
          "name": "",
          "type": "bool"
        }
      ],
      "stateMutability": "view",
      "type": "function"
    },
    {
      "inputs": [
        {
          "internalType": "string",
          "name": "",
          "type": "string"
        }
      ],
      "name": "symbolsToTokens",
      "outputs": [
        {
          "internalType": "address",
          "name": "",
          "type": "address"
        }
      ],
      "stateMutability": "view",
      "type": "function"
    },
    {
      "inputs": [
        {
          "internalType": "address",
          "name": "",
          "type": "address"
        }
      ],
      "name": "talentsToTokens",
      "outputs": [
        {
          "internalType": "address",
          "name": "",
          "type": "address"
        }
      ],
      "stateMutability": "view",
      "type": "function"
    },
    {
      "inputs": [
        {
          "internalType": "address",
          "name": "",
          "type": "address"
        }
      ],
      "name": "tokensToTalents",
      "outputs": [
        {
          "internalType": "address",
          "name": "",
          "type": "address"
        }
      ],
      "stateMutability": "view",
      "type": "function"
    },
    {
      "inputs": [],
      "name": "version",
      "outputs": [
        {
          "internalType": "uint256",
          "name": "",
          "type": "uint256"
        }
      ],
      "stateMutability": "pure",
      "type": "function"
    },
    {
      "inputs": [
        {
          "internalType": "address",
          "name": "",
          "type": "address"
        }
      ],
      "name": "whitelist",
      "outputs": [
        {
          "internalType": "bool",
          "name": "",
          "type": "bool"
        }
      ],
      "stateMutability": "view",
      "type": "function"
    },
    {
      "inputs": [
        {
          "internalType": "address",
          "name": "_address",
          "type": "address"
        }
      ],
      "name": "whitelistAddress",
      "outputs": [],
      "stateMutability": "nonpayable",
      "type": "function"
    }
  ],
  "bytecode": "0x608060405234801561001057600080fd5b50615e97806100206000396000f3fe60806040523480156200001157600080fd5b5060043610620002195760003560e01c806376aaf8ea1162000125578063a217fddf11620000af578063ef31f424116200007a578063ef31f424146200055f578063f7bad69f146200058b578063f98f5b9214620005bc578063fca3b5aa14620005d357600080fd5b8063a217fddf1462000511578063ca15c873146200051a578063d547741f1462000531578063d92cf0ef146200054857600080fd5b80639010d07c11620000f05780639010d07c146200047057806391d14854146200048757806392afc33a14620004c35780639b19251a14620004eb57600080fd5b806376aaf8ea146200040c5780637ffed92614620004235780638129fc1c146200044f5780638611fc5c146200045957600080fd5b80632f2ff15d11620001a757806354fd4d50116200017257806354fd4d5014620003b1578063570618e114620003b957806357bc3cd914620003e15780635810e96d14620003f557600080fd5b80632f2ff15d146200035b5780632ff2e9dc146200037257806336568abe146200038357806341566585146200039a57600080fd5b80631b0f287411620001e85780631b0f287414620002c1578063242fa5db14620002d8578063248a9ca314620002ef5780632dbc679c146200032457600080fd5b80630101d4db146200021e57806301ffc9a71462000237578063075461721462000263578063099aba561462000290575b600080fd5b620002356200022f366004620018a9565b620005ea565b005b6200024e62000248366004620018c9565b62000627565b60405190151581526020015b60405180910390f35b60cc5462000277906001600160a01b031681565b6040516001600160a01b0390911681526020016200025a565b6200024e620002a1366004620018a9565b6001600160a01b03908116600090815260ca602052604090205416151590565b6200024e620002d2366004620019a0565b6200063a565b62000277620002e9366004620019e1565b62000679565b620003156200030036600462001a60565b60009081526065602052604090206001015490565b6040519081526020016200025a565b6200027762000335366004620019a0565b805160208183018101805160cb825292820191909301209152546001600160a01b031681565b620002356200036c36600462001a7a565b62000a1e565b62000315686c6b935b8bbd40000081565b620002356200039436600462001a7a565b62000a4c565b62000235620003ab366004620018a9565b62000ad8565b600362000315565b620003157fd946416bae22467c1a019c810cd0950013103e78707bc717059dcad31e77173281565b60cd5462000277906001600160a01b031681565b620002356200040636600462001aad565b62000b29565b620002356200041d366004620018a9565b62000b65565b6200027762000434366004620018a9565b60c9602052600090815260409020546001600160a01b031681565b6200023562000b95565b620002356200046a36600462001aad565b62000de1565b620002776200048136600462001ae0565b62000f7c565b6200024e6200049836600462001a7a565b60009182526065602090815260408084206001600160a01b0393909316845291905290205460ff1690565b620003157ff0887ba65ee2024ea881d91b74c2450ef19e1557f03bed3ea9f16b037cbe2dc981565b6200024e620004fc366004620018a9565b60ce6020526000908152604090205460ff1681565b62000315600081565b620003156200052b36600462001a60565b62000f9d565b620002356200054236600462001a7a565b62000fb6565b620002356200055936600462001b03565b62000fdf565b6200027762000570366004620018a9565b60ca602052600090815260409020546001600160a01b031681565b6200024e6200059c366004620018a9565b6001600160a01b03908116600090815260c9602052604090205416151590565b62000235620005cd366004620018a9565b6200107c565b62000235620005e4366004620018a9565b620010b5565b6000620005f78162001164565b620006237fd946416bae22467c1a019c810cd0950013103e78707bc717059dcad31e7717328362001170565b5050565b6000620006348262001196565b92915050565b6000806001600160a01b031660cb8360405162000658919062001b89565b908152604051908190036020019020546001600160a01b0316141592915050565b6001600160a01b038316600090815260ce602052604081205460ff16620006e75760405162461bcd60e51b815260206004820152601f60248201527f61646472657373206e6565647320746f2062652077686974656c69737465640060448201526064015b60405180910390fd5b60cc546001600160a01b0316331480620007095750336001600160a01b038516145b620007575760405162461bcd60e51b815260206004820152601e60248201527f74616c656e74206d757374206265206d696e746572206f72206f776e657200006044820152606401620006de565b6001600160a01b03848116600090815260c960205260409020541615620007c15760405162461bcd60e51b815260206004820152601f60248201527f74616c656e7420616c7265616479206861732074616c656e7420746f6b656e006044820152606401620006de565b620007cc826200063a565b156200081b5760405162461bcd60e51b815260206004820152601560248201527f73796d626f6c20616c72656164792065786973747300000000000000000000006044820152606401620006de565b60cc546001600160a01b0316620008755760405162461bcd60e51b815260206004820152601260248201527f6d696e746572206e6f74207965742073657400000000000000000000000000006044820152606401620006de565b6001600160a01b03808516600090815260ce60205260408120805460ff1916905560cd5460cc549192908116917f6ef7626c000000000000000000000000000000000000000000000000000000009187918791686c6b935b8bbd400000918b9116620008e2888062000f7c565b604051602401620008f99695949392919062001bd5565b60408051601f198184030181529181526020820180517bffffffffffffffffffffffffffffffffffffffffffffffffffffffff166001600160e01b03199094169390931790925290516200094d9062001869565b6200095a92919062001c2f565b604051809103906000f08015801562000977573d6000803e3d6000fd5b50905060008190508060cb8560405162000992919062001b89565b908152604080516020928190038301812080546001600160a01b03199081166001600160a01b0396871617909155858516600081815260ca865284812080548416978e16978817905586815260c99095529284208054909116831790559092917fc3cff6724200e4907489fef1d1ede51dd32ca7ac86d62c448475be4c3b1d5b5091a395945050505050565b60008281526065602052604090206001015462000a3b8162001164565b62000a478383620011d7565b505050565b6001600160a01b038116331462000acc5760405162461bcd60e51b815260206004820152602f60248201527f416363657373436f6e74726f6c3a2063616e206f6e6c792072656e6f756e636560448201527f20726f6c657320666f722073656c6600000000000000000000000000000000006064820152608401620006de565b62000623828262001170565b7fd946416bae22467c1a019c810cd0950013103e78707bc717059dcad31e77173262000b048162001164565b506001600160a01b0316600090815260ce60205260409020805460ff19166001179055565b600062000b368162001164565b506001600160a01b03918216600090815260ca6020526040902080546001600160a01b03191691909216179055565b600062000b728162001164565b5060cd80546001600160a01b0319166001600160a01b0392909216919091179055565b600054610100900460ff161580801562000bb65750600054600160ff909116105b8062000bd25750303b15801562000bd2575060005460ff166001145b62000c465760405162461bcd60e51b815260206004820152602e60248201527f496e697469616c697a61626c653a20636f6e747261637420697320616c72656160448201527f647920696e697469616c697a65640000000000000000000000000000000000006064820152608401620006de565b6000805460ff19166001179055801562000c6a576000805461ff0019166101001790555b62000c74620011fd565b62000c7e620011fd565b62000c88620011fd565b62000c95600033620011d7565b600060405162000ca59062001877565b604051809103906000f08015801562000cc2573d6000803e3d6000fd5b5060405162000cd19062001885565b6001600160a01b039091168152602001604051809103906000f08015801562000cfe573d6000803e3d6000fd5b506040517ff2fde38b0000000000000000000000000000000000000000000000000000000081523360048201529091506001600160a01b0382169063f2fde38b90602401600060405180830381600087803b15801562000d5d57600080fd5b505af115801562000d72573d6000803e3d6000fd5b505060cd80546001600160a01b0319166001600160a01b0394909416939093179092555050801562000dde576000805461ff0019169055604051600181527f7f26b83ff96e1f2b6a682f133852f6798a09c465da95921460cefb38474024989060200160405180910390a15b50565b6001600160a01b03828116600090815260c960209081526040808320543384527fffdfc1249c027f9191656349feb0761381bb32c9f557e01f419fd08754bf5a1b9092529091205491169060ff1662000f2757336001600160a01b0382161462000e8e5760405162461bcd60e51b815260206004820152601a60248201527f6e6f742063616c6c65642062792074616c656e7420746f6b656e0000000000006044820152606401620006de565b326001600160a01b0383161462000ea457600080fd5b806001600160a01b031663fcd38b026040518163ffffffff1660e01b8152600401602060405180830381865afa15801562000ee3573d6000803e3d6000fd5b505050506040513d601f19601f8201168201806040525081019062000f09919062001c53565b6001600160a01b0316326001600160a01b03161462000f2757600080fd5b6001600160a01b03908116600081815260ca6020908152604080832080546001600160a01b031990811697871697881790915596909416825260c9905282812080548616905592835291208054909216179055565b600082815260976020526040812062000f9690836200127e565b9392505050565b600081815260976020526040812062000634906200128c565b60008281526065602052604090206001015462000fd38162001164565b62000a47838362001170565b600062000fec8162001164565b6001600160a01b03808416600081815260c9602090815260408083208054958a166001600160a01b03199687168117909155835260ca90915290819020805490931690911790915551849060cb906200104790859062001b89565b90815260405190819003602001902080546001600160a01b03929092166001600160a01b031990921691909117905550505050565b6000620010898162001164565b620006237fd946416bae22467c1a019c810cd0950013103e78707bc717059dcad31e77173283620011d7565b6000620010c28162001164565b60cc546001600160a01b0316156200111d5760405162461bcd60e51b815260206004820152601260248201527f6d696e74657220616c72656164792073657400000000000000000000000000006044820152606401620006de565b60cc80546001600160a01b0319166001600160a01b038416179055620006237ff0887ba65ee2024ea881d91b74c2450ef19e1557f03bed3ea9f16b037cbe2dc983620011d7565b62000dde813362001297565b6200117c828262001315565b600082815260976020526040902062000a47908262001399565b60006001600160e01b031982167f5a05180f0000000000000000000000000000000000000000000000000000000014806200063457506200063482620013b0565b620011e3828262001419565b600082815260976020526040902062000a479082620014bd565b600054610100900460ff166200127c5760405162461bcd60e51b815260206004820152602b60248201527f496e697469616c697a61626c653a20636f6e7472616374206973206e6f74206960448201527f6e697469616c697a696e670000000000000000000000000000000000000000006064820152608401620006de565b565b600062000f968383620014d4565b600062000634825490565b60008281526065602090815260408083206001600160a01b038516845290915290205460ff166200062357620012cd8162001501565b620012da83602062001514565b604051602001620012ed92919062001c73565b60408051601f198184030181529082905262461bcd60e51b8252620006de9160040162001cf8565b60008281526065602090815260408083206001600160a01b038516845290915290205460ff1615620006235760008281526065602090815260408083206001600160a01b0385168085529252808320805460ff1916905551339285917ff6391f5c32d9c69d2a47ea670b442974b53935d1edc7fd64eb21e047a839171b9190a45050565b600062000f96836001600160a01b03841662001713565b60006001600160e01b031982167f7965db0b0000000000000000000000000000000000000000000000000000000014806200063457507f01ffc9a7000000000000000000000000000000000000000000000000000000006001600160e01b031983161462000634565b60008281526065602090815260408083206001600160a01b038516845290915290205460ff16620006235760008281526065602090815260408083206001600160a01b03851684529091529020805460ff19166001179055620014793390565b6001600160a01b0316816001600160a01b0316837f2f8788117e7eff1d82e926ec794901d17c78024a50270940304540a733656f0d60405160405180910390a45050565b600062000f96836001600160a01b03841662001817565b6000826000018281548110620014ee57620014ee62001d0d565b9060005260206000200154905092915050565b6060620006346001600160a01b03831660145b606060006200152583600262001d39565b6200153290600262001d53565b67ffffffffffffffff8111156200154d576200154d620018f5565b6040519080825280601f01601f19166020018201604052801562001578576020820181803683370190505b5090507f300000000000000000000000000000000000000000000000000000000000000081600081518110620015b257620015b262001d0d565b60200101906001600160f81b031916908160001a9053507f78000000000000000000000000000000000000000000000000000000000000008160018151811062001600576200160062001d0d565b60200101906001600160f81b031916908160001a90535060006200162684600262001d39565b6200163390600162001d53565b90505b6001811115620016c2577f303132333435363738396162636465660000000000000000000000000000000085600f166010811062001678576200167862001d0d565b1a60f81b82828151811062001691576200169162001d0d565b60200101906001600160f81b031916908160001a90535060049490941c93620016ba8162001d69565b905062001636565b50831562000f965760405162461bcd60e51b815260206004820181905260248201527f537472696e67733a20686578206c656e67746820696e73756666696369656e746044820152606401620006de565b600081815260018301602052604081205480156200180c5760006200173a60018362001d83565b8554909150600090620017509060019062001d83565b9050818114620017bc57600086600001828154811062001774576200177462001d0d565b90600052602060002001549050808760000184815481106200179a576200179a62001d0d565b6000918252602080832090910192909255918252600188019052604090208390555b8554869080620017d057620017d062001d99565b60019003818190600052602060002001600090559055856001016000868152602001908152602001600020600090556001935050505062000634565b600091505062000634565b6000818152600183016020526040812054620018605750815460018181018455600084815260208082209093018490558454848252828601909352604090209190915562000634565b50600062000634565b6109008062001db083390190565b61328380620026b083390190565b61052f806200593383390190565b6001600160a01b038116811462000dde57600080fd5b600060208284031215620018bc57600080fd5b813562000f968162001893565b600060208284031215620018dc57600080fd5b81356001600160e01b03198116811462000f9657600080fd5b634e487b7160e01b600052604160045260246000fd5b600082601f8301126200191d57600080fd5b813567ffffffffffffffff808211156200193b576200193b620018f5565b604051601f8301601f19908116603f01168101908282118183101715620019665762001966620018f5565b816040528381528660208588010111156200198057600080fd5b836020870160208301376000602085830101528094505050505092915050565b600060208284031215620019b357600080fd5b813567ffffffffffffffff811115620019cb57600080fd5b620019d9848285016200190b565b949350505050565b600080600060608486031215620019f757600080fd5b833562001a048162001893565b9250602084013567ffffffffffffffff8082111562001a2257600080fd5b62001a30878388016200190b565b9350604086013591508082111562001a4757600080fd5b5062001a56868287016200190b565b9150509250925092565b60006020828403121562001a7357600080fd5b5035919050565b6000806040838503121562001a8e57600080fd5b82359150602083013562001aa28162001893565b809150509250929050565b6000806040838503121562001ac157600080fd5b823562001ace8162001893565b9150602083013562001aa28162001893565b6000806040838503121562001af457600080fd5b50508035926020909101359150565b60008060006060848603121562001b1957600080fd5b833562001b268162001893565b9250602084013562001b388162001893565b9150604084013567ffffffffffffffff81111562001b5557600080fd5b62001a56868287016200190b565b60005b8381101562001b8057818101518382015260200162001b66565b50506000910152565b6000825162001b9d81846020870162001b63565b9190910192915050565b6000815180845262001bc181602086016020860162001b63565b601f01601f19169290920160200192915050565b60c08152600062001bea60c083018962001ba7565b828103602084015262001bfe818962001ba7565b604084019790975250506001600160a01b039384166060820152918316608083015290911660a09091015292915050565b6001600160a01b0383168152604060208201526000620019d9604083018462001ba7565b60006020828403121562001c6657600080fd5b815162000f968162001893565b7f416363657373436f6e74726f6c3a206163636f756e742000000000000000000081526000835162001cad81601785016020880162001b63565b7f206973206d697373696e6720726f6c6520000000000000000000000000000000601791840191820152835162001cec81602884016020880162001b63565b01602801949350505050565b60208152600062000f96602083018462001ba7565b634e487b7160e01b600052603260045260246000fd5b634e487b7160e01b600052601160045260246000fd5b808202811582820484141762000634576200063462001d23565b8082018082111562000634576200063462001d23565b60008162001d7b5762001d7b62001d23565b506000190190565b8181038181111562000634576200063462001d23565b634e487b7160e01b600052603160045260246000fdfe60806040526040516109003803806109008339810160408190526100229161045b565b61002e82826000610035565b5050610585565b61003e83610100565b6040516001600160a01b038416907f1cf3b03a6cf19fa2baba4df148e9dcabedea7f8a5c07840e207e5c089be95d3e90600090a260008251118061007f5750805b156100fb576100f9836001600160a01b0316635c60da1b6040518163ffffffff1660e01b8152600401602060405180830381865afa1580156100c5573d6000803e3d6000fd5b505050506040513d601f19601f820116820180604052508101906100e9919061051b565b836102a360201b6100291760201c565b505b505050565b610113816102cf60201b6100551760201c565b6101725760405162461bcd60e51b815260206004820152602560248201527f455243313936373a206e657720626561636f6e206973206e6f74206120636f6e6044820152641d1c9858dd60da1b60648201526084015b60405180910390fd5b6101e6816001600160a01b0316635c60da1b6040518163ffffffff1660e01b8152600401602060405180830381865afa1580156101b3573d6000803e3d6000fd5b505050506040513d601f19601f820116820180604052508101906101d7919061051b565b6102cf60201b6100551760201c565b61024b5760405162461bcd60e51b815260206004820152603060248201527f455243313936373a20626561636f6e20696d706c656d656e746174696f6e206960448201526f1cc81b9bdd08184818dbdb9d1c9858dd60821b6064820152608401610169565b806102827fa3f0ad74e5423aebfd80d3ef4346578335a9a72aeaee59ff6cb3582b35133d5060001b6102de60201b6100641760201c565b80546001600160a01b0319166001600160a01b039290921691909117905550565b60606102c883836040518060600160405280602781526020016108d9602791396102e1565b9392505050565b6001600160a01b03163b151590565b90565b6060600080856001600160a01b0316856040516102fe9190610536565b600060405180830381855af49150503d8060008114610339576040519150601f19603f3d011682016040523d82523d6000602084013e61033e565b606091505b5090925090506103508683838761035a565b9695505050505050565b606083156103c95782516000036103c2576001600160a01b0385163b6103c25760405162461bcd60e51b815260206004820152601d60248201527f416464726573733a2063616c6c20746f206e6f6e2d636f6e74726163740000006044820152606401610169565b50816103d3565b6103d383836103db565b949350505050565b8151156103eb5781518083602001fd5b8060405162461bcd60e51b81526004016101699190610552565b80516001600160a01b038116811461041c57600080fd5b919050565b634e487b7160e01b600052604160045260246000fd5b60005b8381101561045257818101518382015260200161043a565b50506000910152565b6000806040838503121561046e57600080fd5b61047783610405565b60208401519092506001600160401b038082111561049457600080fd5b818501915085601f8301126104a857600080fd5b8151818111156104ba576104ba610421565b604051601f8201601f19908116603f011681019083821181831017156104e2576104e2610421565b816040528281528860208487010111156104fb57600080fd5b61050c836020830160208801610437565b80955050505050509250929050565b60006020828403121561052d57600080fd5b6102c882610405565b60008251610548818460208701610437565b9190910192915050565b6020815260008251806020840152610571816040850160208701610437565b601f01601f19169190910160400192915050565b610345806105946000396000f3fe60806040523661001357610011610017565b005b6100115b610027610022610067565b610100565b565b606061004e83836040518060600160405280602781526020016102e960279139610124565b9392505050565b6001600160a01b03163b151590565b90565b600061009a7fa3f0ad74e5423aebfd80d3ef4346578335a9a72aeaee59ff6cb3582b35133d50546001600160a01b031690565b6001600160a01b0316635c60da1b6040518163ffffffff1660e01b8152600401602060405180830381865afa1580156100d7573d6000803e3d6000fd5b505050506040513d601f19601f820116820180604052508101906100fb919061024c565b905090565b3660008037600080366000845af43d6000803e80801561011f573d6000f35b3d6000fd5b6060600080856001600160a01b0316856040516101419190610299565b600060405180830381855af49150503d806000811461017c576040519150601f19603f3d011682016040523d82523d6000602084013e610181565b606091505b50915091506101928683838761019c565b9695505050505050565b60608315610210578251600003610209576001600160a01b0385163b6102095760405162461bcd60e51b815260206004820152601d60248201527f416464726573733a2063616c6c20746f206e6f6e2d636f6e747261637400000060448201526064015b60405180910390fd5b508161021a565b61021a8383610222565b949350505050565b8151156102325781518083602001fd5b8060405162461bcd60e51b815260040161020091906102b5565b60006020828403121561025e57600080fd5b81516001600160a01b038116811461004e57600080fd5b60005b83811015610290578181015183820152602001610278565b50506000910152565b600082516102ab818460208701610275565b9190910192915050565b60208152600082518060208401526102d4816040850160208701610275565b601f01601f1916919091016040019291505056fe416464726573733a206c6f772d6c6576656c2064656c65676174652063616c6c206661696c6564a264697066735822122011847c04569fc65e7c36efe303b56d827ce517abd60d29b3d333b0395239483964736f6c63430008110033416464726573733a206c6f772d6c6576656c2064656c65676174652063616c6c206661696c656460a06040523060805234801561001457600080fd5b5060805161323761004c60003960008181610b3d01528181610bc201528181610e0f01528181610e940152610f7a01526132376000f3fe6080604052600436106102e75760003560e01c80635bb4780811610184578063aafa9371116100d6578063d547741f1161008a578063e05162c911610064578063e05162c914610882578063f6e04edc146108a2578063fcd38b02146108b757600080fd5b8063d547741f146107fc578063d8fbe9941461081c578063dd62ed3e1461083c57600080fd5b8063c45a0155116100bb578063c45a015514610784578063c4daa593146107bc578063cae9ca51146107dc57600080fd5b8063aafa93711461074e578063c1d34b891461076457600080fd5b806392afc33a11610138578063a217fddf11610112578063a217fddf146106f9578063a457c2d71461070e578063a9059cbb1461072e57600080fd5b806392afc33a1461069057806395d89b41146106c45780639dc29fac146106d957600080fd5b806370a082311161016957806370a08231146105e05780637a12083a1461061657806391d148541461064a57600080fd5b80635bb47808146105a05780636ef7626c146105c057600080fd5b806332cb6b0c1161023d5780634000aea0116101f157806352d1902d116101cb57806352d1902d1461055757806354fd4d501461056c57806357b81b871461058057600080fd5b80634000aea01461050457806340c10f19146105245780634f1ef2861461054457600080fd5b80633659cfe6116102225780633659cfe6146104ae57806339509351146104ce5780633e0075a1146104ee57600080fd5b806332cb6b0c1461047057806336568abe1461048e57600080fd5b806323b872dd1161029f5780633092afd5116102795780633092afd514610414578063313ce567146104345780633177029f1461045057600080fd5b806323b872dd146103a2578063248a9ca3146103c25780632f2ff15d146103f257600080fd5b8063095ea7b3116102d0578063095ea7b3146103435780631296ee621461036357806318160ddd1461038357600080fd5b806301ffc9a7146102ec57806306fdde0314610321575b600080fd5b3480156102f857600080fd5b5061030c610307366004612b02565b6108d7565b60405190151581526020015b60405180910390f35b34801561032d57600080fd5b50610336610936565b6040516103189190612b6f565b34801561034f57600080fd5b5061030c61035e366004612b9e565b6109c8565b34801561036f57600080fd5b5061030c61037e366004612b9e565b6109e0565b34801561038f57600080fd5b506099545b604051908152602001610318565b3480156103ae57600080fd5b5061030c6103bd366004612bc8565b610a03565b3480156103ce57600080fd5b506103946103dd366004612c04565b60009081526065602052604090206001015490565b3480156103fe57600080fd5b5061041261040d366004612c1d565b610a27565b005b34801561042057600080fd5b5061041261042f366004612c49565b610a51565b34801561044057600080fd5b5060405160128152602001610318565b34801561045c57600080fd5b5061030c61046b366004612b9e565b610a8a565b34801561047c57600080fd5b5061039469d3c21bcecceda100000081565b34801561049a57600080fd5b506104126104a9366004612c1d565b610aa6565b3480156104ba57600080fd5b506104126104c9366004612c49565b610b33565b3480156104da57600080fd5b5061030c6104e9366004612b9e565b610cae565b3480156104fa57600080fd5b5061039460fb5481565b34801561051057600080fd5b5061030c61051f366004612d07565b610ced565b34801561053057600080fd5b5061041261053f366004612b9e565b610d60565b610412610552366004612d5e565b610e05565b34801561056357600080fd5b50610394610f6d565b34801561057857600080fd5b506003610394565b34801561058c57600080fd5b5061041261059b366004612c49565b611032565b3480156105ac57600080fd5b506104126105bb366004612c49565b611067565b3480156105cc57600080fd5b506104126105db366004612dac565b611095565b3480156105ec57600080fd5b506103946105fb366004612c49565b6001600160a01b031660009081526097602052604090205490565b34801561062257600080fd5b506103947f8fad061cdace53638a92e8940b81545ab8169bcf17f044b6ab490075da827c9481565b34801561065657600080fd5b5061030c610665366004612c1d565b60009182526065602090815260408084206001600160a01b0393909316845291905290205460ff1690565b34801561069c57600080fd5b506103947ff0887ba65ee2024ea881d91b74c2450ef19e1557f03bed3ea9f16b037cbe2dc981565b3480156106d057600080fd5b506103366111d4565b3480156106e557600080fd5b506104126106f4366004612b9e565b6111e3565b34801561070557600080fd5b50610394600081565b34801561071a57600080fd5b5061030c610729366004612b9e565b611231565b34801561073a57600080fd5b5061030c610749366004612b9e565b6112db565b34801561075a57600080fd5b5061039460fa5481565b34801561077057600080fd5b5061030c61077f366004612e4a565b6112e9565b34801561079057600080fd5b5060fe546107a4906001600160a01b031681565b6040516001600160a01b039091168152602001610318565b3480156107c857600080fd5b5060fc546107a4906001600160a01b031681565b3480156107e857600080fd5b5061030c6107f7366004612d07565b611365565b34801561080857600080fd5b50610412610817366004612c1d565b6113ee565b34801561082857600080fd5b5061030c610837366004612bc8565b611413565b34801561084857600080fd5b50610394610857366004612eb2565b6001600160a01b03918216600090815260986020908152604080832093909416825291909152205490565b34801561088e57600080fd5b5061041261089d366004612c49565b611430565b3480156108ae57600080fd5b506104126114d5565b3480156108c357600080fd5b5060fd546107a4906001600160a01b031681565b60006001600160e01b031982167f36372b0700000000000000000000000000000000000000000000000000000000148061092157506001600160e01b0319821663b0202a1160e01b145b80610930575061093082611694565b92915050565b6060609a805461094590612edc565b80601f016020809104026020016040519081016040528092919081815260200182805461097190612edc565b80156109be5780601f10610993576101008083540402835291602001916109be565b820191906000526020600020905b8154815290600101906020018083116109a157829003601f168201915b5050505050905090565b6000336109d68185856116b9565b5060019392505050565b60006109fc838360405180602001604052806000815250610ced565b9392505050565b600033610a11858285611811565b610a1c8585856118a3565b506001949350505050565b600082815260656020526040902060010154610a4281611a97565b610a4c8383611aa1565b505050565b6000610a5c81611a97565b610a867ff0887ba65ee2024ea881d91b74c2450ef19e1557f03bed3ea9f16b037cbe2dc9836113ee565b5050565b60006109fc838360405180602001604052806000815250611365565b6001600160a01b0381163314610b295760405162461bcd60e51b815260206004820152602f60248201527f416363657373436f6e74726f6c3a2063616e206f6e6c792072656e6f756e636560448201527f20726f6c657320666f722073656c66000000000000000000000000000000000060648201526084015b60405180910390fd5b610a868282611b43565b6001600160a01b037f0000000000000000000000000000000000000000000000000000000000000000163003610bc05760405162461bcd60e51b815260206004820152602c60248201527f46756e6374696f6e206d7573742062652063616c6c6564207468726f7567682060448201526b19195b1959d85d1958d85b1b60a21b6064820152608401610b20565b7f00000000000000000000000000000000000000000000000000000000000000006001600160a01b0316610c1b7f360894a13ba1a3210667c828492db98dca3e2076cc3735a920a3ca505d382bbc546001600160a01b031690565b6001600160a01b031614610c865760405162461bcd60e51b815260206004820152602c60248201527f46756e6374696f6e206d7573742062652063616c6c6564207468726f7567682060448201526b6163746976652070726f787960a01b6064820152608401610b20565b610c8f81611bc6565b60408051600080825260208201909252610cab91839190611bd1565b50565b3360008181526098602090815260408083206001600160a01b03871684529091528120549091906109d69082908690610ce8908790612f2c565b6116b9565b6000610cf984846112db565b50610d0633858585611d71565b6109d65760405162461bcd60e51b815260206004820152602560248201527f455243313336333a2072656365697665722072657475726e65642077726f6e67604482015264206461746160d81b6064820152608401610b20565b7ff0887ba65ee2024ea881d91b74c2450ef19e1557f03bed3ea9f16b037cbe2dc9610d8a81611a97565b8160fa541015610ddc5760405162461bcd60e51b815260206004820152601f60248201527f6e6f7420656e6f756768206d696e74696e6720617661696c6162696c697479006044820152606401610b20565b8160fa54610dea9190612f3f565b60fa819055600003610dfb574260fb555b610a4c8383611f2a565b6001600160a01b037f0000000000000000000000000000000000000000000000000000000000000000163003610e925760405162461bcd60e51b815260206004820152602c60248201527f46756e6374696f6e206d7573742062652063616c6c6564207468726f7567682060448201526b19195b1959d85d1958d85b1b60a21b6064820152608401610b20565b7f00000000000000000000000000000000000000000000000000000000000000006001600160a01b0316610eed7f360894a13ba1a3210667c828492db98dca3e2076cc3735a920a3ca505d382bbc546001600160a01b031690565b6001600160a01b031614610f585760405162461bcd60e51b815260206004820152602c60248201527f46756e6374696f6e206d7573742062652063616c6c6564207468726f7567682060448201526b6163746976652070726f787960a01b6064820152608401610b20565b610f6182611bc6565b610a8682826001611bd1565b6000306001600160a01b037f0000000000000000000000000000000000000000000000000000000000000000161461100d5760405162461bcd60e51b815260206004820152603860248201527f555550535570677261646561626c653a206d757374206e6f742062652063616c60448201527f6c6564207468726f7567682064656c656761746563616c6c00000000000000006064820152608401610b20565b507f360894a13ba1a3210667c828492db98dca3e2076cc3735a920a3ca505d382bbc90565b600061103d81611a97565b610a867ff0887ba65ee2024ea881d91b74c2450ef19e1557f03bed3ea9f16b037cbe2dc983610a27565b600061107281611a97565b5060fe80546001600160a01b0319166001600160a01b0392909216919091179055565b600054610100900460ff16158080156110b55750600054600160ff909116105b806110cf5750303b1580156110cf575060005460ff166001145b6111415760405162461bcd60e51b815260206004820152602e60248201527f496e697469616c697a61626c653a20636f6e747261637420697320616c72656160448201527f647920696e697469616c697a65640000000000000000000000000000000000006064820152608401610b20565b6000805460ff191660011790558015611164576000805461ff0019166101001790555b611172878787878787611feb565b60fe80546001600160a01b0319163317905580156111cb576000805461ff0019169055604051600181527f7f26b83ff96e1f2b6a682f133852f6798a09c465da95921460cefb3847402498906020015b60405180910390a15b50505050505050565b6060609b805461094590612edc565b7ff0887ba65ee2024ea881d91b74c2450ef19e1557f03bed3ea9f16b037cbe2dc961120d81611a97565b60fa5415611227578160fa546112239190612f2c565b60fa555b610a4c83836121b9565b3360008181526098602090815260408083206001600160a01b0387168452909152812054909190838110156112ce5760405162461bcd60e51b815260206004820152602560248201527f45524332303a2064656372656173656420616c6c6f77616e63652062656c6f7760448201527f207a65726f0000000000000000000000000000000000000000000000000000006064820152608401610b20565b610a1c82868684036116b9565b6000336109d68185856118a3565b60006112f6858585610a03565b5061130385858585611d71565b610a1c5760405162461bcd60e51b815260206004820152602560248201527f455243313336333a2072656365697665722072657475726e65642077726f6e67604482015264206461746160d81b6064820152608401610b20565b949350505050565b600061137184846109c8565b5061137d848484612324565b6109d65760405162461bcd60e51b8152602060048201526024808201527f455243313336333a207370656e6465722072657475726e65642077726f6e672060448201527f64617461000000000000000000000000000000000000000000000000000000006064820152608401610b20565b60008281526065602052604090206001015461140981611a97565b610a4c8383611b43565b600061135d848484604051806020016040528060008152506112e9565b7f8fad061cdace53638a92e8940b81545ab8169bcf17f044b6ab490075da827c9461145a81611a97565b6001600160a01b03821633036114b25760405162461bcd60e51b815260206004820152601b60248201527f74616c656e7420697320616c726561647920746865206f776e657200000000006044820152606401610b20565b5060fd80546001600160a01b0319166001600160a01b0392909216919091179055565b60fd546001600160a01b0316331461152f5760405162461bcd60e51b815260206004820152601c60248201527f74616c656e74206973206e6f742070726f706f736564206f776e6572000000006044820152606401610b20565b60fe5460fc5460fd546040517f8611fc5c0000000000000000000000000000000000000000000000000000000081526001600160a01b0392831660048201529082166024820152911690638611fc5c90604401600060405180830381600087803b15801561159c57600080fd5b505af11580156115b0573d6000803e3d6000fd5b505060fd546115eb92507f8fad061cdace53638a92e8940b81545ab8169bcf17f044b6ab490075da827c9491506001600160a01b0316611aa1565b60fc54611622907f8fad061cdace53638a92e8940b81545ab8169bcf17f044b6ab490075da827c94906001600160a01b0316611b43565b60fc5460fd54604080516001600160a01b0393841681529290911660208301527f8be0079c531659141344cd1fd0a4f28419497f9722a3daafe3b4186f6b6457e0910160405180910390a160fd805460fc80546001600160a01b03199081166001600160a01b03841617909155169055565b60006001600160e01b0319821663b0202a1160e01b14806109305750610930826124d3565b6001600160a01b0383166117345760405162461bcd60e51b8152602060048201526024808201527f45524332303a20617070726f76652066726f6d20746865207a65726f2061646460448201527f72657373000000000000000000000000000000000000000000000000000000006064820152608401610b20565b6001600160a01b0382166117b05760405162461bcd60e51b815260206004820152602260248201527f45524332303a20617070726f766520746f20746865207a65726f20616464726560448201527f73730000000000000000000000000000000000000000000000000000000000006064820152608401610b20565b6001600160a01b0383811660008181526098602090815260408083209487168084529482529182902085905590518481527f8c5be1e5ebec7d5bd14f71427d1e84f3dd0314c0f7b2291e5b200ac8c7c3b925910160405180910390a3505050565b6001600160a01b03838116600090815260986020908152604080832093861683529290522054600019811461189d57818110156118905760405162461bcd60e51b815260206004820152601d60248201527f45524332303a20696e73756666696369656e7420616c6c6f77616e63650000006044820152606401610b20565b61189d84848484036116b9565b50505050565b6001600160a01b03831661191f5760405162461bcd60e51b815260206004820152602560248201527f45524332303a207472616e736665722066726f6d20746865207a65726f20616460448201527f64726573730000000000000000000000000000000000000000000000000000006064820152608401610b20565b6001600160a01b03821661199b5760405162461bcd60e51b815260206004820152602360248201527f45524332303a207472616e7366657220746f20746865207a65726f206164647260448201527f65737300000000000000000000000000000000000000000000000000000000006064820152608401610b20565b6001600160a01b03831660009081526097602052604090205481811015611a2a5760405162461bcd60e51b815260206004820152602660248201527f45524332303a207472616e7366657220616d6f756e742065786365656473206260448201527f616c616e636500000000000000000000000000000000000000000000000000006064820152608401610b20565b6001600160a01b0380851660008181526097602052604080822086860390559286168082529083902080548601905591517fddf252ad1be2c89b69c2b068fc378daa952ba7f163c4a11628f55a4df523b3ef90611a8a9086815260200190565b60405180910390a361189d565b610cab813361253a565b60008281526065602090815260408083206001600160a01b038516845290915290205460ff16610a865760008281526065602090815260408083206001600160a01b03851684529091529020805460ff19166001179055611aff3390565b6001600160a01b0316816001600160a01b0316837f2f8788117e7eff1d82e926ec794901d17c78024a50270940304540a733656f0d60405160405180910390a45050565b60008281526065602090815260408083206001600160a01b038516845290915290205460ff1615610a865760008281526065602090815260408083206001600160a01b0385168085529252808320805460ff1916905551339285917ff6391f5c32d9c69d2a47ea670b442974b53935d1edc7fd64eb21e047a839171b9190a45050565b6000610a8681611a97565b7f4910fdfa16fed3260ed0e7147f7cc6da11a60208b5b9406d12a635614ffd91435460ff1615611c0457610a4c836125af565b826001600160a01b03166352d1902d6040518163ffffffff1660e01b8152600401602060405180830381865afa925050508015611c5e575060408051601f3d908101601f19168201909252611c5b91810190612f52565b60015b611cd05760405162461bcd60e51b815260206004820152602e60248201527f45524331393637557067726164653a206e657720696d706c656d656e7461746960448201527f6f6e206973206e6f7420555550530000000000000000000000000000000000006064820152608401610b20565b7f360894a13ba1a3210667c828492db98dca3e2076cc3735a920a3ca505d382bbc8114611d655760405162461bcd60e51b815260206004820152602960248201527f45524331393637557067726164653a20756e737570706f727465642070726f7860448201527f6961626c655555494400000000000000000000000000000000000000000000006064820152608401610b20565b50610a4c83838361266d565b60006001600160a01b0384163b611df05760405162461bcd60e51b815260206004820152602960248201527f455243313336333a207472616e7366657220746f206e6f6e20636f6e7472616360448201527f74206164647265737300000000000000000000000000000000000000000000006064820152608401610b20565b604051632229f29760e21b81526001600160a01b038516906388a7ca5c90611e22903390899088908890600401612f6b565b6020604051808303816000875af1925050508015611e5d575060408051601f3d908101601f19168201909252611e5a91810190612f9d565b60015b611f10573d808015611e8b576040519150601f19603f3d011682016040523d82523d6000602084013e611e90565b606091505b508051600003611f085760405162461bcd60e51b815260206004820152603460248201527f455243313336333a207472616e7366657220746f206e6f6e204552433133363360448201527f526563656976657220696d706c656d656e7465720000000000000000000000006064820152608401610b20565b805181602001fd5b6001600160e01b031916632229f29760e21b14905061135d565b6001600160a01b038216611f805760405162461bcd60e51b815260206004820152601f60248201527f45524332303a206d696e7420746f20746865207a65726f2061646472657373006044820152606401610b20565b8060996000828254611f929190612f2c565b90915550506001600160a01b0382166000818152609760209081526040808320805486019055518481527fddf252ad1be2c89b69c2b068fc378daa952ba7f163c4a11628f55a4df523b3ef910160405180910390a35050565b600054610100900460ff161580801561200b5750600054600160ff909116105b806120255750303b158015612025575060005460ff166001145b6120975760405162461bcd60e51b815260206004820152602e60248201527f496e697469616c697a61626c653a20636f6e747261637420697320616c72656160448201527f647920696e697469616c697a65640000000000000000000000000000000000006064820152608401610b20565b6000805460ff1916600117905580156120ba576000805461ff0019166101001790555b6120c2612692565b6120ca612692565b6120d487876126ff565b6120dc612692565b60fc80546001600160a01b0319166001600160a01b038616179055612102600083611aa1565b61212c7f8fad061cdace53638a92e8940b81545ab8169bcf17f044b6ab490075da827c9485611aa1565b6121567ff0887ba65ee2024ea881d91b74c2450ef19e1557f03bed3ea9f16b037cbe2dc984611aa1565b6121608486611f2a565b6121748569d3c21bcecceda1000000612f3f565b60fa5580156111cb576000805461ff0019169055604051600181527f7f26b83ff96e1f2b6a682f133852f6798a09c465da95921460cefb3847402498906020016111c2565b6001600160a01b0382166122355760405162461bcd60e51b815260206004820152602160248201527f45524332303a206275726e2066726f6d20746865207a65726f2061646472657360448201527f73000000000000000000000000000000000000000000000000000000000000006064820152608401610b20565b6001600160a01b038216600090815260976020526040902054818110156122c45760405162461bcd60e51b815260206004820152602260248201527f45524332303a206275726e20616d6f756e7420657863656564732062616c616e60448201527f63650000000000000000000000000000000000000000000000000000000000006064820152608401610b20565b6001600160a01b03831660008181526097602090815260408083208686039055609980548790039055518581529192917fddf252ad1be2c89b69c2b068fc378daa952ba7f163c4a11628f55a4df523b3ef910160405180910390a3505050565b60006001600160a01b0384163b6123a35760405162461bcd60e51b815260206004820152602760248201527f455243313336333a20617070726f76652061206e6f6e20636f6e74726163742060448201527f61646472657373000000000000000000000000000000000000000000000000006064820152608401610b20565b6040516307b04a2d60e41b81526001600160a01b03851690637b04a2d0906123d390339087908790600401612fba565b6020604051808303816000875af192505050801561240e575060408051601f3d908101601f1916820190925261240b91810190612f9d565b60015b6124b9573d80801561243c576040519150601f19603f3d011682016040523d82523d6000602084013e612441565b606091505b508051600003611f085760405162461bcd60e51b815260206004820152603160248201527f455243313336333a20617070726f76652061206e6f6e2045524331333633537060448201527f656e64657220696d706c656d656e7465720000000000000000000000000000006064820152608401610b20565b6001600160e01b0319166307b04a2d60e41b1490506109fc565b60006001600160e01b031982167f7965db0b00000000000000000000000000000000000000000000000000000000148061093057507f01ffc9a7000000000000000000000000000000000000000000000000000000006001600160e01b0319831614610930565b60008281526065602090815260408083206001600160a01b038516845290915290205460ff16610a865761256d81612783565b612578836020612795565b604051602001612589929190612feb565b60408051601f198184030181529082905262461bcd60e51b8252610b2091600401612b6f565b6001600160a01b0381163b61262c5760405162461bcd60e51b815260206004820152602d60248201527f455243313936373a206e657720696d706c656d656e746174696f6e206973206e60448201527f6f74206120636f6e7472616374000000000000000000000000000000000000006064820152608401610b20565b7f360894a13ba1a3210667c828492db98dca3e2076cc3735a920a3ca505d382bbc80546001600160a01b0319166001600160a01b0392909216919091179055565b61267683612976565b6000825111806126835750805b15610a4c5761189d83836129b6565b600054610100900460ff166126fd5760405162461bcd60e51b815260206004820152602b60248201527f496e697469616c697a61626c653a20636f6e7472616374206973206e6f74206960448201526a6e697469616c697a696e6760a81b6064820152608401610b20565b565b600054610100900460ff1661276a5760405162461bcd60e51b815260206004820152602b60248201527f496e697469616c697a61626c653a20636f6e7472616374206973206e6f74206960448201526a6e697469616c697a696e6760a81b6064820152608401610b20565b609a61277683826130ba565b50609b610a4c82826130ba565b60606109306001600160a01b03831660145b606060006127a483600261317a565b6127af906002612f2c565b67ffffffffffffffff8111156127c7576127c7612c64565b6040519080825280601f01601f1916602001820160405280156127f1576020820181803683370190505b5090507f30000000000000000000000000000000000000000000000000000000000000008160008151811061282857612828613191565b60200101906001600160f81b031916908160001a9053507f78000000000000000000000000000000000000000000000000000000000000008160018151811061287357612873613191565b60200101906001600160f81b031916908160001a905350600061289784600261317a565b6128a2906001612f2c565b90505b6001811115612927577f303132333435363738396162636465660000000000000000000000000000000085600f16601081106128e3576128e3613191565b1a60f81b8282815181106128f9576128f9613191565b60200101906001600160f81b031916908160001a90535060049490941c93612920816131a7565b90506128a5565b5083156109fc5760405162461bcd60e51b815260206004820181905260248201527f537472696e67733a20686578206c656e67746820696e73756666696369656e746044820152606401610b20565b61297f816125af565b6040516001600160a01b038216907fbc7cd75a20ee27fd9adebab32041f755214dbc6bffa90cc0225b39da2e5c2d3b90600090a250565b60606109fc83836040518060600160405280602781526020016131db602791396060600080856001600160a01b0316856040516129f391906131be565b600060405180830381855af49150503d8060008114612a2e576040519150601f19603f3d011682016040523d82523d6000602084013e612a33565b606091505b5091509150612a4486838387612a4e565b9695505050505050565b60608315612abd578251600003612ab6576001600160a01b0385163b612ab65760405162461bcd60e51b815260206004820152601d60248201527f416464726573733a2063616c6c20746f206e6f6e2d636f6e74726163740000006044820152606401610b20565b508161135d565b61135d8383815115612ad25781518083602001fd5b8060405162461bcd60e51b8152600401610b209190612b6f565b6001600160e01b031981168114610cab57600080fd5b600060208284031215612b1457600080fd5b81356109fc81612aec565b60005b83811015612b3a578181015183820152602001612b22565b50506000910152565b60008151808452612b5b816020860160208601612b1f565b601f01601f19169290920160200192915050565b6020815260006109fc6020830184612b43565b80356001600160a01b0381168114612b9957600080fd5b919050565b60008060408385031215612bb157600080fd5b612bba83612b82565b946020939093013593505050565b600080600060608486031215612bdd57600080fd5b612be684612b82565b9250612bf460208501612b82565b9150604084013590509250925092565b600060208284031215612c1657600080fd5b5035919050565b60008060408385031215612c3057600080fd5b82359150612c4060208401612b82565b90509250929050565b600060208284031215612c5b57600080fd5b6109fc82612b82565b634e487b7160e01b600052604160045260246000fd5b600082601f830112612c8b57600080fd5b813567ffffffffffffffff80821115612ca657612ca6612c64565b604051601f8301601f19908116603f01168101908282118183101715612cce57612cce612c64565b81604052838152866020858801011115612ce757600080fd5b836020870160208301376000602085830101528094505050505092915050565b600080600060608486031215612d1c57600080fd5b612d2584612b82565b925060208401359150604084013567ffffffffffffffff811115612d4857600080fd5b612d5486828701612c7a565b9150509250925092565b60008060408385031215612d7157600080fd5b612d7a83612b82565b9150602083013567ffffffffffffffff811115612d9657600080fd5b612da285828601612c7a565b9150509250929050565b60008060008060008060c08789031215612dc557600080fd5b863567ffffffffffffffff80821115612ddd57600080fd5b612de98a838b01612c7a565b97506020890135915080821115612dff57600080fd5b50612e0c89828a01612c7a565b95505060408701359350612e2260608801612b82565b9250612e3060808801612b82565b9150612e3e60a08801612b82565b90509295509295509295565b60008060008060808587031215612e6057600080fd5b612e6985612b82565b9350612e7760208601612b82565b925060408501359150606085013567ffffffffffffffff811115612e9a57600080fd5b612ea687828801612c7a565b91505092959194509250565b60008060408385031215612ec557600080fd5b612ece83612b82565b9150612c4060208401612b82565b600181811c90821680612ef057607f821691505b602082108103612f1057634e487b7160e01b600052602260045260246000fd5b50919050565b634e487b7160e01b600052601160045260246000fd5b8082018082111561093057610930612f16565b8181038181111561093057610930612f16565b600060208284031215612f6457600080fd5b5051919050565b60006001600160a01b03808716835280861660208401525083604083015260806060830152612a446080830184612b43565b600060208284031215612faf57600080fd5b81516109fc81612aec565b6001600160a01b0384168152826020820152606060408201526000612fe26060830184612b43565b95945050505050565b7f416363657373436f6e74726f6c3a206163636f756e7420000000000000000000815260008351613023816017850160208801612b1f565b7f206973206d697373696e6720726f6c65200000000000000000000000000000006017918401918201528351613060816028840160208801612b1f565b01602801949350505050565b601f821115610a4c57600081815260208120601f850160051c810160208610156130935750805b601f850160051c820191505b818110156130b25782815560010161309f565b505050505050565b815167ffffffffffffffff8111156130d4576130d4612c64565b6130e8816130e28454612edc565b8461306c565b602080601f83116001811461311d57600084156131055750858301515b600019600386901b1c1916600185901b1785556130b2565b600085815260208120601f198616915b8281101561314c5788860151825594840194600190910190840161312d565b508582101561316a5787850151600019600388901b60f8161c191681555b5050505050600190811b01905550565b808202811582820484141761093057610930612f16565b634e487b7160e01b600052603260045260246000fd5b6000816131b6576131b6612f16565b506000190190565b600082516131d0818460208701612b1f565b919091019291505056fe416464726573733a206c6f772d6c6576656c2064656c65676174652063616c6c206661696c6564a26469706673582212207ceeaf2fa4d4e6c536335cad51387ea972d4061784df7c4f0467d0e13f7e79bf64736f6c63430008110033608060405234801561001057600080fd5b5060405161052f38038061052f83398101604081905261002f91610151565b61003833610047565b61004181610097565b50610181565b600080546001600160a01b038381166001600160a01b0319831681178455604051919092169283917f8be0079c531659141344cd1fd0a4f28419497f9722a3daafe3b4186f6b6457e09190a35050565b6100aa8161014260201b6101c71760201c565b6101205760405162461bcd60e51b815260206004820152603360248201527f5570677261646561626c65426561636f6e3a20696d706c656d656e746174696f60448201527f6e206973206e6f74206120636f6e747261637400000000000000000000000000606482015260840160405180910390fd5b600180546001600160a01b0319166001600160a01b0392909216919091179055565b6001600160a01b03163b151590565b60006020828403121561016357600080fd5b81516001600160a01b038116811461017a57600080fd5b9392505050565b61039f806101906000396000f3fe608060405234801561001057600080fd5b50600436106100675760003560e01c8063715018a611610050578063715018a6146100aa5780638da5cb5b146100b2578063f2fde38b146100c357600080fd5b80633659cfe61461006c5780635c60da1b14610081575b600080fd5b61007f61007a366004610339565b6100d6565b005b6001546001600160a01b03165b6040516001600160a01b03909116815260200160405180910390f35b61007f61011e565b6000546001600160a01b031661008e565b61007f6100d1366004610339565b610132565b6100de6101d6565b6100e781610230565b6040516001600160a01b038216907fbc7cd75a20ee27fd9adebab32041f755214dbc6bffa90cc0225b39da2e5c2d3b90600090a250565b6101266101d6565b61013060006102dc565b565b61013a6101d6565b6001600160a01b0381166101bb5760405162461bcd60e51b815260206004820152602660248201527f4f776e61626c653a206e6577206f776e657220697320746865207a65726f206160448201527f646472657373000000000000000000000000000000000000000000000000000060648201526084015b60405180910390fd5b6101c4816102dc565b50565b6001600160a01b03163b151590565b6000546001600160a01b031633146101305760405162461bcd60e51b815260206004820181905260248201527f4f776e61626c653a2063616c6c6572206973206e6f7420746865206f776e657260448201526064016101b2565b6001600160a01b0381163b6102ad5760405162461bcd60e51b815260206004820152603360248201527f5570677261646561626c65426561636f6e3a20696d706c656d656e746174696f60448201527f6e206973206e6f74206120636f6e74726163740000000000000000000000000060648201526084016101b2565b6001805473ffffffffffffffffffffffffffffffffffffffff19166001600160a01b0392909216919091179055565b600080546001600160a01b0383811673ffffffffffffffffffffffffffffffffffffffff19831681178455604051919092169283917f8be0079c531659141344cd1fd0a4f28419497f9722a3daafe3b4186f6b6457e09190a35050565b60006020828403121561034b57600080fd5b81356001600160a01b038116811461036257600080fd5b939250505056fea264697066735822122024ea026f3d3a44944a730c8a741b431e9b1049788fcc432e5b378f0299174f3d64736f6c63430008110033a2646970667358221220b061446d38909f20a9a4f18da6b7b381092bdd33c54b4b4023f31e590673ec6464736f6c63430008110033",
  "linkReferences": {},
  "deployedLinkReferences": {}
}