{
  "_format": "hh-sol-artifact-1",
  "contractName": "TalentFactoryV3",
  "sourceName": "contracts/season3/TalentFactoryV3.sol",
  "abi": [
    {
      "anonymous": false,
      "inputs": [
        {
          "indexed": false,
          "internalType": "uint8",
          "name": "version",
          "type": "uint8"
        }
      ],
      "name": "Initialized",
      "type": "event"
    },
    {
      "anonymous": false,
      "inputs": [
        {
          "indexed": true,
          "internalType": "bytes32",
          "name": "role",
          "type": "bytes32"
        },
        {
          "indexed": true,
          "internalType": "bytes32",
          "name": "previousAdminRole",
          "type": "bytes32"
        },
        {
          "indexed": true,
          "internalType": "bytes32",
          "name": "newAdminRole",
          "type": "bytes32"
        }
      ],
      "name": "RoleAdminChanged",
      "type": "event"
    },
    {
      "anonymous": false,
      "inputs": [
        {
          "indexed": true,
          "internalType": "bytes32",
          "name": "role",
          "type": "bytes32"
        },
        {
          "indexed": true,
          "internalType": "address",
          "name": "account",
          "type": "address"
        },
        {
          "indexed": true,
          "internalType": "address",
          "name": "sender",
          "type": "address"
        }
      ],
      "name": "RoleGranted",
      "type": "event"
    },
    {
      "anonymous": false,
      "inputs": [
        {
          "indexed": true,
          "internalType": "bytes32",
          "name": "role",
          "type": "bytes32"
        },
        {
          "indexed": true,
          "internalType": "address",
          "name": "account",
          "type": "address"
        },
        {
          "indexed": true,
          "internalType": "address",
          "name": "sender",
          "type": "address"
        }
      ],
      "name": "RoleRevoked",
      "type": "event"
    },
    {
      "anonymous": false,
      "inputs": [
        {
          "indexed": true,
          "internalType": "address",
          "name": "talent",
          "type": "address"
        },
        {
          "indexed": true,
          "internalType": "address",
          "name": "token",
          "type": "address"
        }
      ],
      "name": "TalentCreated",
      "type": "event"
    },
    {
      "inputs": [],
      "name": "DEFAULT_ADMIN_ROLE",
      "outputs": [
        {
          "internalType": "bytes32",
          "name": "",
          "type": "bytes32"
        }
      ],
      "stateMutability": "view",
      "type": "function"
    },
    {
      "inputs": [],
      "name": "INITIAL_SUPPLY",
      "outputs": [
        {
          "internalType": "uint256",
          "name": "",
          "type": "uint256"
        }
      ],
      "stateMutability": "view",
      "type": "function"
    },
    {
      "inputs": [],
      "name": "ROLE_MINTER",
      "outputs": [
        {
          "internalType": "bytes32",
          "name": "",
          "type": "bytes32"
        }
      ],
      "stateMutability": "view",
      "type": "function"
    },
    {
      "inputs": [],
      "name": "WHITELISTER_ROLE",
      "outputs": [
        {
          "internalType": "bytes32",
          "name": "",
          "type": "bytes32"
        }
      ],
      "stateMutability": "view",
      "type": "function"
    },
    {
      "inputs": [
        {
          "internalType": "address",
          "name": "talentAddress",
          "type": "address"
        },
        {
          "internalType": "address",
          "name": "tokenAddress",
          "type": "address"
        }
      ],
      "name": "addAddressToTokensToTalents",
      "outputs": [],
      "stateMutability": "nonpayable",
      "type": "function"
    },
    {
      "inputs": [
        {
          "internalType": "address",
          "name": "_talent",
          "type": "address"
        },
        {
          "internalType": "string",
          "name": "_name",
          "type": "string"
        },
        {
          "internalType": "string",
          "name": "_symbol",
          "type": "string"
        }
      ],
      "name": "createTalent",
      "outputs": [
        {
          "internalType": "address",
          "name": "",
          "type": "address"
        }
      ],
      "stateMutability": "nonpayable",
      "type": "function"
    },
    {
      "inputs": [
        {
          "internalType": "bytes32",
          "name": "role",
          "type": "bytes32"
        }
      ],
      "name": "getRoleAdmin",
      "outputs": [
        {
          "internalType": "bytes32",
          "name": "",
          "type": "bytes32"
        }
      ],
      "stateMutability": "view",
      "type": "function"
    },
    {
      "inputs": [
        {
          "internalType": "bytes32",
          "name": "role",
          "type": "bytes32"
        },
        {
          "internalType": "uint256",
          "name": "index",
          "type": "uint256"
        }
      ],
      "name": "getRoleMember",
      "outputs": [
        {
          "internalType": "address",
          "name": "",
          "type": "address"
        }
      ],
      "stateMutability": "view",
      "type": "function"
    },
    {
      "inputs": [
        {
          "internalType": "bytes32",
          "name": "role",
          "type": "bytes32"
        }
      ],
      "name": "getRoleMemberCount",
      "outputs": [
        {
          "internalType": "uint256",
          "name": "",
          "type": "uint256"
        }
      ],
      "stateMutability": "view",
      "type": "function"
    },
    {
      "inputs": [
        {
          "internalType": "bytes32",
          "name": "role",
          "type": "bytes32"
        },
        {
          "internalType": "address",
          "name": "account",
          "type": "address"
        }
      ],
      "name": "grantRole",
      "outputs": [],
      "stateMutability": "nonpayable",
      "type": "function"
    },
    {
      "inputs": [
        {
          "internalType": "bytes32",
          "name": "role",
          "type": "bytes32"
        },
        {
          "internalType": "address",
          "name": "account",
          "type": "address"
        }
      ],
      "name": "hasRole",
      "outputs": [
        {
          "internalType": "bool",
          "name": "",
          "type": "bool"
        }
      ],
      "stateMutability": "view",
      "type": "function"
    },
    {
      "inputs": [
        {
          "internalType": "address",
          "name": "addr",
          "type": "address"
        }
      ],
      "name": "hasTalentToken",
      "outputs": [
        {
          "internalType": "bool",
          "name": "",
          "type": "bool"
        }
      ],
      "stateMutability": "view",
      "type": "function"
    },
    {
      "inputs": [],
      "name": "implementationBeacon",
      "outputs": [
        {
          "internalType": "address",
          "name": "",
          "type": "address"
        }
      ],
      "stateMutability": "view",
      "type": "function"
    },
    {
      "inputs": [],
      "name": "initialize",
      "outputs": [],
      "stateMutability": "nonpayable",
      "type": "function"
    },
    {
      "inputs": [
        {
          "internalType": "string",
          "name": "_symbol",
          "type": "string"
        }
      ],
      "name": "isSymbol",
      "outputs": [
        {
          "internalType": "bool",
          "name": "",
          "type": "bool"
        }
      ],
      "stateMutability": "view",
      "type": "function"
    },
    {
      "inputs": [
        {
          "internalType": "address",
          "name": "addr",
          "type": "address"
        }
      ],
      "name": "isTalentToken",
      "outputs": [
        {
          "internalType": "bool",
          "name": "",
          "type": "bool"
        }
      ],
      "stateMutability": "view",
      "type": "function"
    },
    {
      "inputs": [],
      "name": "minter",
      "outputs": [
        {
          "internalType": "address",
          "name": "",
          "type": "address"
        }
      ],
      "stateMutability": "view",
      "type": "function"
    },
    {
      "inputs": [
        {
          "internalType": "bytes32",
          "name": "role",
          "type": "bytes32"
        },
        {
          "internalType": "address",
          "name": "account",
          "type": "address"
        }
      ],
      "name": "renounceRole",
      "outputs": [],
      "stateMutability": "nonpayable",
      "type": "function"
    },
    {
      "inputs": [
        {
          "internalType": "bytes32",
          "name": "role",
          "type": "bytes32"
        },
        {
          "internalType": "address",
          "name": "account",
          "type": "address"
        }
      ],
      "name": "revokeRole",
      "outputs": [],
      "stateMutability": "nonpayable",
      "type": "function"
    },
    {
      "inputs": [
        {
          "internalType": "address",
          "name": "_whitelister",
          "type": "address"
        }
      ],
      "name": "revokeWhitelister",
      "outputs": [],
      "stateMutability": "nonpayable",
      "type": "function"
    },
    {
      "inputs": [
        {
          "internalType": "address",
          "name": "_minter",
          "type": "address"
        }
      ],
      "name": "setMinter",
      "outputs": [],
      "stateMutability": "nonpayable",
      "type": "function"
    },
    {
      "inputs": [
        {
          "internalType": "address",
          "name": "_oldTalent",
          "type": "address"
        },
        {
          "internalType": "address",
          "name": "_newTalent",
          "type": "address"
        }
      ],
      "name": "setNewMappingValues",
      "outputs": [],
      "stateMutability": "nonpayable",
      "type": "function"
    },
    {
      "inputs": [
        {
          "internalType": "address",
          "name": "_whitelister",
          "type": "address"
        }
      ],
      "name": "setWhitelister",
      "outputs": [],
      "stateMutability": "nonpayable",
      "type": "function"
    },
    {
      "inputs": [
        {
          "internalType": "bytes4",
          "name": "interfaceId",
          "type": "bytes4"
        }
      ],
      "name": "supportsInterface",
      "outputs": [
        {
          "internalType": "bool",
          "name": "",
          "type": "bool"
        }
      ],
      "stateMutability": "view",
      "type": "function"
    },
    {
      "inputs": [
        {
          "internalType": "string",
          "name": "",
          "type": "string"
        }
      ],
      "name": "symbolsToTokens",
      "outputs": [
        {
          "internalType": "address",
          "name": "",
          "type": "address"
        }
      ],
      "stateMutability": "view",
      "type": "function"
    },
    {
      "inputs": [
        {
          "internalType": "address",
          "name": "",
          "type": "address"
        }
      ],
      "name": "talentsToTokens",
      "outputs": [
        {
          "internalType": "address",
          "name": "",
          "type": "address"
        }
      ],
      "stateMutability": "view",
      "type": "function"
    },
    {
      "inputs": [
        {
          "internalType": "address",
          "name": "",
          "type": "address"
        }
      ],
      "name": "tokensToTalents",
      "outputs": [
        {
          "internalType": "address",
          "name": "",
          "type": "address"
        }
      ],
      "stateMutability": "view",
      "type": "function"
    },
    {
      "inputs": [
        {
          "internalType": "address",
          "name": "_newMinter",
          "type": "address"
        }
      ],
      "name": "transferMinter",
      "outputs": [],
      "stateMutability": "nonpayable",
      "type": "function"
    },
    {
      "inputs": [],
      "name": "version",
      "outputs": [
        {
          "internalType": "uint256",
          "name": "",
          "type": "uint256"
        }
      ],
      "stateMutability": "pure",
      "type": "function"
    },
    {
      "inputs": [
        {
          "internalType": "address",
          "name": "",
          "type": "address"
        }
      ],
      "name": "whitelist",
      "outputs": [
        {
          "internalType": "bool",
          "name": "",
          "type": "bool"
        }
      ],
      "stateMutability": "view",
      "type": "function"
    },
    {
      "inputs": [
        {
          "internalType": "address",
          "name": "_address",
          "type": "address"
        }
      ],
      "name": "whitelistAddress",
      "outputs": [],
      "stateMutability": "nonpayable",
      "type": "function"
    }
  ],
  "bytecode": "0x608060405234801561001057600080fd5b50615c13806100206000396000f3fe60806040523480156200001157600080fd5b50600436106200020d5760003560e01c80635810e96d1162000125578063a217fddf11620000af578063f7bad69f116200007a578063f7bad69f1462000551578063f98f5b921462000582578063fca3b5aa1462000599578063fe99ad5a14620005b057600080fd5b8063a217fddf14620004ee578063ca15c87314620004f7578063d547741f146200050e578063ef31f424146200052557600080fd5b80639010d07c11620000f05780639010d07c146200044d57806391d14854146200046457806392afc33a14620004a05780639b19251a14620004c857600080fd5b80635810e96d14620003e95780637ffed92614620004005780638129fc1c146200042c5780638611fc5c146200043657600080fd5b80632dbc679c11620001a757806341566585116200017257806341566585146200038e57806354fd4d5014620003a5578063570618e114620003ad57806357bc3cd914620003d557600080fd5b80632dbc679c14620003185780632f2ff15d146200034f5780632ff2e9dc146200036657806336568abe146200037757600080fd5b8063099aba5611620001e8578063099aba5614620002845780631b0f287414620002b5578063242fa5db14620002cc578063248a9ca314620002e357600080fd5b80630101d4db146200021257806301ffc9a7146200022b578063075461721462000257575b600080fd5b620002296200022336600462001859565b620005c7565b005b620002426200023c36600462001879565b62000604565b60405190151581526020015b60405180910390f35b60cc546200026b906001600160a01b031681565b6040516001600160a01b0390911681526020016200024e565b620002426200029536600462001859565b6001600160a01b03908116600090815260ca602052604090205416151590565b62000242620002c636600462001950565b62000617565b6200026b620002dd36600462001991565b62000656565b62000309620002f436600462001a10565b60009081526065602052604090206001015490565b6040519081526020016200024e565b6200026b6200032936600462001950565b805160208183018101805160cb825292820191909301209152546001600160a01b031681565b620002296200036036600462001a2a565b620009fb565b62000309686c6b935b8bbd40000081565b620002296200038836600462001a2a565b62000a29565b620002296200039f36600462001859565b62000ab5565b600362000309565b620003097fd946416bae22467c1a019c810cd0950013103e78707bc717059dcad31e77173281565b60cd546200026b906001600160a01b031681565b62000229620003fa36600462001a5d565b62000b06565b6200026b6200041136600462001859565b60c9602052600090815260409020546001600160a01b031681565b6200022962000b42565b620002296200044736600462001a5d565b62000d8e565b6200026b6200045e36600462001a90565b62000f29565b620002426200047536600462001a2a565b60009182526065602090815260408084206001600160a01b0393909316845291905290205460ff1690565b620003097ff0887ba65ee2024ea881d91b74c2450ef19e1557f03bed3ea9f16b037cbe2dc981565b62000242620004d936600462001859565b60ce6020526000908152604090205460ff1681565b62000309600081565b620003096200050836600462001a10565b62000f4a565b620002296200051f36600462001a2a565b62000f63565b6200026b6200053636600462001859565b60ca602052600090815260409020546001600160a01b031681565b620002426200056236600462001859565b6001600160a01b03908116600090815260c9602052604090205416151590565b620002296200059336600462001859565b62000f8c565b62000229620005aa36600462001859565b62000fc5565b62000229620005c136600462001859565b62001074565b6000620005d48162001114565b620006007fd946416bae22467c1a019c810cd0950013103e78707bc717059dcad31e7717328362001120565b5050565b6000620006118262001146565b92915050565b6000806001600160a01b031660cb8360405162000635919062001ad9565b908152604051908190036020019020546001600160a01b0316141592915050565b6001600160a01b038316600090815260ce602052604081205460ff16620006c45760405162461bcd60e51b815260206004820152601f60248201527f61646472657373206e6565647320746f2062652077686974656c69737465640060448201526064015b60405180910390fd5b60cc546001600160a01b0316331480620006e65750336001600160a01b038516145b620007345760405162461bcd60e51b815260206004820152601e60248201527f74616c656e74206d757374206265206d696e746572206f72206f776e657200006044820152606401620006bb565b6001600160a01b03848116600090815260c9602052604090205416156200079e5760405162461bcd60e51b815260206004820152601f60248201527f74616c656e7420616c7265616479206861732074616c656e7420746f6b656e006044820152606401620006bb565b620007a98262000617565b15620007f85760405162461bcd60e51b815260206004820152601560248201527f73796d626f6c20616c72656164792065786973747300000000000000000000006044820152606401620006bb565b60cc546001600160a01b0316620008525760405162461bcd60e51b815260206004820152601260248201527f6d696e746572206e6f74207965742073657400000000000000000000000000006044820152606401620006bb565b6001600160a01b03808516600090815260ce60205260408120805460ff1916905560cd5460cc549192908116917f6ef7626c000000000000000000000000000000000000000000000000000000009187918791686c6b935b8bbd400000918b9116620008bf888062000f29565b604051602401620008d69695949392919062001b25565b60408051601f198184030181529181526020820180517bffffffffffffffffffffffffffffffffffffffffffffffffffffffff166001600160e01b03199094169390931790925290516200092a9062001819565b6200093792919062001b7f565b604051809103906000f08015801562000954573d6000803e3d6000fd5b50905060008190508060cb856040516200096f919062001ad9565b908152604080516020928190038301812080546001600160a01b03199081166001600160a01b0396871617909155858516600081815260ca865284812080548416978e16978817905586815260c99095529284208054909116831790559092917fc3cff6724200e4907489fef1d1ede51dd32ca7ac86d62c448475be4c3b1d5b5091a395945050505050565b60008281526065602052604090206001015462000a188162001114565b62000a24838362001187565b505050565b6001600160a01b038116331462000aa95760405162461bcd60e51b815260206004820152602f60248201527f416363657373436f6e74726f6c3a2063616e206f6e6c792072656e6f756e636560448201527f20726f6c657320666f722073656c6600000000000000000000000000000000006064820152608401620006bb565b62000600828262001120565b7fd946416bae22467c1a019c810cd0950013103e78707bc717059dcad31e77173262000ae18162001114565b506001600160a01b0316600090815260ce60205260409020805460ff19166001179055565b600062000b138162001114565b506001600160a01b03918216600090815260ca6020526040902080546001600160a01b03191691909216179055565b600054610100900460ff161580801562000b635750600054600160ff909116105b8062000b7f5750303b15801562000b7f575060005460ff166001145b62000bf35760405162461bcd60e51b815260206004820152602e60248201527f496e697469616c697a61626c653a20636f6e747261637420697320616c72656160448201527f647920696e697469616c697a65640000000000000000000000000000000000006064820152608401620006bb565b6000805460ff19166001179055801562000c17576000805461ff0019166101001790555b62000c21620011ad565b62000c2b620011ad565b62000c35620011ad565b62000c4260003362001187565b600060405162000c529062001827565b604051809103906000f08015801562000c6f573d6000803e3d6000fd5b5060405162000c7e9062001835565b6001600160a01b039091168152602001604051809103906000f08015801562000cab573d6000803e3d6000fd5b506040517ff2fde38b0000000000000000000000000000000000000000000000000000000081523360048201529091506001600160a01b0382169063f2fde38b90602401600060405180830381600087803b15801562000d0a57600080fd5b505af115801562000d1f573d6000803e3d6000fd5b505060cd80546001600160a01b0319166001600160a01b0394909416939093179092555050801562000d8b576000805461ff0019169055604051600181527f7f26b83ff96e1f2b6a682f133852f6798a09c465da95921460cefb38474024989060200160405180910390a15b50565b6001600160a01b03828116600090815260c960209081526040808320543384527fffdfc1249c027f9191656349feb0761381bb32c9f557e01f419fd08754bf5a1b9092529091205491169060ff1662000ed457336001600160a01b0382161462000e3b5760405162461bcd60e51b815260206004820152601a60248201527f6e6f742063616c6c65642062792074616c656e7420746f6b656e0000000000006044820152606401620006bb565b326001600160a01b0383161462000e5157600080fd5b806001600160a01b031663fcd38b026040518163ffffffff1660e01b8152600401602060405180830381865afa15801562000e90573d6000803e3d6000fd5b505050506040513d601f19601f8201168201806040525081019062000eb6919062001ba3565b6001600160a01b0316326001600160a01b03161462000ed457600080fd5b6001600160a01b03908116600081815260ca6020908152604080832080546001600160a01b031990811697871697881790915596909416825260c9905282812080548616905592835291208054909216179055565b600082815260976020526040812062000f4390836200122e565b9392505050565b600081815260976020526040812062000611906200123c565b60008281526065602052604090206001015462000f808162001114565b62000a24838362001120565b600062000f998162001114565b620006007fd946416bae22467c1a019c810cd0950013103e78707bc717059dcad31e7717328362001187565b600062000fd28162001114565b60cc546001600160a01b0316156200102d5760405162461bcd60e51b815260206004820152601260248201527f6d696e74657220616c72656164792073657400000000000000000000000000006044820152606401620006bb565b60cc80546001600160a01b0319166001600160a01b038416179055620006007ff0887ba65ee2024ea881d91b74c2450ef19e1557f03bed3ea9f16b037cbe2dc98362001187565b6000620010818162001114565b60cc546001600160a01b0316620010db5760405162461bcd60e51b815260206004820152601160248201527f6d696e746572206973206e6f74207365740000000000000000000000000000006044820152606401620006bb565b60cc546200102d907ff0887ba65ee2024ea881d91b74c2450ef19e1557f03bed3ea9f16b037cbe2dc9906001600160a01b031662000f63565b62000d8b813362001247565b6200112c8282620012c5565b600082815260976020526040902062000a24908262001349565b60006001600160e01b031982167f5a05180f000000000000000000000000000000000000000000000000000000001480620006115750620006118262001360565b620011938282620013c9565b600082815260976020526040902062000a2490826200146d565b600054610100900460ff166200122c5760405162461bcd60e51b815260206004820152602b60248201527f496e697469616c697a61626c653a20636f6e7472616374206973206e6f74206960448201527f6e697469616c697a696e670000000000000000000000000000000000000000006064820152608401620006bb565b565b600062000f43838362001484565b600062000611825490565b60008281526065602090815260408083206001600160a01b038516845290915290205460ff1662000600576200127d81620014b1565b6200128a836020620014c4565b6040516020016200129d92919062001bc3565b60408051601f198184030181529082905262461bcd60e51b8252620006bb9160040162001c48565b60008281526065602090815260408083206001600160a01b038516845290915290205460ff1615620006005760008281526065602090815260408083206001600160a01b0385168085529252808320805460ff1916905551339285917ff6391f5c32d9c69d2a47ea670b442974b53935d1edc7fd64eb21e047a839171b9190a45050565b600062000f43836001600160a01b038416620016c3565b60006001600160e01b031982167f7965db0b0000000000000000000000000000000000000000000000000000000014806200061157507f01ffc9a7000000000000000000000000000000000000000000000000000000006001600160e01b031983161462000611565b60008281526065602090815260408083206001600160a01b038516845290915290205460ff16620006005760008281526065602090815260408083206001600160a01b03851684529091529020805460ff19166001179055620014293390565b6001600160a01b0316816001600160a01b0316837f2f8788117e7eff1d82e926ec794901d17c78024a50270940304540a733656f0d60405160405180910390a45050565b600062000f43836001600160a01b038416620017c7565b60008260000182815481106200149e576200149e62001c5d565b9060005260206000200154905092915050565b6060620006116001600160a01b03831660145b60606000620014d583600262001c89565b620014e290600262001ca3565b67ffffffffffffffff811115620014fd57620014fd620018a5565b6040519080825280601f01601f19166020018201604052801562001528576020820181803683370190505b5090507f30000000000000000000000000000000000000000000000000000000000000008160008151811062001562576200156262001c5d565b60200101906001600160f81b031916908160001a9053507f780000000000000000000000000000000000000000000000000000000000000081600181518110620015b057620015b062001c5d565b60200101906001600160f81b031916908160001a9053506000620015d684600262001c89565b620015e390600162001ca3565b90505b600181111562001672577f303132333435363738396162636465660000000000000000000000000000000085600f166010811062001628576200162862001c5d565b1a60f81b82828151811062001641576200164162001c5d565b60200101906001600160f81b031916908160001a90535060049490941c936200166a8162001cb9565b9050620015e6565b50831562000f435760405162461bcd60e51b815260206004820181905260248201527f537472696e67733a20686578206c656e67746820696e73756666696369656e746044820152606401620006bb565b60008181526001830160205260408120548015620017bc576000620016ea60018362001cd3565b8554909150600090620017009060019062001cd3565b90508181146200176c57600086600001828154811062001724576200172462001c5d565b90600052602060002001549050808760000184815481106200174a576200174a62001c5d565b6000918252602080832090910192909255918252600188019052604090208390555b855486908062001780576200178062001ce9565b60019003818190600052602060002001600090559055856001016000868152602001908152602001600020600090556001935050505062000611565b600091505062000611565b6000818152600183016020526040812054620018105750815460018181018455600084815260208082209093018490558454848252828601909352604090209190915562000611565b50600062000611565b6109008062001d0083390190565b6130af806200260083390190565b61052f80620056af83390190565b6001600160a01b038116811462000d8b57600080fd5b6000602082840312156200186c57600080fd5b813562000f438162001843565b6000602082840312156200188c57600080fd5b81356001600160e01b03198116811462000f4357600080fd5b634e487b7160e01b600052604160045260246000fd5b600082601f830112620018cd57600080fd5b813567ffffffffffffffff80821115620018eb57620018eb620018a5565b604051601f8301601f19908116603f01168101908282118183101715620019165762001916620018a5565b816040528381528660208588010111156200193057600080fd5b836020870160208301376000602085830101528094505050505092915050565b6000602082840312156200196357600080fd5b813567ffffffffffffffff8111156200197b57600080fd5b6200198984828501620018bb565b949350505050565b600080600060608486031215620019a757600080fd5b8335620019b48162001843565b9250602084013567ffffffffffffffff80821115620019d257600080fd5b620019e087838801620018bb565b93506040860135915080821115620019f757600080fd5b5062001a0686828701620018bb565b9150509250925092565b60006020828403121562001a2357600080fd5b5035919050565b6000806040838503121562001a3e57600080fd5b82359150602083013562001a528162001843565b809150509250929050565b6000806040838503121562001a7157600080fd5b823562001a7e8162001843565b9150602083013562001a528162001843565b6000806040838503121562001aa457600080fd5b50508035926020909101359150565b60005b8381101562001ad057818101518382015260200162001ab6565b50506000910152565b6000825162001aed81846020870162001ab3565b9190910192915050565b6000815180845262001b1181602086016020860162001ab3565b601f01601f19169290920160200192915050565b60c08152600062001b3a60c083018962001af7565b828103602084015262001b4e818962001af7565b604084019790975250506001600160a01b039384166060820152918316608083015290911660a09091015292915050565b6001600160a01b038316815260406020820152600062001989604083018462001af7565b60006020828403121562001bb657600080fd5b815162000f438162001843565b7f416363657373436f6e74726f6c3a206163636f756e742000000000000000000081526000835162001bfd81601785016020880162001ab3565b7f206973206d697373696e6720726f6c6520000000000000000000000000000000601791840191820152835162001c3c81602884016020880162001ab3565b01602801949350505050565b60208152600062000f43602083018462001af7565b634e487b7160e01b600052603260045260246000fd5b634e487b7160e01b600052601160045260246000fd5b808202811582820484141762000611576200061162001c73565b8082018082111562000611576200061162001c73565b60008162001ccb5762001ccb62001c73565b506000190190565b8181038181111562000611576200061162001c73565b634e487b7160e01b600052603160045260246000fdfe60806040526040516109003803806109008339810160408190526100229161045b565b61002e82826000610035565b5050610585565b61003e83610100565b6040516001600160a01b038416907f1cf3b03a6cf19fa2baba4df148e9dcabedea7f8a5c07840e207e5c089be95d3e90600090a260008251118061007f5750805b156100fb576100f9836001600160a01b0316635c60da1b6040518163ffffffff1660e01b8152600401602060405180830381865afa1580156100c5573d6000803e3d6000fd5b505050506040513d601f19601f820116820180604052508101906100e9919061051b565b836102a360201b6100291760201c565b505b505050565b610113816102cf60201b6100551760201c565b6101725760405162461bcd60e51b815260206004820152602560248201527f455243313936373a206e657720626561636f6e206973206e6f74206120636f6e6044820152641d1c9858dd60da1b60648201526084015b60405180910390fd5b6101e6816001600160a01b0316635c60da1b6040518163ffffffff1660e01b8152600401602060405180830381865afa1580156101b3573d6000803e3d6000fd5b505050506040513d601f19601f820116820180604052508101906101d7919061051b565b6102cf60201b6100551760201c565b61024b5760405162461bcd60e51b815260206004820152603060248201527f455243313936373a20626561636f6e20696d706c656d656e746174696f6e206960448201526f1cc81b9bdd08184818dbdb9d1c9858dd60821b6064820152608401610169565b806102827fa3f0ad74e5423aebfd80d3ef4346578335a9a72aeaee59ff6cb3582b35133d5060001b6102de60201b6100641760201c565b80546001600160a01b0319166001600160a01b039290921691909117905550565b60606102c883836040518060600160405280602781526020016108d9602791396102e1565b9392505050565b6001600160a01b03163b151590565b90565b6060600080856001600160a01b0316856040516102fe9190610536565b600060405180830381855af49150503d8060008114610339576040519150601f19603f3d011682016040523d82523d6000602084013e61033e565b606091505b5090925090506103508683838761035a565b9695505050505050565b606083156103c95782516000036103c2576001600160a01b0385163b6103c25760405162461bcd60e51b815260206004820152601d60248201527f416464726573733a2063616c6c20746f206e6f6e2d636f6e74726163740000006044820152606401610169565b50816103d3565b6103d383836103db565b949350505050565b8151156103eb5781518083602001fd5b8060405162461bcd60e51b81526004016101699190610552565b80516001600160a01b038116811461041c57600080fd5b919050565b634e487b7160e01b600052604160045260246000fd5b60005b8381101561045257818101518382015260200161043a565b50506000910152565b6000806040838503121561046e57600080fd5b61047783610405565b60208401519092506001600160401b038082111561049457600080fd5b818501915085601f8301126104a857600080fd5b8151818111156104ba576104ba610421565b604051601f8201601f19908116603f011681019083821181831017156104e2576104e2610421565b816040528281528860208487010111156104fb57600080fd5b61050c836020830160208801610437565b80955050505050509250929050565b60006020828403121561052d57600080fd5b6102c882610405565b60008251610548818460208701610437565b9190910192915050565b6020815260008251806020840152610571816040850160208701610437565b601f01601f19169190910160400192915050565b610345806105946000396000f3fe60806040523661001357610011610017565b005b6100115b610027610022610067565b610100565b565b606061004e83836040518060600160405280602781526020016102e960279139610124565b9392505050565b6001600160a01b03163b151590565b90565b600061009a7fa3f0ad74e5423aebfd80d3ef4346578335a9a72aeaee59ff6cb3582b35133d50546001600160a01b031690565b6001600160a01b0316635c60da1b6040518163ffffffff1660e01b8152600401602060405180830381865afa1580156100d7573d6000803e3d6000fd5b505050506040513d601f19601f820116820180604052508101906100fb919061024c565b905090565b3660008037600080366000845af43d6000803e80801561011f573d6000f35b3d6000fd5b6060600080856001600160a01b0316856040516101419190610299565b600060405180830381855af49150503d806000811461017c576040519150601f19603f3d011682016040523d82523d6000602084013e610181565b606091505b50915091506101928683838761019c565b9695505050505050565b60608315610210578251600003610209576001600160a01b0385163b6102095760405162461bcd60e51b815260206004820152601d60248201527f416464726573733a2063616c6c20746f206e6f6e2d636f6e747261637400000060448201526064015b60405180910390fd5b508161021a565b61021a8383610222565b949350505050565b8151156102325781518083602001fd5b8060405162461bcd60e51b815260040161020091906102b5565b60006020828403121561025e57600080fd5b81516001600160a01b038116811461004e57600080fd5b60005b83811015610290578181015183820152602001610278565b50506000910152565b600082516102ab818460208701610275565b9190910192915050565b60208152600082518060208401526102d4816040850160208701610275565b601f01601f1916919091016040019291505056fe416464726573733a206c6f772d6c6576656c2064656c65676174652063616c6c206661696c6564a264697066735822122011847c04569fc65e7c36efe303b56d827ce517abd60d29b3d333b0395239483964736f6c63430008110033416464726573733a206c6f772d6c6576656c2064656c65676174652063616c6c206661696c656460a06040523060805234801561001457600080fd5b5060805161306361004c60003960008181610a9801528181610b1d01528181610d6e01528181610df30152610ed901526130636000f3fe6080604052600436106102c65760003560e01c80636ef7626c11610179578063aafa9371116100d6578063d547741f1161008a578063e05162c911610064578063e05162c914610811578063f6e04edc14610831578063fcd38b021461084657600080fd5b8063d547741f1461078b578063d8fbe994146107ab578063dd62ed3e146107cb57600080fd5b8063c45a0155116100bb578063c45a015514610711578063c4daa5931461074a578063cae9ca511461076b57600080fd5b8063aafa9371146106da578063c1d34b89146106f157600080fd5b806395d89b411161012d578063a217fddf11610112578063a217fddf14610685578063a457c2d71461069a578063a9059cbb146106ba57600080fd5b806395d89b41146106505780639dc29fac1461066557600080fd5b80637a12083a1161015e5780637a12083a146105a257806391d14854146105d657806392afc33a1461061c57600080fd5b80636ef7626c1461054c57806370a082311461056c57600080fd5b806332cb6b0c116102275780634000aea0116101db5780634f1ef286116101c05780634f1ef2861461050457806352d1902d146105175780635bb478081461052c57600080fd5b80634000aea0146104c457806340c10f19146104e457600080fd5b80633659cfe61161020c5780633659cfe61461046d578063395093511461048d5780633e0075a1146104ad57600080fd5b806332cb6b0c1461042f57806336568abe1461044d57600080fd5b806323b872dd1161027e5780632f2ff15d116102635780632f2ff15d146103d1578063313ce567146103f35780633177029f1461040f57600080fd5b806323b872dd14610381578063248a9ca3146103a157600080fd5b8063095ea7b3116102af578063095ea7b3146103225780631296ee621461034257806318160ddd1461036257600080fd5b806301ffc9a7146102cb57806306fdde0314610300575b600080fd5b3480156102d757600080fd5b506102eb6102e636600461292d565b610867565b60405190151581526020015b60405180910390f35b34801561030c57600080fd5b506103156108c6565b6040516102f7919061299a565b34801561032e57600080fd5b506102eb61033d3660046129c9565b610958565b34801561034e57600080fd5b506102eb61035d3660046129c9565b610970565b34801561036e57600080fd5b506099545b6040519081526020016102f7565b34801561038d57600080fd5b506102eb61039c3660046129f3565b610993565b3480156103ad57600080fd5b506103736103bc366004612a2f565b60009081526065602052604090206001015490565b3480156103dd57600080fd5b506103f16103ec366004612a48565b6109b7565b005b3480156103ff57600080fd5b50604051601281526020016102f7565b34801561041b57600080fd5b506102eb61042a3660046129c9565b6109e1565b34801561043b57600080fd5b5061037369d3c21bcecceda100000081565b34801561045957600080fd5b506103f1610468366004612a48565b6109fd565b34801561047957600080fd5b506103f1610488366004612a74565b610a8e565b34801561049957600080fd5b506102eb6104a83660046129c9565b610c09565b3480156104b957600080fd5b5061037361015f5481565b3480156104d057600080fd5b506102eb6104df366004612b32565b610c48565b3480156104f057600080fd5b506103f16104ff3660046129c9565b610cbb565b6103f1610512366004612b89565b610d64565b34801561052357600080fd5b50610373610ecc565b34801561053857600080fd5b506103f1610547366004612a74565b610f91565b34801561055857600080fd5b506103f1610567366004612bd7565b610fc0565b34801561057857600080fd5b50610373610587366004612a74565b6001600160a01b031660009081526097602052604090205490565b3480156105ae57600080fd5b506103737f8fad061cdace53638a92e8940b81545ab8169bcf17f044b6ab490075da827c9481565b3480156105e257600080fd5b506102eb6105f1366004612a48565b60009182526065602090815260408084206001600160a01b0393909316845291905290205460ff1690565b34801561062857600080fd5b506103737ff0887ba65ee2024ea881d91b74c2450ef19e1557f03bed3ea9f16b037cbe2dc981565b34801561065c57600080fd5b506103156111ac565b34801561067157600080fd5b506103f16106803660046129c9565b6111bb565b34801561069157600080fd5b50610373600081565b3480156106a657600080fd5b506102eb6106b53660046129c9565b61120c565b3480156106c657600080fd5b506102eb6106d53660046129c9565b6112b6565b3480156106e657600080fd5b5061037361015e5481565b3480156106fd57600080fd5b506102eb61070c366004612c75565b6112c4565b34801561071d57600080fd5b5061016254610732906001600160a01b031681565b6040516001600160a01b0390911681526020016102f7565b34801561075657600080fd5b5061016054610732906001600160a01b031681565b34801561077757600080fd5b506102eb610786366004612b32565b611340565b34801561079757600080fd5b506103f16107a6366004612a48565b6113c9565b3480156107b757600080fd5b506102eb6107c63660046129f3565b6113ee565b3480156107d757600080fd5b506103736107e6366004612cdd565b6001600160a01b03918216600090815260986020908152604080832093909416825291909152205490565b34801561081d57600080fd5b506103f161082c366004612a74565b61140b565b34801561083d57600080fd5b506103f16114b1565b34801561085257600080fd5b5061016154610732906001600160a01b031681565b60006001600160e01b031982167f36372b070000000000000000000000000000000000000000000000000000000014806108b157506001600160e01b0319821663b0202a1160e01b145b806108c057506108c08261167a565b92915050565b6060609a80546108d590612d07565b80601f016020809104026020016040519081016040528092919081815260200182805461090190612d07565b801561094e5780601f106109235761010080835404028352916020019161094e565b820191906000526020600020905b81548152906001019060200180831161093157829003601f168201915b5050505050905090565b60003361096681858561169f565b5060019392505050565b600061098c838360405180602001604052806000815250610c48565b9392505050565b6000336109a18582856117f7565b6109ac858585611889565b506001949350505050565b6000828152606560205260409020600101546109d281611a7d565b6109dc8383611a87565b505050565b600061098c838360405180602001604052806000815250611340565b6001600160a01b0381163314610a805760405162461bcd60e51b815260206004820152602f60248201527f416363657373436f6e74726f6c3a2063616e206f6e6c792072656e6f756e636560448201527f20726f6c657320666f722073656c66000000000000000000000000000000000060648201526084015b60405180910390fd5b610a8a8282611b29565b5050565b6001600160a01b037f0000000000000000000000000000000000000000000000000000000000000000163003610b1b5760405162461bcd60e51b815260206004820152602c60248201527f46756e6374696f6e206d7573742062652063616c6c6564207468726f7567682060448201526b19195b1959d85d1958d85b1b60a21b6064820152608401610a77565b7f00000000000000000000000000000000000000000000000000000000000000006001600160a01b0316610b767f360894a13ba1a3210667c828492db98dca3e2076cc3735a920a3ca505d382bbc546001600160a01b031690565b6001600160a01b031614610be15760405162461bcd60e51b815260206004820152602c60248201527f46756e6374696f6e206d7573742062652063616c6c6564207468726f7567682060448201526b6163746976652070726f787960a01b6064820152608401610a77565b610bea81611bac565b60408051600080825260208201909252610c0691839190611bb7565b50565b3360008181526098602090815260408083206001600160a01b03871684529091528120549091906109669082908690610c43908790612d57565b61169f565b6000610c5484846112b6565b50610c6133858585611d57565b6109665760405162461bcd60e51b815260206004820152602560248201527f455243313336333a2072656365697665722072657475726e65642077726f6e67604482015264206461746160d81b6064820152608401610a77565b7ff0887ba65ee2024ea881d91b74c2450ef19e1557f03bed3ea9f16b037cbe2dc9610ce581611a7d565b8161015e541015610d385760405162461bcd60e51b815260206004820152601f60248201527f6e6f7420656e6f756768206d696e74696e6720617661696c6162696c697479006044820152606401610a77565b8161015e54610d479190612d6a565b61015e819055600003610d5a574261015f555b6109dc8383611f10565b6001600160a01b037f0000000000000000000000000000000000000000000000000000000000000000163003610df15760405162461bcd60e51b815260206004820152602c60248201527f46756e6374696f6e206d7573742062652063616c6c6564207468726f7567682060448201526b19195b1959d85d1958d85b1b60a21b6064820152608401610a77565b7f00000000000000000000000000000000000000000000000000000000000000006001600160a01b0316610e4c7f360894a13ba1a3210667c828492db98dca3e2076cc3735a920a3ca505d382bbc546001600160a01b031690565b6001600160a01b031614610eb75760405162461bcd60e51b815260206004820152602c60248201527f46756e6374696f6e206d7573742062652063616c6c6564207468726f7567682060448201526b6163746976652070726f787960a01b6064820152608401610a77565b610ec082611bac565b610a8a82826001611bb7565b6000306001600160a01b037f00000000000000000000000000000000000000000000000000000000000000001614610f6c5760405162461bcd60e51b815260206004820152603860248201527f555550535570677261646561626c653a206d757374206e6f742062652063616c60448201527f6c6564207468726f7567682064656c656761746563616c6c00000000000000006064820152608401610a77565b507f360894a13ba1a3210667c828492db98dca3e2076cc3735a920a3ca505d382bbc90565b6000610f9c81611a7d565b5061016280546001600160a01b0319166001600160a01b0392909216919091179055565b600054610100900460ff1615808015610fe05750600054600160ff909116105b80610ffa5750303b158015610ffa575060005460ff166001145b61106c5760405162461bcd60e51b815260206004820152602e60248201527f496e697469616c697a61626c653a20636f6e747261637420697320616c72656160448201527f647920696e697469616c697a65640000000000000000000000000000000000006064820152608401610a77565b6000805460ff19166001179055801561108f576000805461ff0019166101001790555b611097611fd1565b61109f611fd1565b6110a9878761203e565b6110b1611fd1565b61016080546001600160a01b0386166001600160a01b0319918216179091556101628054909116331790556110e7600083611a87565b6111117f8fad061cdace53638a92e8940b81545ab8169bcf17f044b6ab490075da827c9485611a87565b61113b7ff0887ba65ee2024ea881d91b74c2450ef19e1557f03bed3ea9f16b037cbe2dc984611a87565b6111458486611f10565b6111598569d3c21bcecceda1000000612d6a565b61015e5580156111a3576000805461ff0019169055604051600181527f7f26b83ff96e1f2b6a682f133852f6798a09c465da95921460cefb38474024989060200160405180910390a15b50505050505050565b6060609b80546108d590612d07565b7ff0887ba65ee2024ea881d91b74c2450ef19e1557f03bed3ea9f16b037cbe2dc96111e581611a7d565b61015e5415611202578161015e546111fd9190612d57565b61015e555b6109dc83836120c2565b3360008181526098602090815260408083206001600160a01b0387168452909152812054909190838110156112a95760405162461bcd60e51b815260206004820152602560248201527f45524332303a2064656372656173656420616c6c6f77616e63652062656c6f7760448201527f207a65726f0000000000000000000000000000000000000000000000000000006064820152608401610a77565b6109ac828686840361169f565b600033610966818585611889565b60006112d1858585610993565b506112de85858585611d57565b6109ac5760405162461bcd60e51b815260206004820152602560248201527f455243313336333a2072656365697665722072657475726e65642077726f6e67604482015264206461746160d81b6064820152608401610a77565b949350505050565b600061134c8484610958565b5061135884848461222d565b6109665760405162461bcd60e51b8152602060048201526024808201527f455243313336333a207370656e6465722072657475726e65642077726f6e672060448201527f64617461000000000000000000000000000000000000000000000000000000006064820152608401610a77565b6000828152606560205260409020600101546113e481611a7d565b6109dc8383611b29565b6000611338848484604051806020016040528060008152506112c4565b7f8fad061cdace53638a92e8940b81545ab8169bcf17f044b6ab490075da827c9461143581611a7d565b6001600160a01b038216330361148d5760405162461bcd60e51b815260206004820152601b60248201527f74616c656e7420697320616c726561647920746865206f776e657200000000006044820152606401610a77565b5061016180546001600160a01b0319166001600160a01b0392909216919091179055565b610161546001600160a01b0316331461150c5760405162461bcd60e51b815260206004820152601c60248201527f74616c656e74206973206e6f742070726f706f736564206f776e6572000000006044820152606401610a77565b6101625461016054610161546040517f8611fc5c0000000000000000000000000000000000000000000000000000000081526001600160a01b0392831660048201529082166024820152911690638611fc5c90604401600060405180830381600087803b15801561157c57600080fd5b505af1158015611590573d6000803e3d6000fd5b5050610161546115cc92507f8fad061cdace53638a92e8940b81545ab8169bcf17f044b6ab490075da827c9491506001600160a01b0316611a87565b61016054611604907f8fad061cdace53638a92e8940b81545ab8169bcf17f044b6ab490075da827c94906001600160a01b0316611b29565b6101605461016154604080516001600160a01b0393841681529290911660208301527f8be0079c531659141344cd1fd0a4f28419497f9722a3daafe3b4186f6b6457e0910160405180910390a1610161805461016080546001600160a01b03199081166001600160a01b03841617909155169055565b60006001600160e01b0319821663b0202a1160e01b14806108c057506108c0826123dc565b6001600160a01b03831661171a5760405162461bcd60e51b8152602060048201526024808201527f45524332303a20617070726f76652066726f6d20746865207a65726f2061646460448201527f72657373000000000000000000000000000000000000000000000000000000006064820152608401610a77565b6001600160a01b0382166117965760405162461bcd60e51b815260206004820152602260248201527f45524332303a20617070726f766520746f20746865207a65726f20616464726560448201527f73730000000000000000000000000000000000000000000000000000000000006064820152608401610a77565b6001600160a01b0383811660008181526098602090815260408083209487168084529482529182902085905590518481527f8c5be1e5ebec7d5bd14f71427d1e84f3dd0314c0f7b2291e5b200ac8c7c3b925910160405180910390a3505050565b6001600160a01b03838116600090815260986020908152604080832093861683529290522054600019811461188357818110156118765760405162461bcd60e51b815260206004820152601d60248201527f45524332303a20696e73756666696369656e7420616c6c6f77616e63650000006044820152606401610a77565b611883848484840361169f565b50505050565b6001600160a01b0383166119055760405162461bcd60e51b815260206004820152602560248201527f45524332303a207472616e736665722066726f6d20746865207a65726f20616460448201527f64726573730000000000000000000000000000000000000000000000000000006064820152608401610a77565b6001600160a01b0382166119815760405162461bcd60e51b815260206004820152602360248201527f45524332303a207472616e7366657220746f20746865207a65726f206164647260448201527f65737300000000000000000000000000000000000000000000000000000000006064820152608401610a77565b6001600160a01b03831660009081526097602052604090205481811015611a105760405162461bcd60e51b815260206004820152602660248201527f45524332303a207472616e7366657220616d6f756e742065786365656473206260448201527f616c616e636500000000000000000000000000000000000000000000000000006064820152608401610a77565b6001600160a01b0380851660008181526097602052604080822086860390559286168082529083902080548601905591517fddf252ad1be2c89b69c2b068fc378daa952ba7f163c4a11628f55a4df523b3ef90611a709086815260200190565b60405180910390a3611883565b610c068133612443565b60008281526065602090815260408083206001600160a01b038516845290915290205460ff16610a8a5760008281526065602090815260408083206001600160a01b03851684529091529020805460ff19166001179055611ae53390565b6001600160a01b0316816001600160a01b0316837f2f8788117e7eff1d82e926ec794901d17c78024a50270940304540a733656f0d60405160405180910390a45050565b60008281526065602090815260408083206001600160a01b038516845290915290205460ff1615610a8a5760008281526065602090815260408083206001600160a01b0385168085529252808320805460ff1916905551339285917ff6391f5c32d9c69d2a47ea670b442974b53935d1edc7fd64eb21e047a839171b9190a45050565b6000610a8a81611a7d565b7f4910fdfa16fed3260ed0e7147f7cc6da11a60208b5b9406d12a635614ffd91435460ff1615611bea576109dc836124b8565b826001600160a01b03166352d1902d6040518163ffffffff1660e01b8152600401602060405180830381865afa925050508015611c44575060408051601f3d908101601f19168201909252611c4191810190612d7d565b60015b611cb65760405162461bcd60e51b815260206004820152602e60248201527f45524331393637557067726164653a206e657720696d706c656d656e7461746960448201527f6f6e206973206e6f7420555550530000000000000000000000000000000000006064820152608401610a77565b7f360894a13ba1a3210667c828492db98dca3e2076cc3735a920a3ca505d382bbc8114611d4b5760405162461bcd60e51b815260206004820152602960248201527f45524331393637557067726164653a20756e737570706f727465642070726f7860448201527f6961626c655555494400000000000000000000000000000000000000000000006064820152608401610a77565b506109dc838383612576565b60006001600160a01b0384163b611dd65760405162461bcd60e51b815260206004820152602960248201527f455243313336333a207472616e7366657220746f206e6f6e20636f6e7472616360448201527f74206164647265737300000000000000000000000000000000000000000000006064820152608401610a77565b604051632229f29760e21b81526001600160a01b038516906388a7ca5c90611e08903390899088908890600401612d96565b6020604051808303816000875af1925050508015611e43575060408051601f3d908101601f19168201909252611e4091810190612dd2565b60015b611ef6573d808015611e71576040519150601f19603f3d011682016040523d82523d6000602084013e611e76565b606091505b508051600003611eee5760405162461bcd60e51b815260206004820152603460248201527f455243313336333a207472616e7366657220746f206e6f6e204552433133363360448201527f526563656976657220696d706c656d656e7465720000000000000000000000006064820152608401610a77565b805181602001fd5b6001600160e01b031916632229f29760e21b149050611338565b6001600160a01b038216611f665760405162461bcd60e51b815260206004820152601f60248201527f45524332303a206d696e7420746f20746865207a65726f2061646472657373006044820152606401610a77565b8060996000828254611f789190612d57565b90915550506001600160a01b0382166000818152609760209081526040808320805486019055518481527fddf252ad1be2c89b69c2b068fc378daa952ba7f163c4a11628f55a4df523b3ef910160405180910390a35050565b600054610100900460ff1661203c5760405162461bcd60e51b815260206004820152602b60248201527f496e697469616c697a61626c653a20636f6e7472616374206973206e6f74206960448201526a6e697469616c697a696e6760a81b6064820152608401610a77565b565b600054610100900460ff166120a95760405162461bcd60e51b815260206004820152602b60248201527f496e697469616c697a61626c653a20636f6e7472616374206973206e6f74206960448201526a6e697469616c697a696e6760a81b6064820152608401610a77565b609a6120b58382612e3d565b50609b6109dc8282612e3d565b6001600160a01b03821661213e5760405162461bcd60e51b815260206004820152602160248201527f45524332303a206275726e2066726f6d20746865207a65726f2061646472657360448201527f73000000000000000000000000000000000000000000000000000000000000006064820152608401610a77565b6001600160a01b038216600090815260976020526040902054818110156121cd5760405162461bcd60e51b815260206004820152602260248201527f45524332303a206275726e20616d6f756e7420657863656564732062616c616e60448201527f63650000000000000000000000000000000000000000000000000000000000006064820152608401610a77565b6001600160a01b03831660008181526097602090815260408083208686039055609980548790039055518581529192917fddf252ad1be2c89b69c2b068fc378daa952ba7f163c4a11628f55a4df523b3ef910160405180910390a3505050565b60006001600160a01b0384163b6122ac5760405162461bcd60e51b815260206004820152602760248201527f455243313336333a20617070726f76652061206e6f6e20636f6e74726163742060448201527f61646472657373000000000000000000000000000000000000000000000000006064820152608401610a77565b6040516307b04a2d60e41b81526001600160a01b03851690637b04a2d0906122dc90339087908790600401612efd565b6020604051808303816000875af1925050508015612317575060408051601f3d908101601f1916820190925261231491810190612dd2565b60015b6123c2573d808015612345576040519150601f19603f3d011682016040523d82523d6000602084013e61234a565b606091505b508051600003611eee5760405162461bcd60e51b815260206004820152603160248201527f455243313336333a20617070726f76652061206e6f6e2045524331333633537060448201527f656e64657220696d706c656d656e7465720000000000000000000000000000006064820152608401610a77565b6001600160e01b0319166307b04a2d60e41b14905061098c565b60006001600160e01b031982167f7965db0b0000000000000000000000000000000000000000000000000000000014806108c057507f01ffc9a7000000000000000000000000000000000000000000000000000000006001600160e01b03198316146108c0565b60008281526065602090815260408083206001600160a01b038516845290915290205460ff16610a8a576124768161259b565b6124818360206125ad565b604051602001612492929190612f25565b60408051601f198184030181529082905262461bcd60e51b8252610a779160040161299a565b6001600160a01b0381163b6125355760405162461bcd60e51b815260206004820152602d60248201527f455243313936373a206e657720696d706c656d656e746174696f6e206973206e60448201527f6f74206120636f6e7472616374000000000000000000000000000000000000006064820152608401610a77565b7f360894a13ba1a3210667c828492db98dca3e2076cc3735a920a3ca505d382bbc80546001600160a01b0319166001600160a01b0392909216919091179055565b61257f8361278e565b60008251118061258c5750805b156109dc5761188383836127ce565b60606108c06001600160a01b03831660145b606060006125bc836002612fa6565b6125c7906002612d57565b67ffffffffffffffff8111156125df576125df612a8f565b6040519080825280601f01601f191660200182016040528015612609576020820181803683370190505b5090507f30000000000000000000000000000000000000000000000000000000000000008160008151811061264057612640612fbd565b60200101906001600160f81b031916908160001a9053507f78000000000000000000000000000000000000000000000000000000000000008160018151811061268b5761268b612fbd565b60200101906001600160f81b031916908160001a90535060006126af846002612fa6565b6126ba906001612d57565b90505b600181111561273f577f303132333435363738396162636465660000000000000000000000000000000085600f16601081106126fb576126fb612fbd565b1a60f81b82828151811061271157612711612fbd565b60200101906001600160f81b031916908160001a90535060049490941c9361273881612fd3565b90506126bd565b50831561098c5760405162461bcd60e51b815260206004820181905260248201527f537472696e67733a20686578206c656e67746820696e73756666696369656e746044820152606401610a77565b612797816124b8565b6040516001600160a01b038216907fbc7cd75a20ee27fd9adebab32041f755214dbc6bffa90cc0225b39da2e5c2d3b90600090a250565b60606001600160a01b0383163b61284d5760405162461bcd60e51b815260206004820152602660248201527f416464726573733a2064656c65676174652063616c6c20746f206e6f6e2d636f60448201527f6e747261637400000000000000000000000000000000000000000000000000006064820152608401610a77565b600080846001600160a01b0316846040516128689190612fea565b600060405180830381855af49150503d80600081146128a3576040519150601f19603f3d011682016040523d82523d6000602084013e6128a8565b606091505b50915091506128d08282604051806060016040528060278152602001613007602791396128d9565b95945050505050565b606083156128e857508161098c565b61098c83838151156128fd5781518083602001fd5b8060405162461bcd60e51b8152600401610a77919061299a565b6001600160e01b031981168114610c0657600080fd5b60006020828403121561293f57600080fd5b813561098c81612917565b60005b8381101561296557818101518382015260200161294d565b50506000910152565b6000815180845261298681602086016020860161294a565b601f01601f19169290920160200192915050565b60208152600061098c602083018461296e565b80356001600160a01b03811681146129c457600080fd5b919050565b600080604083850312156129dc57600080fd5b6129e5836129ad565b946020939093013593505050565b600080600060608486031215612a0857600080fd5b612a11846129ad565b9250612a1f602085016129ad565b9150604084013590509250925092565b600060208284031215612a4157600080fd5b5035919050565b60008060408385031215612a5b57600080fd5b82359150612a6b602084016129ad565b90509250929050565b600060208284031215612a8657600080fd5b61098c826129ad565b634e487b7160e01b600052604160045260246000fd5b600082601f830112612ab657600080fd5b813567ffffffffffffffff80821115612ad157612ad1612a8f565b604051601f8301601f19908116603f01168101908282118183101715612af957612af9612a8f565b81604052838152866020858801011115612b1257600080fd5b836020870160208301376000602085830101528094505050505092915050565b600080600060608486031215612b4757600080fd5b612b50846129ad565b925060208401359150604084013567ffffffffffffffff811115612b7357600080fd5b612b7f86828701612aa5565b9150509250925092565b60008060408385031215612b9c57600080fd5b612ba5836129ad565b9150602083013567ffffffffffffffff811115612bc157600080fd5b612bcd85828601612aa5565b9150509250929050565b60008060008060008060c08789031215612bf057600080fd5b863567ffffffffffffffff80821115612c0857600080fd5b612c148a838b01612aa5565b97506020890135915080821115612c2a57600080fd5b50612c3789828a01612aa5565b95505060408701359350612c4d606088016129ad565b9250612c5b608088016129ad565b9150612c6960a088016129ad565b90509295509295509295565b60008060008060808587031215612c8b57600080fd5b612c94856129ad565b9350612ca2602086016129ad565b925060408501359150606085013567ffffffffffffffff811115612cc557600080fd5b612cd187828801612aa5565b91505092959194509250565b60008060408385031215612cf057600080fd5b612cf9836129ad565b9150612a6b602084016129ad565b600181811c90821680612d1b57607f821691505b602082108103612d3b57634e487b7160e01b600052602260045260246000fd5b50919050565b634e487b7160e01b600052601160045260246000fd5b808201808211156108c0576108c0612d41565b818103818111156108c0576108c0612d41565b600060208284031215612d8f57600080fd5b5051919050565b60006001600160a01b03808716835280861660208401525083604083015260806060830152612dc8608083018461296e565b9695505050505050565b600060208284031215612de457600080fd5b815161098c81612917565b601f8211156109dc57600081815260208120601f850160051c81016020861015612e165750805b601f850160051c820191505b81811015612e3557828155600101612e22565b505050505050565b815167ffffffffffffffff811115612e5757612e57612a8f565b612e6b81612e658454612d07565b84612def565b602080601f831160018114612ea05760008415612e885750858301515b600019600386901b1c1916600185901b178555612e35565b600085815260208120601f198616915b82811015612ecf57888601518255948401946001909101908401612eb0565b5085821015612eed5787850151600019600388901b60f8161c191681555b5050505050600190811b01905550565b6001600160a01b03841681528260208201526060604082015260006128d0606083018461296e565b7f416363657373436f6e74726f6c3a206163636f756e7420000000000000000000815260008351612f5d81601785016020880161294a565b7f206973206d697373696e6720726f6c65200000000000000000000000000000006017918401918201528351612f9a81602884016020880161294a565b01602801949350505050565b80820281158282048414176108c0576108c0612d41565b634e487b7160e01b600052603260045260246000fd5b600081612fe257612fe2612d41565b506000190190565b60008251612ffc81846020870161294a565b919091019291505056fe416464726573733a206c6f772d6c6576656c2064656c65676174652063616c6c206661696c6564a2646970667358221220e93f12572c20bd968b1cf10c748abb6c07e46a12dfe6d324e5d4526759c6eb9564736f6c63430008110033608060405234801561001057600080fd5b5060405161052f38038061052f83398101604081905261002f91610151565b61003833610047565b61004181610097565b50610181565b600080546001600160a01b038381166001600160a01b0319831681178455604051919092169283917f8be0079c531659141344cd1fd0a4f28419497f9722a3daafe3b4186f6b6457e09190a35050565b6100aa8161014260201b6101c71760201c565b6101205760405162461bcd60e51b815260206004820152603360248201527f5570677261646561626c65426561636f6e3a20696d706c656d656e746174696f60448201527f6e206973206e6f74206120636f6e747261637400000000000000000000000000606482015260840160405180910390fd5b600180546001600160a01b0319166001600160a01b0392909216919091179055565b6001600160a01b03163b151590565b60006020828403121561016357600080fd5b81516001600160a01b038116811461017a57600080fd5b9392505050565b61039f806101906000396000f3fe608060405234801561001057600080fd5b50600436106100675760003560e01c8063715018a611610050578063715018a6146100aa5780638da5cb5b146100b2578063f2fde38b146100c357600080fd5b80633659cfe61461006c5780635c60da1b14610081575b600080fd5b61007f61007a366004610339565b6100d6565b005b6001546001600160a01b03165b6040516001600160a01b03909116815260200160405180910390f35b61007f61011e565b6000546001600160a01b031661008e565b61007f6100d1366004610339565b610132565b6100de6101d6565b6100e781610230565b6040516001600160a01b038216907fbc7cd75a20ee27fd9adebab32041f755214dbc6bffa90cc0225b39da2e5c2d3b90600090a250565b6101266101d6565b61013060006102dc565b565b61013a6101d6565b6001600160a01b0381166101bb5760405162461bcd60e51b815260206004820152602660248201527f4f776e61626c653a206e6577206f776e657220697320746865207a65726f206160448201527f646472657373000000000000000000000000000000000000000000000000000060648201526084015b60405180910390fd5b6101c4816102dc565b50565b6001600160a01b03163b151590565b6000546001600160a01b031633146101305760405162461bcd60e51b815260206004820181905260248201527f4f776e61626c653a2063616c6c6572206973206e6f7420746865206f776e657260448201526064016101b2565b6001600160a01b0381163b6102ad5760405162461bcd60e51b815260206004820152603360248201527f5570677261646561626c65426561636f6e3a20696d706c656d656e746174696f60448201527f6e206973206e6f74206120636f6e74726163740000000000000000000000000060648201526084016101b2565b6001805473ffffffffffffffffffffffffffffffffffffffff19166001600160a01b0392909216919091179055565b600080546001600160a01b0383811673ffffffffffffffffffffffffffffffffffffffff19831681178455604051919092169283917f8be0079c531659141344cd1fd0a4f28419497f9722a3daafe3b4186f6b6457e09190a35050565b60006020828403121561034b57600080fd5b81356001600160a01b038116811461036257600080fd5b939250505056fea264697066735822122024ea026f3d3a44944a730c8a741b431e9b1049788fcc432e5b378f0299174f3d64736f6c63430008110033a2646970667358221220dbcb84e543f9f50621e0e6bd68b54762f7354d8d027c196454b646a18e2d9ac364736f6c63430008110033",
  "linkReferences": {},
  "deployedLinkReferences": {}
}