{
  "_format": "hh-sol-artifact-1",
  "contractName": "VirtualTAL",
  "sourceName": "contracts/season3/VirtualTAL.sol",
  "abi": [
    {
      "anonymous": false,
      "inputs": [
        {
          "indexed": false,
          "internalType": "address",
          "name": "owner",
          "type": "address"
        },
        {
          "indexed": false,
          "internalType": "uint256",
          "name": "amount",
          "type": "uint256"
        }
      ],
      "name": "AdminBurned",
      "type": "event"
    },
    {
      "anonymous": false,
      "inputs": [
        {
          "indexed": false,
          "internalType": "address",
          "name": "previousAdmin",
          "type": "address"
        },
        {
          "indexed": false,
          "internalType": "address",
          "name": "newAdmin",
          "type": "address"
        }
      ],
      "name": "AdminChanged",
      "type": "event"
    },
    {
      "anonymous": false,
      "inputs": [
        {
          "indexed": false,
          "internalType": "address",
          "name": "owner",
          "type": "address"
        },
        {
          "indexed": false,
          "internalType": "uint256",
          "name": "amount",
          "type": "uint256"
        }
      ],
      "name": "AdminMinted",
      "type": "event"
    },
    {
      "anonymous": false,
      "inputs": [
        {
          "indexed": true,
          "internalType": "address",
          "name": "owner",
          "type": "address"
        },
        {
          "indexed": true,
          "internalType": "address",
          "name": "spender",
          "type": "address"
        },
        {
          "indexed": false,
          "internalType": "uint256",
          "name": "value",
          "type": "uint256"
        }
      ],
      "name": "Approval",
      "type": "event"
    },
    {
      "anonymous": false,
      "inputs": [
        {
          "indexed": true,
          "internalType": "address",
          "name": "beacon",
          "type": "address"
        }
      ],
      "name": "BeaconUpgraded",
      "type": "event"
    },
    {
      "anonymous": false,
      "inputs": [
        {
          "indexed": false,
          "internalType": "uint8",
          "name": "version",
          "type": "uint8"
        }
      ],
      "name": "Initialized",
      "type": "event"
    },
    {
      "anonymous": false,
      "inputs": [
        {
          "indexed": true,
          "internalType": "bytes32",
          "name": "role",
          "type": "bytes32"
        },
        {
          "indexed": true,
          "internalType": "bytes32",
          "name": "previousAdminRole",
          "type": "bytes32"
        },
        {
          "indexed": true,
          "internalType": "bytes32",
          "name": "newAdminRole",
          "type": "bytes32"
        }
      ],
      "name": "RoleAdminChanged",
      "type": "event"
    },
    {
      "anonymous": false,
      "inputs": [
        {
          "indexed": true,
          "internalType": "bytes32",
          "name": "role",
          "type": "bytes32"
        },
        {
          "indexed": true,
          "internalType": "address",
          "name": "account",
          "type": "address"
        },
        {
          "indexed": true,
          "internalType": "address",
          "name": "sender",
          "type": "address"
        }
      ],
      "name": "RoleGranted",
      "type": "event"
    },
    {
      "anonymous": false,
      "inputs": [
        {
          "indexed": true,
          "internalType": "bytes32",
          "name": "role",
          "type": "bytes32"
        },
        {
          "indexed": true,
          "internalType": "address",
          "name": "account",
          "type": "address"
        },
        {
          "indexed": true,
          "internalType": "address",
          "name": "sender",
          "type": "address"
        }
      ],
      "name": "RoleRevoked",
      "type": "event"
    },
    {
      "anonymous": false,
      "inputs": [
        {
          "indexed": true,
          "internalType": "address",
          "name": "from",
          "type": "address"
        },
        {
          "indexed": true,
          "internalType": "address",
          "name": "to",
          "type": "address"
        },
        {
          "indexed": false,
          "internalType": "uint256",
          "name": "value",
          "type": "uint256"
        }
      ],
      "name": "Transfer",
      "type": "event"
    },
    {
      "anonymous": false,
      "inputs": [
        {
          "indexed": true,
          "internalType": "address",
          "name": "implementation",
          "type": "address"
        }
      ],
      "name": "Upgraded",
      "type": "event"
    },
    {
      "inputs": [],
      "name": "DEFAULT_ADMIN_ROLE",
      "outputs": [
        {
          "internalType": "bytes32",
          "name": "",
          "type": "bytes32"
        }
      ],
      "stateMutability": "view",
      "type": "function"
    },
    {
      "inputs": [
        {
          "internalType": "address",
          "name": "",
          "type": "address"
        }
      ],
      "name": "addressToTAL",
      "outputs": [
        {
          "internalType": "uint256",
          "name": "",
          "type": "uint256"
        }
      ],
      "stateMutability": "view",
      "type": "function"
    },
    {
      "inputs": [
        {
          "internalType": "address",
          "name": "_from",
          "type": "address"
        },
        {
          "internalType": "uint256",
          "name": "_amount",
          "type": "uint256"
        }
      ],
      "name": "adminBurn",
      "outputs": [],
      "stateMutability": "nonpayable",
      "type": "function"
    },
    {
      "inputs": [
        {
          "internalType": "address",
          "name": "_to",
          "type": "address"
        },
        {
          "internalType": "uint256",
          "name": "_amount",
          "type": "uint256"
        }
      ],
      "name": "adminMint",
      "outputs": [],
      "stateMutability": "nonpayable",
      "type": "function"
    },
    {
      "inputs": [
        {
          "internalType": "address",
          "name": "owner",
          "type": "address"
        },
        {
          "internalType": "address",
          "name": "spender",
          "type": "address"
        }
      ],
      "name": "allowance",
      "outputs": [
        {
          "internalType": "uint256",
          "name": "",
          "type": "uint256"
        }
      ],
      "stateMutability": "view",
      "type": "function"
    },
    {
      "inputs": [
        {
          "internalType": "address",
          "name": "spender",
          "type": "address"
        },
        {
          "internalType": "uint256",
          "name": "amount",
          "type": "uint256"
        }
      ],
      "name": "approve",
      "outputs": [
        {
          "internalType": "bool",
          "name": "",
          "type": "bool"
        }
      ],
      "stateMutability": "nonpayable",
      "type": "function"
    },
    {
      "inputs": [
        {
          "internalType": "address",
          "name": "spender",
          "type": "address"
        },
        {
          "internalType": "uint256",
          "name": "amount",
          "type": "uint256"
        }
      ],
      "name": "approveAndCall",
      "outputs": [
        {
          "internalType": "bool",
          "name": "",
          "type": "bool"
        }
      ],
      "stateMutability": "nonpayable",
      "type": "function"
    },
    {
      "inputs": [
        {
          "internalType": "address",
          "name": "spender",
          "type": "address"
        },
        {
          "internalType": "uint256",
          "name": "amount",
          "type": "uint256"
        },
        {
          "internalType": "bytes",
          "name": "data",
          "type": "bytes"
        }
      ],
      "name": "approveAndCall",
      "outputs": [
        {
          "internalType": "bool",
          "name": "",
          "type": "bool"
        }
      ],
      "stateMutability": "nonpayable",
      "type": "function"
    },
    {
      "inputs": [
        {
          "internalType": "address",
          "name": "account",
          "type": "address"
        }
      ],
      "name": "balanceOf",
      "outputs": [
        {
          "internalType": "uint256",
          "name": "",
          "type": "uint256"
        }
      ],
      "stateMutability": "view",
      "type": "function"
    },
    {
      "inputs": [],
      "name": "decimals",
      "outputs": [
        {
          "internalType": "uint8",
          "name": "",
          "type": "uint8"
        }
      ],
      "stateMutability": "view",
      "type": "function"
    },
    {
      "inputs": [
        {
          "internalType": "address",
          "name": "spender",
          "type": "address"
        },
        {
          "internalType": "uint256",
          "name": "subtractedValue",
          "type": "uint256"
        }
      ],
      "name": "decreaseAllowance",
      "outputs": [
        {
          "internalType": "bool",
          "name": "",
          "type": "bool"
        }
      ],
      "stateMutability": "nonpayable",
      "type": "function"
    },
    {
      "inputs": [
        {
          "internalType": "address",
          "name": "_owner",
          "type": "address"
        }
      ],
      "name": "getBalance",
      "outputs": [
        {
          "internalType": "uint256",
          "name": "",
          "type": "uint256"
        }
      ],
      "stateMutability": "view",
      "type": "function"
    },
    {
      "inputs": [
        {
          "internalType": "bytes32",
          "name": "role",
          "type": "bytes32"
        }
      ],
      "name": "getRoleAdmin",
      "outputs": [
        {
          "internalType": "bytes32",
          "name": "",
          "type": "bytes32"
        }
      ],
      "stateMutability": "view",
      "type": "function"
    },
    {
      "inputs": [
        {
          "internalType": "bytes32",
          "name": "role",
          "type": "bytes32"
        },
        {
          "internalType": "address",
          "name": "account",
          "type": "address"
        }
      ],
      "name": "grantRole",
      "outputs": [],
      "stateMutability": "nonpayable",
      "type": "function"
    },
    {
      "inputs": [
        {
          "internalType": "bytes32",
          "name": "role",
          "type": "bytes32"
        },
        {
          "internalType": "address",
          "name": "account",
          "type": "address"
        }
      ],
      "name": "hasRole",
      "outputs": [
        {
          "internalType": "bool",
          "name": "",
          "type": "bool"
        }
      ],
      "stateMutability": "view",
      "type": "function"
    },
    {
      "inputs": [
        {
          "internalType": "address",
          "name": "spender",
          "type": "address"
        },
        {
          "internalType": "uint256",
          "name": "addedValue",
          "type": "uint256"
        }
      ],
      "name": "increaseAllowance",
      "outputs": [
        {
          "internalType": "bool",
          "name": "",
          "type": "bool"
        }
      ],
      "stateMutability": "nonpayable",
      "type": "function"
    },
    {
      "inputs": [],
      "name": "initialize",
      "outputs": [],
      "stateMutability": "nonpayable",
      "type": "function"
    },
    {
      "inputs": [],
      "name": "name",
      "outputs": [
        {
          "internalType": "string",
          "name": "",
          "type": "string"
        }
      ],
      "stateMutability": "view",
      "type": "function"
    },
    {
      "inputs": [],
      "name": "proxiableUUID",
      "outputs": [
        {
          "internalType": "bytes32",
          "name": "",
          "type": "bytes32"
        }
      ],
      "stateMutability": "view",
      "type": "function"
    },
    {
      "inputs": [
        {
          "internalType": "bytes32",
          "name": "role",
          "type": "bytes32"
        },
        {
          "internalType": "address",
          "name": "account",
          "type": "address"
        }
      ],
      "name": "renounceRole",
      "outputs": [],
      "stateMutability": "nonpayable",
      "type": "function"
    },
    {
      "inputs": [
        {
          "internalType": "bytes32",
          "name": "role",
          "type": "bytes32"
        },
        {
          "internalType": "address",
          "name": "account",
          "type": "address"
        }
      ],
      "name": "revokeRole",
      "outputs": [],
      "stateMutability": "nonpayable",
      "type": "function"
    },
    {
      "inputs": [
        {
          "internalType": "address",
          "name": "_address",
          "type": "address"
        }
      ],
      "name": "setAdminRole",
      "outputs": [],
      "stateMutability": "nonpayable",
      "type": "function"
    },
    {
      "inputs": [
        {
          "internalType": "bytes4",
          "name": "interfaceId",
          "type": "bytes4"
        }
      ],
      "name": "supportsInterface",
      "outputs": [
        {
          "internalType": "bool",
          "name": "",
          "type": "bool"
        }
      ],
      "stateMutability": "view",
      "type": "function"
    },
    {
      "inputs": [],
      "name": "symbol",
      "outputs": [
        {
          "internalType": "string",
          "name": "",
          "type": "string"
        }
      ],
      "stateMutability": "view",
      "type": "function"
    },
    {
      "inputs": [],
      "name": "totalSupply",
      "outputs": [
        {
          "internalType": "uint256",
          "name": "",
          "type": "uint256"
        }
      ],
      "stateMutability": "view",
      "type": "function"
    },
    {
      "inputs": [
        {
          "internalType": "address",
          "name": "to",
          "type": "address"
        },
        {
          "internalType": "uint256",
          "name": "amount",
          "type": "uint256"
        }
      ],
      "name": "transfer",
      "outputs": [
        {
          "internalType": "bool",
          "name": "",
          "type": "bool"
        }
      ],
      "stateMutability": "nonpayable",
      "type": "function"
    },
    {
      "inputs": [
        {
          "internalType": "address",
          "name": "recipient",
          "type": "address"
        },
        {
          "internalType": "uint256",
          "name": "amount",
          "type": "uint256"
        }
      ],
      "name": "transferAndCall",
      "outputs": [
        {
          "internalType": "bool",
          "name": "",
          "type": "bool"
        }
      ],
      "stateMutability": "nonpayable",
      "type": "function"
    },
    {
      "inputs": [
        {
          "internalType": "address",
          "name": "recipient",
          "type": "address"
        },
        {
          "internalType": "uint256",
          "name": "amount",
          "type": "uint256"
        },
        {
          "internalType": "bytes",
          "name": "data",
          "type": "bytes"
        }
      ],
      "name": "transferAndCall",
      "outputs": [
        {
          "internalType": "bool",
          "name": "",
          "type": "bool"
        }
      ],
      "stateMutability": "nonpayable",
      "type": "function"
    },
    {
      "inputs": [
        {
          "internalType": "address",
          "name": "from",
          "type": "address"
        },
        {
          "internalType": "address",
          "name": "to",
          "type": "address"
        },
        {
          "internalType": "uint256",
          "name": "amount",
          "type": "uint256"
        }
      ],
      "name": "transferFrom",
      "outputs": [
        {
          "internalType": "bool",
          "name": "",
          "type": "bool"
        }
      ],
      "stateMutability": "nonpayable",
      "type": "function"
    },
    {
      "inputs": [
        {
          "internalType": "address",
          "name": "sender",
          "type": "address"
        },
        {
          "internalType": "address",
          "name": "recipient",
          "type": "address"
        },
        {
          "internalType": "uint256",
          "name": "amount",
          "type": "uint256"
        },
        {
          "internalType": "bytes",
          "name": "data",
          "type": "bytes"
        }
      ],
      "name": "transferFromAndCall",
      "outputs": [
        {
          "internalType": "bool",
          "name": "",
          "type": "bool"
        }
      ],
      "stateMutability": "nonpayable",
      "type": "function"
    },
    {
      "inputs": [
        {
          "internalType": "address",
          "name": "sender",
          "type": "address"
        },
        {
          "internalType": "address",
          "name": "recipient",
          "type": "address"
        },
        {
          "internalType": "uint256",
          "name": "amount",
          "type": "uint256"
        }
      ],
      "name": "transferFromAndCall",
      "outputs": [
        {
          "internalType": "bool",
          "name": "",
          "type": "bool"
        }
      ],
      "stateMutability": "nonpayable",
      "type": "function"
    },
    {
      "inputs": [
        {
          "internalType": "address",
          "name": "newImplementation",
          "type": "address"
        }
      ],
      "name": "upgradeTo",
      "outputs": [],
      "stateMutability": "nonpayable",
      "type": "function"
    },
    {
      "inputs": [
        {
          "internalType": "address",
          "name": "newImplementation",
          "type": "address"
        },
        {
          "internalType": "bytes",
          "name": "data",
          "type": "bytes"
        }
      ],
      "name": "upgradeToAndCall",
      "outputs": [],
      "stateMutability": "payable",
      "type": "function"
    }
  ],
  "bytecode": "0x60a06040523060805234801561001457600080fd5b5060805161299961004c600039600081816109bc01528181610a4101528181610bff01528181610c840152610d6a01526129996000f3fe6080604052600436106101fe5760003560e01c80634adc7cfd1161011d578063a457c2d7116100b0578063d547741f1161007f578063dd62ed3e11610064578063dd62ed3e146105f8578063e58306f91461063e578063f8b2cb4f1461065e57600080fd5b8063d547741f146105b8578063d8fbe994146105d857600080fd5b8063a457c2d714610538578063a9059cbb14610558578063c1d34b8914610578578063cae9ca511461059857600080fd5b80638129fc1c116100ec5780638129fc1c146104b357806391d14854146104c857806395d89b411461050e578063a217fddf1461052357600080fd5b80634adc7cfd146104355780634f1ef2861461045557806352d1902d1461046857806370a082311461047d57600080fd5b80632a65c4131161019557806336568abe1161016457806336568abe146103b55780633659cfe6146103d557806339509351146103f55780634000aea01461041557600080fd5b80632a65c4131461032b5780632f2ff15d14610359578063313ce567146103795780633177029f1461039557600080fd5b80631296ee62116101d15780631296ee621461029c57806318160ddd146102bc57806323b872dd146102db578063248a9ca3146102fb57600080fd5b806301ffc9a71461020357806306dd04191461023857806306fdde031461025a578063095ea7b31461027c575b600080fd5b34801561020f57600080fd5b5061022361021e366004612301565b610695565b60405190151581526020015b60405180910390f35b34801561024457600080fd5b5061025861025336600461233a565b6106f4565b005b34801561026657600080fd5b5061026f6107ef565b60405161022f91906123b4565b34801561028857600080fd5b5061022361029736600461233a565b610881565b3480156102a857600080fd5b506102236102b736600461233a565b610899565b3480156102c857600080fd5b506099545b60405190815260200161022f565b3480156102e757600080fd5b506102236102f63660046123c7565b6108bc565b34801561030757600080fd5b506102cd610316366004612403565b60009081526065602052604090206001015490565b34801561033757600080fd5b506102cd61034636600461241c565b61015e6020526000908152604090205481565b34801561036557600080fd5b50610258610374366004612437565b6108e0565b34801561038557600080fd5b506040516012815260200161022f565b3480156103a157600080fd5b506102236103b036600461233a565b61090a565b3480156103c157600080fd5b506102586103d0366004612437565b610926565b3480156103e157600080fd5b506102586103f036600461241c565b6109b2565b34801561040157600080fd5b5061022361041036600461233a565b610b2d565b34801561042157600080fd5b50610223610430366004612506565b610b6c565b34801561044157600080fd5b5061025861045036600461241c565b610bdf565b61025861046336600461255d565b610bf5565b34801561047457600080fd5b506102cd610d5d565b34801561048957600080fd5b506102cd61049836600461241c565b6001600160a01b031660009081526097602052604090205490565b3480156104bf57600080fd5b50610258610e22565b3480156104d457600080fd5b506102236104e3366004612437565b60009182526065602090815260408084206001600160a01b0393909316845291905290205460ff1690565b34801561051a57600080fd5b5061026f610fd0565b34801561052f57600080fd5b506102cd600081565b34801561054457600080fd5b5061022361055336600461233a565b610fdf565b34801561056457600080fd5b5061022361057336600461233a565b611089565b34801561058457600080fd5b506102236105933660046125ab565b611097565b3480156105a457600080fd5b506102236105b3366004612506565b611113565b3480156105c457600080fd5b506102586105d3366004612437565b61119c565b3480156105e457600080fd5b506102236105f33660046123c7565b6111c1565b34801561060457600080fd5b506102cd610613366004612613565b6001600160a01b03918216600090815260986020908152604080832093909416825291909152205490565b34801561064a57600080fd5b5061025861065936600461233a565b6111de565b34801561066a57600080fd5b506102cd61067936600461241c565b6001600160a01b0316600090815261015e602052604090205490565b60006001600160e01b031982167f36372b070000000000000000000000000000000000000000000000000000000014806106df57506001600160e01b0319821663b0202a1160e01b145b806106ee57506106ee82611262565b92915050565b60006106ff81611287565b6001600160a01b038316600090815261015e602052604090205482111561076d5760405162461bcd60e51b815260206004820152601960248201527f6e6f7420656e6f75676820616d6f756e7420746f206275726e0000000000000060448201526064015b60405180910390fd5b6001600160a01b038316600090815261015e6020526040902054610792908390612653565b6001600160a01b038416600081815261015e60209081526040918290209390935580519182529181018490527ffe762046e8788909c18a64333b5c748f160f1ea50f95fe43d56e9b6a0bdb274691015b60405180910390a1505050565b6060609a80546107fe90612666565b80601f016020809104026020016040519081016040528092919081815260200182805461082a90612666565b80156108775780601f1061084c57610100808354040283529160200191610877565b820191906000526020600020905b81548152906001019060200180831161085a57829003601f168201915b5050505050905090565b60003361088f818585611291565b5060019392505050565b60006108b5838360405180602001604052806000815250610b6c565b9392505050565b6000336108ca8582856113e9565b6108d585858561147b565b506001949350505050565b6000828152606560205260409020600101546108fb81611287565b610905838361166f565b505050565b60006108b5838360405180602001604052806000815250611113565b6001600160a01b03811633146109a45760405162461bcd60e51b815260206004820152602f60248201527f416363657373436f6e74726f6c3a2063616e206f6e6c792072656e6f756e636560448201527f20726f6c657320666f722073656c6600000000000000000000000000000000006064820152608401610764565b6109ae8282611711565b5050565b6001600160a01b037f0000000000000000000000000000000000000000000000000000000000000000163003610a3f5760405162461bcd60e51b815260206004820152602c60248201527f46756e6374696f6e206d7573742062652063616c6c6564207468726f7567682060448201526b19195b1959d85d1958d85b1b60a21b6064820152608401610764565b7f00000000000000000000000000000000000000000000000000000000000000006001600160a01b0316610a9a7f360894a13ba1a3210667c828492db98dca3e2076cc3735a920a3ca505d382bbc546001600160a01b031690565b6001600160a01b031614610b055760405162461bcd60e51b815260206004820152602c60248201527f46756e6374696f6e206d7573742062652063616c6c6564207468726f7567682060448201526b6163746976652070726f787960a01b6064820152608401610764565b610b0e81611794565b60408051600080825260208201909252610b2a9183919061179f565b50565b3360008181526098602090815260408083206001600160a01b038716845290915281205490919061088f9082908690610b679087906126a0565b611291565b6000610b788484611089565b50610b853385858561193f565b61088f5760405162461bcd60e51b815260206004820152602560248201527f455243313336333a2072656365697665722072657475726e65642077726f6e67604482015264206461746160d81b6064820152608401610764565b6000610bea81611287565b6109ae60008361166f565b6001600160a01b037f0000000000000000000000000000000000000000000000000000000000000000163003610c825760405162461bcd60e51b815260206004820152602c60248201527f46756e6374696f6e206d7573742062652063616c6c6564207468726f7567682060448201526b19195b1959d85d1958d85b1b60a21b6064820152608401610764565b7f00000000000000000000000000000000000000000000000000000000000000006001600160a01b0316610cdd7f360894a13ba1a3210667c828492db98dca3e2076cc3735a920a3ca505d382bbc546001600160a01b031690565b6001600160a01b031614610d485760405162461bcd60e51b815260206004820152602c60248201527f46756e6374696f6e206d7573742062652063616c6c6564207468726f7567682060448201526b6163746976652070726f787960a01b6064820152608401610764565b610d5182611794565b6109ae8282600161179f565b6000306001600160a01b037f00000000000000000000000000000000000000000000000000000000000000001614610dfd5760405162461bcd60e51b815260206004820152603860248201527f555550535570677261646561626c653a206d757374206e6f742062652063616c60448201527f6c6564207468726f7567682064656c656761746563616c6c00000000000000006064820152608401610764565b507f360894a13ba1a3210667c828492db98dca3e2076cc3735a920a3ca505d382bbc90565b600054610100900460ff1615808015610e425750600054600160ff909116105b80610e5c5750303b158015610e5c575060005460ff166001145b610ece5760405162461bcd60e51b815260206004820152602e60248201527f496e697469616c697a61626c653a20636f6e747261637420697320616c72656160448201527f647920696e697469616c697a65640000000000000000000000000000000000006064820152608401610764565b6000805460ff191660011790558015610ef1576000805461ff0019166101001790555b610ef9611af8565b610f01611af8565b610f09611af8565b610f7d6040518060400160405280600b81526020017f5669727475616c2054414c0000000000000000000000000000000000000000008152506040518060400160405280600481526020017f7654414c00000000000000000000000000000000000000000000000000000000815250611b65565b610f8860003361166f565b8015610b2a576000805461ff0019169055604051600181527f7f26b83ff96e1f2b6a682f133852f6798a09c465da95921460cefb38474024989060200160405180910390a150565b6060609b80546107fe90612666565b3360008181526098602090815260408083206001600160a01b03871684529091528120549091908381101561107c5760405162461bcd60e51b815260206004820152602560248201527f45524332303a2064656372656173656420616c6c6f77616e63652062656c6f7760448201527f207a65726f0000000000000000000000000000000000000000000000000000006064820152608401610764565b6108d58286868403611291565b60003361088f81858561147b565b60006110a48585856108bc565b506110b18585858561193f565b6108d55760405162461bcd60e51b815260206004820152602560248201527f455243313336333a2072656365697665722072657475726e65642077726f6e67604482015264206461746160d81b6064820152608401610764565b949350505050565b600061111f8484610881565b5061112b848484611be9565b61088f5760405162461bcd60e51b8152602060048201526024808201527f455243313336333a207370656e6465722072657475726e65642077726f6e672060448201527f64617461000000000000000000000000000000000000000000000000000000006064820152608401610764565b6000828152606560205260409020600101546111b781611287565b6109058383611711565b600061110b84848460405180602001604052806000815250611097565b60006111e981611287565b6001600160a01b038316600090815261015e602052604090205461120e9083906126a0565b6001600160a01b038416600081815261015e60209081526040918290209390935580519182529181018490527fb95721a138d27da82cf85d0a1081e8753ff7229d98779aaf27125068c1d5f90a91016107e2565b60006001600160e01b0319821663b0202a1160e01b14806106ee57506106ee82611d98565b610b2a8133611dff565b6001600160a01b03831661130c5760405162461bcd60e51b8152602060048201526024808201527f45524332303a20617070726f76652066726f6d20746865207a65726f2061646460448201527f72657373000000000000000000000000000000000000000000000000000000006064820152608401610764565b6001600160a01b0382166113885760405162461bcd60e51b815260206004820152602260248201527f45524332303a20617070726f766520746f20746865207a65726f20616464726560448201527f73730000000000000000000000000000000000000000000000000000000000006064820152608401610764565b6001600160a01b0383811660008181526098602090815260408083209487168084529482529182902085905590518481527f8c5be1e5ebec7d5bd14f71427d1e84f3dd0314c0f7b2291e5b200ac8c7c3b925910160405180910390a3505050565b6001600160a01b03838116600090815260986020908152604080832093861683529290522054600019811461147557818110156114685760405162461bcd60e51b815260206004820152601d60248201527f45524332303a20696e73756666696369656e7420616c6c6f77616e63650000006044820152606401610764565b6114758484848403611291565b50505050565b6001600160a01b0383166114f75760405162461bcd60e51b815260206004820152602560248201527f45524332303a207472616e736665722066726f6d20746865207a65726f20616460448201527f64726573730000000000000000000000000000000000000000000000000000006064820152608401610764565b6001600160a01b0382166115735760405162461bcd60e51b815260206004820152602360248201527f45524332303a207472616e7366657220746f20746865207a65726f206164647260448201527f65737300000000000000000000000000000000000000000000000000000000006064820152608401610764565b6001600160a01b038316600090815260976020526040902054818110156116025760405162461bcd60e51b815260206004820152602660248201527f45524332303a207472616e7366657220616d6f756e742065786365656473206260448201527f616c616e636500000000000000000000000000000000000000000000000000006064820152608401610764565b6001600160a01b0380851660008181526097602052604080822086860390559286168082529083902080548601905591517fddf252ad1be2c89b69c2b068fc378daa952ba7f163c4a11628f55a4df523b3ef906116629086815260200190565b60405180910390a3611475565b60008281526065602090815260408083206001600160a01b038516845290915290205460ff166109ae5760008281526065602090815260408083206001600160a01b03851684529091529020805460ff191660011790556116cd3390565b6001600160a01b0316816001600160a01b0316837f2f8788117e7eff1d82e926ec794901d17c78024a50270940304540a733656f0d60405160405180910390a45050565b60008281526065602090815260408083206001600160a01b038516845290915290205460ff16156109ae5760008281526065602090815260408083206001600160a01b0385168085529252808320805460ff1916905551339285917ff6391f5c32d9c69d2a47ea670b442974b53935d1edc7fd64eb21e047a839171b9190a45050565b60006109ae81611287565b7f4910fdfa16fed3260ed0e7147f7cc6da11a60208b5b9406d12a635614ffd91435460ff16156117d25761090583611e74565b826001600160a01b03166352d1902d6040518163ffffffff1660e01b8152600401602060405180830381865afa92505050801561182c575060408051601f3d908101601f19168201909252611829918101906126b3565b60015b61189e5760405162461bcd60e51b815260206004820152602e60248201527f45524331393637557067726164653a206e657720696d706c656d656e7461746960448201527f6f6e206973206e6f7420555550530000000000000000000000000000000000006064820152608401610764565b7f360894a13ba1a3210667c828492db98dca3e2076cc3735a920a3ca505d382bbc81146119335760405162461bcd60e51b815260206004820152602960248201527f45524331393637557067726164653a20756e737570706f727465642070726f7860448201527f6961626c655555494400000000000000000000000000000000000000000000006064820152608401610764565b50610905838383611f4a565b60006001600160a01b0384163b6119be5760405162461bcd60e51b815260206004820152602960248201527f455243313336333a207472616e7366657220746f206e6f6e20636f6e7472616360448201527f74206164647265737300000000000000000000000000000000000000000000006064820152608401610764565b604051632229f29760e21b81526001600160a01b038516906388a7ca5c906119f09033908990889088906004016126cc565b6020604051808303816000875af1925050508015611a2b575060408051601f3d908101601f19168201909252611a2891810190612708565b60015b611ade573d808015611a59576040519150601f19603f3d011682016040523d82523d6000602084013e611a5e565b606091505b508051600003611ad65760405162461bcd60e51b815260206004820152603460248201527f455243313336333a207472616e7366657220746f206e6f6e204552433133363360448201527f526563656976657220696d706c656d656e7465720000000000000000000000006064820152608401610764565b805181602001fd5b6001600160e01b031916632229f29760e21b14905061110b565b600054610100900460ff16611b635760405162461bcd60e51b815260206004820152602b60248201527f496e697469616c697a61626c653a20636f6e7472616374206973206e6f74206960448201526a6e697469616c697a696e6760a81b6064820152608401610764565b565b600054610100900460ff16611bd05760405162461bcd60e51b815260206004820152602b60248201527f496e697469616c697a61626c653a20636f6e7472616374206973206e6f74206960448201526a6e697469616c697a696e6760a81b6064820152608401610764565b609a611bdc8382612773565b50609b6109058282612773565b60006001600160a01b0384163b611c685760405162461bcd60e51b815260206004820152602760248201527f455243313336333a20617070726f76652061206e6f6e20636f6e74726163742060448201527f61646472657373000000000000000000000000000000000000000000000000006064820152608401610764565b6040516307b04a2d60e41b81526001600160a01b03851690637b04a2d090611c9890339087908790600401612833565b6020604051808303816000875af1925050508015611cd3575060408051601f3d908101601f19168201909252611cd091810190612708565b60015b611d7e573d808015611d01576040519150601f19603f3d011682016040523d82523d6000602084013e611d06565b606091505b508051600003611ad65760405162461bcd60e51b815260206004820152603160248201527f455243313336333a20617070726f76652061206e6f6e2045524331333633537060448201527f656e64657220696d706c656d656e7465720000000000000000000000000000006064820152608401610764565b6001600160e01b0319166307b04a2d60e41b1490506108b5565b60006001600160e01b031982167f7965db0b0000000000000000000000000000000000000000000000000000000014806106ee57507f01ffc9a7000000000000000000000000000000000000000000000000000000006001600160e01b03198316146106ee565b60008281526065602090815260408083206001600160a01b038516845290915290205460ff166109ae57611e3281611f6f565b611e3d836020611f81565b604051602001611e4e92919061285b565b60408051601f198184030181529082905262461bcd60e51b8252610764916004016123b4565b6001600160a01b0381163b611ef15760405162461bcd60e51b815260206004820152602d60248201527f455243313936373a206e657720696d706c656d656e746174696f6e206973206e60448201527f6f74206120636f6e7472616374000000000000000000000000000000000000006064820152608401610764565b7f360894a13ba1a3210667c828492db98dca3e2076cc3735a920a3ca505d382bbc80547fffffffffffffffffffffffff0000000000000000000000000000000000000000166001600160a01b0392909216919091179055565b611f5383612162565b600082511180611f605750805b156109055761147583836121a2565b60606106ee6001600160a01b03831660145b60606000611f908360026128dc565b611f9b9060026126a0565b67ffffffffffffffff811115611fb357611fb3612463565b6040519080825280601f01601f191660200182016040528015611fdd576020820181803683370190505b5090507f300000000000000000000000000000000000000000000000000000000000000081600081518110612014576120146128f3565b60200101906001600160f81b031916908160001a9053507f78000000000000000000000000000000000000000000000000000000000000008160018151811061205f5761205f6128f3565b60200101906001600160f81b031916908160001a90535060006120838460026128dc565b61208e9060016126a0565b90505b6001811115612113577f303132333435363738396162636465660000000000000000000000000000000085600f16601081106120cf576120cf6128f3565b1a60f81b8282815181106120e5576120e56128f3565b60200101906001600160f81b031916908160001a90535060049490941c9361210c81612909565b9050612091565b5083156108b55760405162461bcd60e51b815260206004820181905260248201527f537472696e67733a20686578206c656e67746820696e73756666696369656e746044820152606401610764565b61216b81611e74565b6040516001600160a01b038216907fbc7cd75a20ee27fd9adebab32041f755214dbc6bffa90cc0225b39da2e5c2d3b90600090a250565b60606001600160a01b0383163b6122215760405162461bcd60e51b815260206004820152602660248201527f416464726573733a2064656c65676174652063616c6c20746f206e6f6e2d636f60448201527f6e747261637400000000000000000000000000000000000000000000000000006064820152608401610764565b600080846001600160a01b03168460405161223c9190612920565b600060405180830381855af49150503d8060008114612277576040519150601f19603f3d011682016040523d82523d6000602084013e61227c565b606091505b50915091506122a4828260405180606001604052806027815260200161293d602791396122ad565b95945050505050565b606083156122bc5750816108b5565b6108b583838151156122d15781518083602001fd5b8060405162461bcd60e51b815260040161076491906123b4565b6001600160e01b031981168114610b2a57600080fd5b60006020828403121561231357600080fd5b81356108b5816122eb565b80356001600160a01b038116811461233557600080fd5b919050565b6000806040838503121561234d57600080fd5b6123568361231e565b946020939093013593505050565b60005b8381101561237f578181015183820152602001612367565b50506000910152565b600081518084526123a0816020860160208601612364565b601f01601f19169290920160200192915050565b6020815260006108b56020830184612388565b6000806000606084860312156123dc57600080fd5b6123e58461231e565b92506123f36020850161231e565b9150604084013590509250925092565b60006020828403121561241557600080fd5b5035919050565b60006020828403121561242e57600080fd5b6108b58261231e565b6000806040838503121561244a57600080fd5b8235915061245a6020840161231e565b90509250929050565b634e487b7160e01b600052604160045260246000fd5b600082601f83011261248a57600080fd5b813567ffffffffffffffff808211156124a5576124a5612463565b604051601f8301601f19908116603f011681019082821181831017156124cd576124cd612463565b816040528381528660208588010111156124e657600080fd5b836020870160208301376000602085830101528094505050505092915050565b60008060006060848603121561251b57600080fd5b6125248461231e565b925060208401359150604084013567ffffffffffffffff81111561254757600080fd5b61255386828701612479565b9150509250925092565b6000806040838503121561257057600080fd5b6125798361231e565b9150602083013567ffffffffffffffff81111561259557600080fd5b6125a185828601612479565b9150509250929050565b600080600080608085870312156125c157600080fd5b6125ca8561231e565b93506125d86020860161231e565b925060408501359150606085013567ffffffffffffffff8111156125fb57600080fd5b61260787828801612479565b91505092959194509250565b6000806040838503121561262657600080fd5b61262f8361231e565b915061245a6020840161231e565b634e487b7160e01b600052601160045260246000fd5b818103818111156106ee576106ee61263d565b600181811c9082168061267a57607f821691505b60208210810361269a57634e487b7160e01b600052602260045260246000fd5b50919050565b808201808211156106ee576106ee61263d565b6000602082840312156126c557600080fd5b5051919050565b60006001600160a01b038087168352808616602084015250836040830152608060608301526126fe6080830184612388565b9695505050505050565b60006020828403121561271a57600080fd5b81516108b5816122eb565b601f82111561090557600081815260208120601f850160051c8101602086101561274c5750805b601f850160051c820191505b8181101561276b57828155600101612758565b505050505050565b815167ffffffffffffffff81111561278d5761278d612463565b6127a18161279b8454612666565b84612725565b602080601f8311600181146127d657600084156127be5750858301515b600019600386901b1c1916600185901b17855561276b565b600085815260208120601f198616915b82811015612805578886015182559484019460019091019084016127e6565b50858210156128235787850151600019600388901b60f8161c191681555b5050505050600190811b01905550565b6001600160a01b03841681528260208201526060604082015260006122a46060830184612388565b7f416363657373436f6e74726f6c3a206163636f756e7420000000000000000000815260008351612893816017850160208801612364565b7f206973206d697373696e6720726f6c652000000000000000000000000000000060179184019182015283516128d0816028840160208801612364565b01602801949350505050565b80820281158282048414176106ee576106ee61263d565b634e487b7160e01b600052603260045260246000fd5b6000816129185761291861263d565b506000190190565b60008251612932818460208701612364565b919091019291505056fe416464726573733a206c6f772d6c6576656c2064656c65676174652063616c6c206661696c6564a264697066735822122013f8ac9b2bec2b1298b627801184fa4f63b6c68417cac52c07c217c0a7ea068664736f6c63430008110033",
  "linkReferences": {},
  "deployedLinkReferences": {}
}