{
  "_format": "hh-sol-artifact-1",
  "contractName": "TalentSponsorship",
  "sourceName": "contracts/season3/TalentSponsorship.sol",
  "abi": [
    {
      "inputs": [
        {
          "internalType": "address",
          "name": "contractOwner",
          "type": "address"
        }
      ],
      "stateMutability": "nonpayable",
      "type": "constructor"
    },
    {
      "anonymous": false,
      "inputs": [
        {
          "indexed": true,
          "internalType": "address",
          "name": "previousOwner",
          "type": "address"
        },
        {
          "indexed": true,
          "internalType": "address",
          "name": "newOwner",
          "type": "address"
        }
      ],
      "name": "OwnershipTransferred",
      "type": "event"
    },
    {
      "anonymous": false,
      "inputs": [
        {
          "indexed": true,
          "internalType": "address",
          "name": "sponsor",
          "type": "address"
        },
        {
          "indexed": true,
          "internalType": "address",
          "name": "talent",
          "type": "address"
        },
        {
          "indexed": false,
          "internalType": "uint256",
          "name": "amount",
          "type": "uint256"
        },
        {
          "indexed": true,
          "internalType": "address",
          "name": "token",
          "type": "address"
        },
        {
          "indexed": false,
          "internalType": "string",
          "name": "symbol",
          "type": "string"
        }
      ],
      "name": "SponsorshipCreated",
      "type": "event"
    },
    {
      "anonymous": false,
      "inputs": [
        {
          "indexed": true,
          "internalType": "address",
          "name": "sponsor",
          "type": "address"
        },
        {
          "indexed": true,
          "internalType": "address",
          "name": "talent",
          "type": "address"
        },
        {
          "indexed": false,
          "internalType": "uint256",
          "name": "amount",
          "type": "uint256"
        },
        {
          "indexed": true,
          "internalType": "address",
          "name": "token",
          "type": "address"
        },
        {
          "indexed": false,
          "internalType": "string",
          "name": "symbol",
          "type": "string"
        }
      ],
      "name": "SponsorshipRevoked",
      "type": "event"
    },
    {
      "anonymous": false,
      "inputs": [
        {
          "indexed": true,
          "internalType": "address",
          "name": "sponsor",
          "type": "address"
        },
        {
          "indexed": true,
          "internalType": "address",
          "name": "talent",
          "type": "address"
        },
        {
          "indexed": false,
          "internalType": "uint256",
          "name": "amount",
          "type": "uint256"
        },
        {
          "indexed": true,
          "internalType": "address",
          "name": "token",
          "type": "address"
        },
        {
          "indexed": false,
          "internalType": "string",
          "name": "symbol",
          "type": "string"
        }
      ],
      "name": "Withdraw",
      "type": "event"
    },
    {
      "inputs": [
        {
          "internalType": "address",
          "name": "_token",
          "type": "address"
        }
      ],
      "name": "amountAvailable",
      "outputs": [
        {
          "internalType": "uint256",
          "name": "",
          "type": "uint256"
        }
      ],
      "stateMutability": "view",
      "type": "function"
    },
    {
      "inputs": [
        {
          "internalType": "address",
          "name": "",
          "type": "address"
        },
        {
          "internalType": "address",
          "name": "",
          "type": "address"
        },
        {
          "internalType": "address",
          "name": "",
          "type": "address"
        }
      ],
      "name": "amountAvailableForSponsorship",
      "outputs": [
        {
          "internalType": "uint256",
          "name": "",
          "type": "uint256"
        }
      ],
      "stateMutability": "view",
      "type": "function"
    },
    {
      "inputs": [
        {
          "internalType": "address",
          "name": "",
          "type": "address"
        },
        {
          "internalType": "address",
          "name": "",
          "type": "address"
        }
      ],
      "name": "amountAvailableForTalent",
      "outputs": [
        {
          "internalType": "uint256",
          "name": "",
          "type": "uint256"
        }
      ],
      "stateMutability": "view",
      "type": "function"
    },
    {
      "inputs": [],
      "name": "disable",
      "outputs": [],
      "stateMutability": "nonpayable",
      "type": "function"
    },
    {
      "inputs": [],
      "name": "enable",
      "outputs": [],
      "stateMutability": "nonpayable",
      "type": "function"
    },
    {
      "inputs": [],
      "name": "enabled",
      "outputs": [
        {
          "internalType": "bool",
          "name": "",
          "type": "bool"
        }
      ],
      "stateMutability": "view",
      "type": "function"
    },
    {
      "inputs": [],
      "name": "owner",
      "outputs": [
        {
          "internalType": "address",
          "name": "",
          "type": "address"
        }
      ],
      "stateMutability": "view",
      "type": "function"
    },
    {
      "inputs": [],
      "name": "renounceOwnership",
      "outputs": [],
      "stateMutability": "nonpayable",
      "type": "function"
    },
    {
      "inputs": [
        {
          "internalType": "address",
          "name": "_talent",
          "type": "address"
        },
        {
          "internalType": "address",
          "name": "_token",
          "type": "address"
        }
      ],
      "name": "revokeSponsor",
      "outputs": [],
      "stateMutability": "nonpayable",
      "type": "function"
    },
    {
      "inputs": [
        {
          "internalType": "address",
          "name": "_talent",
          "type": "address"
        },
        {
          "internalType": "uint256",
          "name": "_amount",
          "type": "uint256"
        },
        {
          "internalType": "address",
          "name": "_token",
          "type": "address"
        }
      ],
      "name": "sponsor",
      "outputs": [],
      "stateMutability": "nonpayable",
      "type": "function"
    },
    {
      "inputs": [
        {
          "internalType": "address",
          "name": "",
          "type": "address"
        },
        {
          "internalType": "address",
          "name": "",
          "type": "address"
        },
        {
          "internalType": "address",
          "name": "",
          "type": "address"
        }
      ],
      "name": "sponsorships",
      "outputs": [
        {
          "internalType": "uint256",
          "name": "",
          "type": "uint256"
        }
      ],
      "stateMutability": "view",
      "type": "function"
    },
    {
      "inputs": [],
      "name": "totalClaimedSponsorships",
      "outputs": [
        {
          "internalType": "uint256",
          "name": "",
          "type": "uint256"
        }
      ],
      "stateMutability": "view",
      "type": "function"
    },
    {
      "inputs": [],
      "name": "totalRevokedSponsorships",
      "outputs": [
        {
          "internalType": "uint256",
          "name": "",
          "type": "uint256"
        }
      ],
      "stateMutability": "view",
      "type": "function"
    },
    {
      "inputs": [],
      "name": "totalSponsorships",
      "outputs": [
        {
          "internalType": "uint256",
          "name": "",
          "type": "uint256"
        }
      ],
      "stateMutability": "view",
      "type": "function"
    },
    {
      "inputs": [
        {
          "internalType": "address",
          "name": "newOwner",
          "type": "address"
        }
      ],
      "name": "transferOwnership",
      "outputs": [],
      "stateMutability": "nonpayable",
      "type": "function"
    },
    {
      "inputs": [
        {
          "internalType": "address",
          "name": "_sponsor",
          "type": "address"
        },
        {
          "internalType": "address",
          "name": "_token",
          "type": "address"
        }
      ],
      "name": "withdrawToken",
      "outputs": [],
      "stateMutability": "nonpayable",
      "type": "function"
    }
  ],
  "bytecode": "0x60806040526007805460ff191660011790553480156200001e57600080fd5b50604051620018a1380380620018a183398101604081905262000041916200018f565b6200004c336200005e565b6200005781620000ae565b50620001c1565b600080546001600160a01b038381166001600160a01b0319831681178455604051919092169283917f8be0079c531659141344cd1fd0a4f28419497f9722a3daafe3b4186f6b6457e09190a35050565b620000b862000131565b6001600160a01b038116620001235760405162461bcd60e51b815260206004820152602660248201527f4f776e61626c653a206e6577206f776e657220697320746865207a65726f206160448201526564647265737360d01b60648201526084015b60405180910390fd5b6200012e816200005e565b50565b6000546001600160a01b031633146200018d5760405162461bcd60e51b815260206004820181905260248201527f4f776e61626c653a2063616c6c6572206973206e6f7420746865206f776e657260448201526064016200011a565b565b600060208284031215620001a257600080fd5b81516001600160a01b0381168114620001ba57600080fd5b9392505050565b6116d080620001d16000396000f3fe608060405234801561001057600080fd5b50600436106101005760003560e01c806377571f4211610097578063adc7f9fa11610066578063adc7f9fa14610212578063d5be3a9c1461023d578063f2fde38b14610250578063fcd27e081461026357600080fd5b806377571f42146101b05780638da5cb5b146101b95780639c60b07e146101d4578063a3907d711461020a57600080fd5b80635c88318e116100d35780635c88318e146101835780635ea6929114610196578063715018a61461019f5780637315ab50146101a757600080fd5b8063238dafe0146101055780632f2770db146101275780633aeac4e11461013157806343da34a214610144575b600080fd5b6007546101129060ff1681565b60405190151581526020015b60405180910390f35b61012f610294565b005b61012f61013f366004611408565b6102ff565b61017561015236600461143b565b600160209081526000938452604080852082529284528284209052825290205481565b60405190815260200161011e565b61012f610191366004611408565b6106b1565b61017560055481565b61012f610a31565b61017560045481565b61017560065481565b6000546040516001600160a01b03909116815260200161011e565b6101756101e236600461147e565b3360009081526003602090815260408083206001600160a01b03949094168352929052205490565b61012f610a45565b610175610220366004611408565b600360209081526000928352604080842090915290825290205481565b61012f61024b366004611499565b610a5c565b61012f61025e36600461147e565b610ee8565b61017561027136600461143b565b600260209081526000938452604080852082529284528284209052825290205481565b60075460ff166102eb5760405162461bcd60e51b815260206004820152601960248201527f54686520636f6e74726163742069732064697361626c65642e0000000000000060448201526064015b60405180910390fd5b6102f3610f78565b6007805460ff19169055565b6001600160a01b0382166103555760405162461bcd60e51b815260206004820152600f60248201527f496e76616c69642073706f6e736f72000000000000000000000000000000000060448201526064016102e2565b6001600160a01b03811661039b5760405162461bcd60e51b815260206004820152600d60248201526c24b73b30b634b2103a37b5b2b760991b60448201526064016102e2565b6001600160a01b03808316600090815260026020908152604080832033845282528083209385168352929052205461043b5760405162461bcd60e51b815260206004820152602660248201527f546865726520617265206e6f2066756e647320666f7220796f7520746f20726560448201527f747269657665000000000000000000000000000000000000000000000000000060648201526084016102e2565b6001600160a01b038281166000908152600260209081526040808320338452825280832093851680845293909152908190205490516370a0823160e01b8152306004820152909182916370a0823190602401602060405180830381865afa1580156104aa573d6000803e3d6000fd5b505050506040513d601f19601f820116820180604052508101906104ce91906114cc565b101561051c5760405162461bcd60e51b815260206004820152601c60248201527f4e6f7420656e6f7567682066756e6473206f6e20636f6e74726163740000000060448201526064016102e2565b6105296006546001610fd2565b6006556001600160a01b0380841660009081526002602090815260408083203384528252808320938616835292905220546105649082610fe7565b6001600160a01b0380851660009081526002602090815260408083203380855290835281842094881680855294835281842095909555938252600381528382209282529190915220546105b79082610fe7565b3360008181526003602090815260408083206001600160a01b0388168085529252909120929092556105ea919083610ff3565b6000826001600160a01b03166395d89b416040518163ffffffff1660e01b8152600401600060405180830381865afa15801561062a573d6000803e3d6000fd5b505050506040513d6000823e601f3d908101601f19168201604052610652919081019061151f565b9050826001600160a01b0316336001600160a01b0316856001600160a01b03167f9aadbfee3fb24d13fe1354828069fdaa549c3dba8af6113987fe93a359a8220185856040516106a39291906115ed565b60405180910390a450505050565b6001600160a01b0382166107075760405162461bcd60e51b815260206004820152600e60248201527f496e76616c69642074616c656e7400000000000000000000000000000000000060448201526064016102e2565b6001600160a01b03811661074d5760405162461bcd60e51b815260206004820152600d60248201526c24b73b30b634b2103a37b5b2b760991b60448201526064016102e2565b3360009081526002602090815260408083206001600160a01b0386811685529083528184209085168452909152902054806107f05760405162461bcd60e51b815260206004820152602860248201527f54686572652773206e6f2070656e64696e672073706f6e736f7273686970207460448201527f6f207265766f6b6500000000000000000000000000000000000000000000000060648201526084016102e2565b6040516370a0823160e01b815230600482015281906001600160a01b038416906370a0823190602401602060405180830381865afa158015610836573d6000803e3d6000fd5b505050506040513d601f19601f8201168201806040525081019061085a91906114cc565b10156108a85760405162461bcd60e51b815260206004820152601e60248201527f4e6f7420656e6f7567682062616c616e6365206f6e20636f6e7472616374000060448201526064016102e2565b6108b56005546001610fd2565b6005556001600160a01b038084166000908152600360209081526040808320938616835292905220546108e89082610fe7565b6001600160a01b038085166000818152600360209081526040808320948816808452948252808320959095553382526002815284822092825291825283812092815291905220546109399082610fe7565b3360008181526002602090815260408083206001600160a01b038981168552908352818420908816808552925290912092909255610978919083610ff3565b6000826001600160a01b03166395d89b416040518163ffffffff1660e01b8152600401600060405180830381865afa1580156109b8573d6000803e3d6000fd5b505050506040513d6000823e601f3d908101601f191682016040526109e0919081019061151f565b9050826001600160a01b0316846001600160a01b0316336001600160a01b03167fc4bbe1204408f15c52ed42b367cb4493467907e6b80f5cbfb434c40d71e9ae4685856040516106a39291906115ed565b610a39610f78565b610a4360006110a1565b565b610a4d610f78565b6007805460ff19166001179055565b60075460ff16610aae5760405162461bcd60e51b815260206004820152601960248201527f54686520636f6e74726163742069732064697361626c65642e0000000000000060448201526064016102e2565b6001600160a01b038316610b045760405162461bcd60e51b815260206004820152600e60248201527f496e76616c69642074616c656e7400000000000000000000000000000000000060448201526064016102e2565b60008211610b545760405162461bcd60e51b815260206004820152600e60248201527f496e76616c696420616d6f756e7400000000000000000000000000000000000060448201526064016102e2565b6040516370a0823160e01b815233600482015282906001600160a01b038316906370a0823190602401602060405180830381865afa158015610b9a573d6000803e3d6000fd5b505050506040513d601f19601f82011682018060405250810190610bbe91906114cc565b1015610c0c5760405162461bcd60e51b815260206004820152601d60248201527f596f7520646f6e2774206861766520656e6f7567682062616c616e636500000060448201526064016102e2565b6040517fdd62ed3e00000000000000000000000000000000000000000000000000000000815233600482015230602482015282906001600160a01b0383169063dd62ed3e90604401602060405180830381865afa158015610c71573d6000803e3d6000fd5b505050506040513d601f19601f82011682018060405250810190610c9591906114cc565b1015610ce35760405162461bcd60e51b815260206004820152601b60248201527f4d75737420617070726f766520636f6e7472616374206669727374000000000060448201526064016102e2565b610cf86001600160a01b038216333085611109565b610d056004546001610fd2565b6004556001600160a01b03808416600090815260036020908152604080832093851683529290522054610d389083610fd2565b6001600160a01b03808516600081815260036020908152604080832094871680845294825280832095909555338252600181528482209282529182528381209281529190522054610d899083610fd2565b3360008181526001602090815260408083206001600160a01b03898116808652918452828520908816808652908452828520969096559383526002825280832093835292815282822093825292909252902054610de69083610fd2565b3360009081526002602090815260408083206001600160a01b03888116855290835281842090861680855292528083209390935582517f95d89b410000000000000000000000000000000000000000000000000000000081529251919290916395d89b419160048082019286929091908290030181865afa158015610e6f573d6000803e3d6000fd5b505050506040513d6000823e601f3d908101601f19168201604052610e97919081019061151f565b9050816001600160a01b0316846001600160a01b0316336001600160a01b03167f731fa8c1fe722772dcb0c9b11e0a53af551dd3d2ac3f2c1e0892eee5d118e59d86856040516106a39291906115ed565b610ef0610f78565b6001600160a01b038116610f6c5760405162461bcd60e51b815260206004820152602660248201527f4f776e61626c653a206e6577206f776e657220697320746865207a65726f206160448201527f646472657373000000000000000000000000000000000000000000000000000060648201526084016102e2565b610f75816110a1565b50565b6000546001600160a01b03163314610a435760405162461bcd60e51b815260206004820181905260248201527f4f776e61626c653a2063616c6c6572206973206e6f7420746865206f776e657260448201526064016102e2565b6000610fde828461161c565b90505b92915050565b6000610fde828461162f565b6040516001600160a01b03831660248201526044810182905261109c9084907fa9059cbb00000000000000000000000000000000000000000000000000000000906064015b60408051601f198184030181529190526020810180517bffffffffffffffffffffffffffffffffffffffffffffffffffffffff167fffffffff0000000000000000000000000000000000000000000000000000000090931692909217909152611160565b505050565b600080546001600160a01b038381167fffffffffffffffffffffffff0000000000000000000000000000000000000000831681178455604051919092169283917f8be0079c531659141344cd1fd0a4f28419497f9722a3daafe3b4186f6b6457e09190a35050565b6040516001600160a01b038085166024830152831660448201526064810182905261115a9085907f23b872dd0000000000000000000000000000000000000000000000000000000090608401611038565b50505050565b60006111b5826040518060400160405280602081526020017f5361666545524332303a206c6f772d6c6576656c2063616c6c206661696c6564815250856001600160a01b03166112459092919063ffffffff16565b80519091501561109c57808060200190518101906111d39190611642565b61109c5760405162461bcd60e51b815260206004820152602a60248201527f5361666545524332303a204552433230206f7065726174696f6e20646964206e60448201527f6f7420737563636565640000000000000000000000000000000000000000000060648201526084016102e2565b6060611254848460008561125c565b949350505050565b6060824710156112d45760405162461bcd60e51b815260206004820152602660248201527f416464726573733a20696e73756666696369656e742062616c616e636520666f60448201527f722063616c6c000000000000000000000000000000000000000000000000000060648201526084016102e2565b600080866001600160a01b031685876040516112f0919061166b565b60006040518083038185875af1925050503d806000811461132d576040519150601f19603f3d011682016040523d82523d6000602084013e611332565b606091505b50915091506113438783838761134e565b979650505050505050565b606083156113bd5782516000036113b6576001600160a01b0385163b6113b65760405162461bcd60e51b815260206004820152601d60248201527f416464726573733a2063616c6c20746f206e6f6e2d636f6e747261637400000060448201526064016102e2565b5081611254565b61125483838151156113d25781518083602001fd5b8060405162461bcd60e51b81526004016102e29190611687565b80356001600160a01b038116811461140357600080fd5b919050565b6000806040838503121561141b57600080fd5b611424836113ec565b9150611432602084016113ec565b90509250929050565b60008060006060848603121561145057600080fd5b611459846113ec565b9250611467602085016113ec565b9150611475604085016113ec565b90509250925092565b60006020828403121561149057600080fd5b610fde826113ec565b6000806000606084860312156114ae57600080fd5b6114b7846113ec565b925060208401359150611475604085016113ec565b6000602082840312156114de57600080fd5b5051919050565b634e487b7160e01b600052604160045260246000fd5b60005b838110156115165781810151838201526020016114fe565b50506000910152565b60006020828403121561153157600080fd5b815167ffffffffffffffff8082111561154957600080fd5b818401915084601f83011261155d57600080fd5b81518181111561156f5761156f6114e5565b604051601f8201601f19908116603f01168101908382118183101715611597576115976114e5565b816040528281528760208487010111156115b057600080fd5b6113438360208301602088016114fb565b600081518084526115d98160208601602086016114fb565b601f01601f19169290920160200192915050565b82815260406020820152600061125460408301846115c1565b634e487b7160e01b600052601160045260246000fd5b80820180821115610fe157610fe1611606565b81810381811115610fe157610fe1611606565b60006020828403121561165457600080fd5b8151801515811461166457600080fd5b9392505050565b6000825161167d8184602087016114fb565b9190910192915050565b602081526000610fde60208301846115c156fea264697066735822122075c9cf47b2903b299130b757eb5e407a5b7f56d7ec76e067e3fa62d977e83aaf64736f6c63430008110033",
  "linkReferences": {},
  "deployedLinkReferences": {}
}